:020000040800F2
:100000000017002001010008013F00085D260008DC
:10001000FD3E0008AD0F0008A548000800000000E4
:10002000000000000000000000000000093F000880
:10003000C70F000800000000073F00080B3F000842
:100040001B0100081B0100081B0100081B01000820
:100050001B0100081B0100081B0100081B01000810
:100060001B0100081B0100081B0100081B01000800
:100070001B0100081B010008AF0F0008BB0F0008A0
:100080001B0100081B0100081B0100081B010008E0
:100090001B0100081B0100081B0100081B010008D0
:1000A0001B0100081B0100081B0100081B010008C0
:1000B0001B0100081B0100081B0100081B010008B0
:1000C0001B0100081B0100081B0100081B010008A0
:1000D0001B0100088B4800081B0100081B010008D9
:1000E0001B0100081B0100081B010008DFF80CD0F1
:1000F00000F0F4FC004800471549000800170020F4
:100100000648804706480047FEE7FEE7FEE7FEE7B1
:10011000FEE7FEE7FEE7FEE7FEE7FEE7833F0008B7
:10012000ED0000082DE9F05F0546002092469B4651
:1001300088460646814640241BE0284641464746FD
:10014000224600F0E9FA53465A46C01A914110D3AC
:1001500011461846224600F0D0FA2D1A67EB010826
:100160004F4622460120002100F0C7FA17EB000994
:100170004E41201EA4F10104DFDC484631462A46E8
:100180004346BDE8F09F2DE9FE4399461546884653
:10019000074601AC022942D3002D40D00020029036
:1001A000A8F101004FF0FF36009022E000FB05723D
:1001B00001FB057011464A469047002805DC54F8BB
:1001C0002600304444F8260013E060682A4600FB0D
:1001D000057154F8040C00FB057007E00B7890F8EB
:1001E00000C001F801CB00F8013B521E002AF5D1F6
:1001F000764254F8040C61688842D7DC4B462A46A4
:100200003846FFF7C0FF54F8040C4B46A8EB00013A
:10021000401C00FB05702A46491EFFF7B4FFBDE8ED
:10022000FE83D2B201E000F8012B491EFBD27047D9
:100230000022F6E710B513460A4604461946FFF7B2
:10024000F0FF204610BD10B5044604E00B7800F81E
:10025000013B03B1491C521EF8D2204610BDCAB260
:10026000401E10F8011F8A4202D00029F9D1002057
:100270007047421C10F8011B0029FBD1801A7047FF
:1002800010B5002200E0521C835C8C5CA34201D1BB
:10029000002BF8D1D8B2E1B2401A10BD034611F8D4
:1002A000012B00F8012B002AF9D11846704730B510
:1002B00005460020034600E05B1C934205D2EC5C3F
:1002C000C85C201A01D1002CF6D130BD2DE9F041D7
:1002D0000546002090460E46044600E0641C444556
:1002E0000BD2285D00F035FA0746305D00F031FA98
:1002F000381A02D1295D0029F0D1BDE8F0812DE93D
:10030000F04791460F4680460446002614F8015BEC
:100310002DB100F011FA0068405DC007F6D12B2D19
:1003200002D02D2D18D0641E4A463946204600F0D2
:1003300016FA27B13968A14201D1C7F800807105CA
:100340004FF002040BD54042002803DD04F004FB0B
:100350000460A007BDE8F08746F48066E4E7002863
:10036000F8DA04F0F9FA04606FF00040F2E780EA8E
:10037000010210B502F00043400022D04A001FD015
:10038000010E01EB1261C0F35600C2F3560240F4B5
:10039000000042F40002A0FB022000047F39140494
:1003A00000D0401C50EA124001D44000491EC2B2A5
:1003B0000C0604EBD010401C4008802A02D003E059
:1003C000002010BD20F00100002900DA00201843B1
:1003D00010BD30B480EA010202F0004530F0004266
:1003E00021F0004013D090B1C30DD40DC2F316011B
:1003F000C0F31600E41A41F4000140F400027D3419
:10040000914201D3641C00E04900002C02DA30BCA8
:10041000002070474FF400000023914201D3891A55
:10042000034340084FEA4101F7D151B1914202D153
:100430004FF0004105E002D24FF0010101E06FF002
:10044000010103EBC450284430BC00F0DBB92DE9B6
:10045000FE4F81EA030404F0004421F000410094BF
:100460004FF0000B23F0004350EA01045ED052EA43
:1004700003045BD0C3F30A54C1F30A552C44A4F21D
:10048000F3340194A0FB0254C1F3130141F4801131
:10049000C3F3130343F4801301FB024400FB034E38
:1004A000840A970A44EA815447EA8357A4FB076801
:1004B00002958D0A05FB07854FEA932C04FB0C542B
:1004C0002705029D4FEA065847EA1637B5EB08059F
:1004D0006EEB070C870E920E47EA811742EA8312F1
:1004E000A7FB0201B6EB0B0164EB00042B0D43EA02
:1004F0000C335E1844EB1C50DA465146E7FB020110
:10050000C5F313044FEA0B3343EA14534FEA0432A2
:10051000019C43EA0603A4F10C040294009CCDE97B
:1005200000B400F0B5F903B0BDE8F08F002001463B
:10053000F9E72DE9F04D81EA030404F0004B21F0C6
:10054000004514464FF0000A23F0004150EA05022E
:1005500020D054EA01021DD0C5F30A570246C5F364
:100560001303C1F31300C1F30A5640F4801543F49A
:100570008013A7EB0608101BD64608F2FD3873EB74
:10058000050002D308F1010801E092185B41B8F1BF
:10059000000F03DA00200146BDE8F08D00204FF483
:1005A0008011064684460EE0171B73EB050705D342
:1005B000121B63EB050306434CEA010C49084FEAA2
:1005C000300092185B4150EA0107EDD152EA030076
:1005D00012D082EA040083EA0501084305D0101B0B
:1005E000AB4106D20122002306E000224FF0004377
:1005F00002E06FF0010253101AEB06004CEB0851B9
:1006000010EB0A0041EB0B01BDE8F04D00F031B9F1
:100610000EB5C10F80EAE0700844CA07002140F21D
:1006200033438DE80E000A460B4600F031F903B063
:1006300000BD70B5C1F30A5201F000450024C1F3BA
:10064000130140F2FF3341F480119A4201DA002095
:1006500070BD40F233439A42A2F2334203DC52426D
:1006600000F05AF800E090402C43F1D0404270BDB9
:1006700000F0004230F000400AD0C10D01F5607179
:10068000C0F3160042EA0151C20840071143704707
:1006900000200146704701F0004330B421F00041D2
:1006A00050EA010206D00A0DA2F56072C1F31301EF
:1006B000002A02DC30BC00207047440F44EAC10429
:1006C000C100E01830BC00EBC25000F09BB830B560
:1006D0000B46014600202022012409E021FA02F500
:1006E0009D4205D303FA02F5491B04FA02F528449A
:1006F000151EA2F10102F1DC30BD202A04DB203AF4
:1007000000FA02F1002070479140C2F1200320FA64
:1007100003F3194390407047202A04DB203A21FA62
:1007200002F00021704721FA02F3D040C2F120020A
:10073000914008431946704700487047005300082D
:1007400010B50446FFF7F8FF0068005D00F00100F7
:1007500010BDA0F14101192900D8203070472DE9C2
:10076000F05F82460078002715468B460AF10104A7
:10077000B946302801D09DB113E014F8010B0127D0
:10078000782803D0582801D045B10AE00DB1102DCA
:1007900007D10027102514F8010B02E0082500E01E
:1007A0000A250026B0460EE005FB080005FB06F111
:1007B000012701EB10461FFA80F8B6F5803F00D301
:1007C000B94614F8010B294600F0B2F90028EBDA1B
:1007D000BBF1000F05D00FB1641E00E05446CBF80A
:1007E0000040B9F1000F06D004F0B6F80221016014
:1007F000C81EBDE8F09F48EA0640FAE70023036000
:1008000000F0C3B90029A8BF7047401C490008BFC9
:1008100020F00100704710B4B0FA80FC00FA0CF030
:1008200050EA010404BF10BC704749B1CCF1200468
:1008300021FA04F411FA0CF118BF012121430843F5
:10084000A3EB0C01CB1D4FEA00614FEA102042BF21
:10085000002010BC704700EBC35010440029A4BF17
:1008600010BC7047401C490008BF20F0010010BCBC
:10087000704710B5141E73F1000408DA401C41F1F2
:10088000000192185B411A4301D120F0010010BD14
:100890002DE9F04D92469B4611B1B1FA81F202E08A
:1008A000B0FA80F220329046FFF727FF04460F4649
:1008B00040EA0A0041EA0B0153465A46084313D066
:1008C000114653EA010019D0C8F140025046FFF723
:1008D00023FF05460E46504659464246FFF70DFF98
:1008E000084305D0012004E020463946BDE8F08DDC
:1008F0000020054346EAE0762C4337430A98630517
:10090000E40AA0EB08000022FD0A44EA47540A303A
:1009100002D500200146E9E7010510196941DDE92A
:10092000084500196941BDE8F04DA2E72DE9FE4FE9
:10093000804681EA0300C00F0C46009021F0004180
:1009400023F00045B8EB0200A94105D240462146FC
:1009500090461C460B46024623F00040104347D009
:10096000270DC7F30A00C3F30A510290401A019001
:1009700040286BDAC3F3130040F4801B00989246C2
:1009800020B10023D2EB030A63EB0B0B019859460D
:10099000C0F140025046FFF7B0FE06460D465046F5
:1009A0005946019A00F0B2F810EB080061410024AA
:1009B00087EA115284EAE7731A4340D0009A62B37F
:1009C000019A012A4FEA075215DC001B61EB020174
:1009D0004FF0004202EA0752CDE90042001C41F507
:1009E000801132462B46FFF753FF03B0BDE8F08F6E
:1009F00040462146F9E7001B61EB0201001C41F56E
:100A0000801300185B412018A2F5001747EB030183
:100A100040EAD570B6196D4111E06D084FEA36060F
:100A200045EAC0754FEA0752001B61EB0201001C4A
:100A300041F5801149084FEA300000195141324612
:100A40002B4603B0BDE8F04FFFF713BF009801221B
:100A500040000023D0EB020263EBE07300982146D4
:100A60004FEAE074B8EB000061EB0401E9E783F0C2
:100A700000435BE781F0004158E7C1F30A52C1F33C
:100A8000130140F2FF3341F480119A4202DA002050
:100A90000146704740F233439A42A2F2334202DCED
:100AA0005242FFF739BEFFF728BE000030B5041EE2
:100AB00071F1000404DB4FF00044404264EB01019B
:100AC000141E73F1000405DB1C464FF00043524234
:100AD00063EB0403994208BF904230BD1CB509483E
:100AE0000090094801900546009C06E0E06840F04F
:100AF000010394E8070098471034AC42F6D3FFF79F
:100B0000F9FA00002C5700084C570008202A06DB91
:100B1000CB17203A41FA02F043EAE07306E041FACB
:100B200002F3D040C2F120029140084319467047B9
:100B30003A2800D2303820F02002412A01D3A2F115
:100B40003700884201D34FF0FF3070470FB40B00DD
:100B500010B58AB00FA900910E994FF00004234AF6
:100B6000CC60214CCDE9064200D004236FF0004256
:100B7000CDE901321E4A089202466B46002000F081
:100B8000CDF80AB010BC5DF814FBF0B585B007468F
:100B90004FF0FF300091CDE901011E4600201546BF
:100BA0000C4604903B466A46314604A8FFF7CEFF48
:100BB00004990346601825B109B1024600E02246B7
:100BC0002A6000290ED0002B02DD0099814209D055
:100BD0000094001BCDE901043B466A46314604A857
:100BE000FFF7B4FF05B0F0BD550F0008730F000804
:100BF000410700082DE9FF4F087883B09946FF2888
:100C000005D0491C2D2804D00024002008E0002035
:100C10000BE00124F9E700EB800003EB4000491CE6
:100C20000B78FF2BF7D104B14042002302931478D4
:100C300019461D462D2C01D02B2C04D1521C2D2CD5
:100C400013D000240294AA461478FF2C0FD00A2552
:100C5000A3FB057801FB05814FF0000C03FB0C1191
:100C6000521CE3194AEB0101EEE70124EAE7814453
:100C700053EA010002D019F5C87F06DA0398002173
:100C8000C0E9001107B0BDE8F08F0025AE4E2F4639
:100C9000DFF8B882184600F07DF9CDE90001B9F11E
:100CA000000002DAC9F1000400E004460023A74A6C
:100CB0001AEB030B42EB045A12E0E00707D02A4676
:100CC000334638464146FFF7C2FB074688462A4668
:100CD000334610461946FFF7BAFB05460E46641028
:100CE000002CEAD1DDE90001B9F1000F5A46534664
:100CF00006DAFFF71EFC3A464346FFF71AFC05E00A
:100D0000FFF7A5FB3A464346FFF7A1FB029A0AB15B
:100D100081F00041039AC2E90001B3E72DE9FF4FDA
:100D20001F468DB0D7E901464FF0FF382E204546CB
:100D30004FF000090B90B9696D1C0E988847396A0D
:100D4000824688470028F6D1BAF1FF3F0AD024F442
:100D5000D064002E11DDBAF12B0F08D0BAF12D0F9F
:100D60000BD102E0404611B08DE744F48064B969CC
:100D70006D1C0E9888478246761E6946600501D52F
:100D80002D2000E02B208DF8000001F1010B0DF16A
:100D9000200809E0B9696D1C0E98884782460F98B3
:100DA00044F40074761E0560002E02DDBAF1300FA7
:100DB000F0D00B998A453ED144F0800406E00F99AB
:100DC000681CA9F1010944F400740860B9696D1C3C
:100DD000761E0E98884782463028F0D02BE00B997B
:100DE0008A4505D1200603D444F08004761E18E01D
:100DF000504603F087FE08B30DF11302761EAAF1E8
:100E0000300044F40074934506D20BF8010B200621
:100E100007D5A9F1010003E0200602D409F1010081
:100E20008146A00502D50F99681C0860B9696D1C40
:100E30000E9888478246002ED1DC53E0002E51DD0B
:100E4000BAF1650F02D0BAF1450F4BD1A00549D5D3
:100E5000B9696D1C24F44074761E0E98884782464A
:100E6000002E0CDD2B2804D0BAF12D0F07D144F44D
:100E70008074B9696D1C0E9888478246761EE0051D
:100E800001D52D2100E02B2108F8011BCDF82C8085
:100E900021E00DF12901761E44F4007488450CD23E
:100EA000AAF1300010F0FF0088F8000002D10B9981
:100EB000884509D908F1010806E0E00501D5244874
:100EC00001E042F20F708146B9696D1C0E988847A7
:100ED00082460F980560002E04DD504603F012FE96
:100EE0000028D6D1F9690E988847FF208BF80000BA
:100EF00088F800000020069007904B466A4608A933
:100F000006A8FFF777FEA00502D46FF001002AE7DC
:100F100014F0240F0AD0E00714D1DDE90612386876
:100F2000031D3B600068C0E900120BE0DDE906012B
:100F3000FFF7B1FB0146E00704D13868021D3A60B3
:100F40000068016028460EE7000014400000F03FF2
:100F5000F1D8FFFF426842B1016811F8013B23B1AB
:100F6000521EC0E90012184670470121C160881E58
:100F7000704742685AB1C368016843B983688B42BD
:100F800005D0491E521CC0E90012002070474FF0E6
:100F9000FF3070470EB540F2334202920022CDE995
:100FA00000221346FFF774FC03B000BDFEE740F2D9
:100FB000B000C2F2000000F09EB840F26C00C2F235
:100FC000000000F098B87047B0B540F2F405C2F2E6
:100FD00000050446286800214162284600F010FF01
:100FE000286800BF416AA142FCD340F2F400C2F27B
:100FF0000000BDE8B04000F030BF0000EFF310800B
:1010000072B600BFFEE7014690F82100022813D116
:101010000868D1E90FC3026822F00E02026002687C
:1010200022F001020260012000FA03F2CCF8042051
:1010300081F82100002002E00420886301200022C2
:1010400081F82020704790F82110022923D10268EE
:10105000116821F00E0111602F211368C4F2020102
:101060008A4240F20401C4F2020123F0010313603A
:1010700015DD3023C4F202039A421CD04423C4F28B
:1010800002039A421AD05823C4F202039A421AD198
:101090004FF480331FE004218163012129E00823FC
:1010A000C4F202039A420CD01C23C4F202039A42F7
:1010B00009D110230FE04FF480730CE04FF48053FC
:1010C00009E0012307E001F1680C4FF080736245ED
:1010D00008BF4FF480130B60012180F82110426B90
:1010E000002180F8201022B180B590470021BDE892
:1010F00080400846704710B5D0E90FCE0168DCF893
:1011000000300A6823FA0EF35C0724D512F00404B9
:1011100021D00A68920603D40A6822F004020A6009
:101120002F22C4F20202914240F20402C4F20202EF
:101130004EDD3023C4F20203994261D04423C4F24D
:10114000020399425FD05823C4F2020399425FD14F
:101150004FF4802364E09C0727D512F0020424D0CA
:101160000A68920606D40A6822F00A020A6001227E
:1011700080F821202F22C4F20202914240F20402A0
:10118000C4F2020230DD3023C4F2020399424DD092
:101190004423C4F2020399424BD05823C4F2020301
:1011A00099424BD14FF4003350E01B0755D512F054
:1011B000080252D00A6822F00E020A60012101FAE8
:1011C0000EF2CCF80420816380F82110016B3FE01F
:1011D0000823C4F20203994218D01C23C4F202036C
:1011E000994215D140231BE00823C4F2020399421F
:1011F00022D01C23C4F2020399421FD1202325E0F0
:101200004FF480630CE04FF4804309E0042307E0CF
:1012100002F168044FF08063A14208BF4FF48003DD
:101220001360C16AC9B1BDE8104008474FF40073AC
:101230000CE04FF4005309E0022307E002F16804D8
:101240004FF00073A14208BF4FF400131360816A8E
:101250000022002980F82020E5D110BD0146002899
:101260004FF0010008BF70472DE9F0470A684FF6BC
:10127000F873CBF6FD7302EB030C4CF6CD43CCF6C2
:10128000CC43ACFB033C6FF00307002607EA9C0746
:10129000C4F2020601F10C0AC1E90F670227D1E985
:1012A000013E9AE83004D1E9069881F82170176868
:1012B00043F6F076B7433B4343EA0E0323432B4305
:1012C00043EA0A0343EA090343EA080313600022DE
:1012D0008A6381F8210081F820200020BDE8F047D2
:1012E000704790F820C0BCF1010F04BF0220704786
:1012F000F0B54FF0010E80F820E090F821C0BCF16D
:10130000010F26D14FF0020C80F821C04FF0000CE5
:10131000C0F838C0D0E900C4C56AC66BDCF80070FC
:10132000102C27F00107CCF80070006C0EFA00F0CA
:1013300070600846CCF8043004BF10460A46CCF86A
:101340000800CCF80C20DCF800003DB140F00E00A5
:101350000CE0002180F820100220F0BD20F00400F5
:10136000CCF80000DCF8000040F00A00CCF80000E7
:10137000DCF8000040F00100CCF800000020F0BDD7
:10138000B0B5044600F012F9054640F24B00C2F237
:1013900000000078611C18BF044400BF00F006F98B
:1013A000401BA042FAD3B0BD2DE9F04F82B00E68C9
:1013B000002E00F0EE8041F20042C4F2010204234C
:1013C00040F2004E904208BF03234FF6FF7CC4F268
:1013D000010E009300240123C1F2100C4FF0000A0B
:1013E0004FF0000903FA0AFB16EA0B0800F0C88068
:1013F0004E68664508DC032E34D8DFE806F0280284
:101400003E42D1F80C9043E04FF6FF72C1F2210248
:1014100096420DDC0022C1F21102964217D0002242
:10142000C1F21202964212D00022C1F221020CE057
:101430000022C1F22202964209D00022C1F23102FA
:10144000964204D00022C1F23202964220D18A682C
:1014500082B1012A14BFC0F814B0C0F810B04FF028
:10146000080915E0112E0FD0122E11D1CA6802F111
:101470000C090DE04FF004090AE0CA6802F10809FE
:1014800006E04FF0000903E0CA6802F1040900BF5A
:1014900022460646B8F5807F24BF203A04363768D6
:1014A0000F25954027EA050509FA02F22A43326022
:1014B000CA79D20664D541F21803C4F202031A684D
:1014C000AEF57E7642F001021A601A6802F001025F
:1014D0000192019A2AF0030256F802B040F6000287
:1014E000C4F20102904210D040F60042C4F2010260
:1014F000904208D041F20002C4F20102009F9042E3
:1015000008BF022702E0012700E0002704F00C03D7
:101510000F229A402BEA020207FA03F34FEA9A05D8
:101520001A4346F825204E6840F20C45F202DEF8D8
:10153000082054BF22EA080242EA0802C4F2010568
:10154000CEF808202A68B30254BF22EA080242EA11
:1015500008022A60B303DEF8042054BF22EA08021E
:1015600042EA0802F303CEF80420DEF800204FF030
:10157000010354BF22EA080242EA0802CEF8002022
:101580000E680AF1010A36FA0AF204F104047FF443
:1015900029AF02B0BDE8F08F8068084018BF012075
:1015A0007047002A08BF09040161704741F2FC201E
:1015B000C2F200000068704740F24B0041F2FC218B
:1015C000C2F20000C2F2000100780A68104408600C
:1015D000704780B542F20000C4F20200016841F099
:1015E00010010160032000F08BF8002000F004F8E7
:1015F00000F02AF8002080BDB0B540F24B02C2F2E4
:10160000000240F208011278C2F200014FF47A732E
:101610000968B3FBF2F20446B1FBF2F1084600F0B0
:101620005BFB0F2C4FF001050CD858B94FF0FF3081
:1016300021460022002500F038F840F24C00C2F2AA
:10164000000004602846B0BD82B041F21800C4F228
:1016500002000168022241F001010160016801F00D
:10166000010101910199416841F080514160406858
:1016700000F08050009000980420C4F2010001683E
:1016800062F31A61016002B0704700280CD400F0C8
:101690001F01012202FA01F11C2202EAD0004EF2DF
:1016A0000012CEF200028150704710B54EF60C5C6D
:1016B000CEF2000CDCF80030C3F3022E8EF00704EB
:1016C000042C28BF0424BEF103034FF0FF3E0EFAA2
:1016D00004F438BF0023A14399400EFA03F39A4360
:1016E000114300F00F0200F160430901043A03F5D1
:1016F00064436244002848BF02F10C03197010BD16
:101700004EF60C51CEF200010A684FF6FF031A4064
:1017100060F30A2242F0806040F0FD70086070477C
:1017200070470000002800F081802DE9F04381B06F
:1017300042F20008C4F202080446D8F800000D4640
:1017400000F0070088420CD2D8F8000020F0070013
:101750002843C8F80000D8F8000000F00700A842AD
:101760006FD1206841F204098107C4F2020917D53C
:10177000410705D5D9F8001041F4E061C9F800101F
:10178000010705D5D9F8001041F46051C9F80010DF
:10179000D9F80010A26821F0F0011143C9F8001037
:1017A000C00745D1D8F8000000F00700A8420CD9C6
:1017B000D8F8000020F007002843C8F80000D8F847
:1017C000000000F00700A8423BD12068410707D580
:1017D000D9F80010E26821F4E0611143C9F8001063
:1017E000000708D5D9F80000216920F4605040EACC
:1017F000C100C9F8000000F079F8D9F8001045F2EE
:101800000432C1F30311C0F60002515C40F2080239
:1018100020FA01F140F24C00C2F200000068C2F26E
:1018200000021160FFF7E8FE00200BE00120704786
:101830006068022809D0012827D159F8041C8903BF
:1018400007D4012001B0BDE8F08359F8041C8901D8
:10185000F7D5D9F8001021F003010843C9F80000BA
:10186000FFF7A4FE064641F2883700BFD9F8000012
:10187000616800F00C00B0EB810F93D0FFF796FE8B
:10188000801BB842F2D90320DCE759F8041C890711
:10189000D7D5DEE74C20C4F2422001210160704719
:1018A00040F2080041F20401C2F20000C4F2020159
:1018B0000068096845F21432C1F30221C0F6000243
:1018C000515CC840704740F2080041F20401C2F286
:1018D0000000C4F202010068096845F21432C1F345
:1018E000C221C0F60002515CC840704741F20401B9
:1018F000C4F202010B6841F6003003F00C02042A26
:10190000C0F2B70008BF7047082A0CD1C3F3834C5C
:101910000CA212F80C20DB030AD440F60010C0F22F
:101920003D005043704741F20020C0F27A007047FA
:10193000096808A3C1F34041595C5043B0FBF1F082
:10194000704700BF02030405060708090A0B0C0DC7
:101950000E0F10100102000010B541F20804C4F28D
:1019600002042068000658BF10BDFFF7D9FE802092
:10197000A07010BD58B32DE9F04182B00446007844
:1019800041F20006C007C4F2020629D0706800F0D8
:101990000C0004281DD0706800F00C00082802D14B
:1019A0007068C00315D46068002800F04181B0F56C
:1019B000A02F00F05581B0F5803F00F055813068D0
:1019C00020F480303060306820F480204FE1012026
:1019D00070473068800303D56068002800F0AD8050
:1019E0002078800719D5706810F00C0F07D0706848
:1019F00000F00C00082828D17068C00325D4306896
:101A0000800703D52069012840F09780306861691C
:101A100020F0F80040EAC1003060207800074FD580
:101A2000A06940B30020C4F242200121C0F8801414
:101A3000FFF7BCFD054600BF706A80072DD4FFF795
:101A4000B5FD401B0228F7D91FE12069002840F2AC
:101A50000000C4F2422000F0A28001210160FFF7E3
:101A6000A5FD054630688007D0D4FFF79FFD401BD9
:101A70000228F7D909E10020C4F242200021C0F871
:101A80008014FFF793FD0546706A800718D5FFF7AD
:101A90008DFD401B0228F7D9F7E040F20800C2F2A2
:101AA0000000006844F6D351C1F26201A0FB0101BD
:101AB000480A019000BF0198411E00280191F9D108
:101AC0002078400715D4E5698DB1706800F00C00EE
:101AD000082843D1012D30D07068216A00F480328B
:101AE0008A422AD1616A00F47010884225D1002010
:101AF000CCE0F0695FEAC00808D4F06940F080509B
:101B0000F061F06900F080500090009847F2000703
:101B1000C4F200073868C00511D4386840F48070FA
:101B20003860FFF743FD05463868C00507D4FFF766
:101B30003DFD401B6428F7D9A7E00120A6E0E0683E
:101B400000283DD0052854D0012856D0306A20F016
:101B500001003062306A20F0040051E00027C4F236
:101B6000422700203866FFF721FD022D05460BD1E4
:101B70003068800140F18D80FFF718FD401B02287E
:101B80004FF00300F4D981E030688001AFD5FFF752
:101B90000DFD401B02284FF00300F5D976E000212F
:101BA0000160FFF703FD0546306880077FF535AF1C
:101BB000FFF7FCFC401B02284FF00300F4D965E05E
:101BC000306A20F001003062306A20F00400306298
:101BD000FFF7ECFC054641F2883700BF306A80070A
:101BE0001DD5FFF7E3FC401BB8424FF00300F5D9C9
:101BF0004CE0306A40F004003062306A40F001008E
:101C00003062FFF7D3FC054641F28837306A80071F
:101C100005D4FFF7CBFC401BB842F7D935E0B8F14B
:101C2000000F3FF550AFF06920F08050F0614AE7B7
:101C3000306820F480303060306820F480203060DC
:101C4000FFF7B4FC054600BF306880037FF5C8AEDF
:101C5000FFF7ACFC401B64284FF00300F4D915E0FB
:101C6000306840F480203060306840F4803030606C
:101C7000FFF79CFC054600BF306880033FF5B0AE1F
:101C8000FFF794FC401B6428F6D9032002B0BDE89E
:101C9000F081206AB0F5803F05D17168A26821F417
:101CA0000031114371607168626A21F4741111434B
:101CB0000843706001203866FFF778FC044600BFD7
:101CC000306880013FF513AFFFF770FC001B02285E
:101CD0004FF00300F4D9D9E7411E0020B0EB116F9B
:101CE0001CBF012070474EF21002CEF2000251607C
:101CF0004EF62351CEF20001F0230B7007219060C5
:101D00001160704790F83C20012A4FF0020231D058
:101D100010B580F83D200268D2F804E0D2F808C07F
:101D20000C682EF07003234340F2FF74C4F20004E9
:101D3000A242536005DCB2F1804F0ED040F2004366
:101D400007E042F60043C4F201039A4205D040F690
:101D50000003C4F200039A4204D149682CF08003C6
:101D6000194391600121002280F83D1080F83C2049
:101D7000BDE810401046704740B310B5044690F8D7
:101D80003D0028B9002084F83C00204600F020F8EF
:101D9000022084F83D002068211D02F061F9012035
:101DA00084F8460084F83E0084F83F0084F8400040
:101DB00084F8410084F8420084F8430084F8440029
:101DC00084F8450084F83D00002010BD01207047D4
:101DD000006842F60041C4F20101884218BF704712
:101DE00081B041F21800C4F20200016841F40061C0
:101DF0000160006800F400600090009801B0704736
:101E000090F83D1001291CBF01207047022180F885
:101E10003D10006840F2FF71C4F20001884205DC09
:101E2000B0F1804F0ED040F2004107E042F6004191
:101E3000C4F20101884205D040F60001C4F200015D
:101E4000884204D1816801F00701062903D00168A6
:101E500041F001010160002070470146006841F235
:101E60001113026A1A4208D1026A40F244431A422C
:101E700003D1026822F0010202600122002081F8F1
:101E80003D20704790F83C20012A4FF0020200F0FC
:101E9000C38080B580F83D20D0F800C04FF677723F
:101EA000DCF8083023EA0202CCF808200B684F2B3C
:101EB00028DC1F2B44DD202B45D0302B43D0402B7A
:101EC00040F0AC80D1F804E0C968DCF82030DCF8E0
:101ED000202022F00102CCF82020DCF8182022F08B
:101EE000F00242EA011123F00A0242EA0E02CCF8A3
:101EF0001810CCF82020DCF8081041F0470121F040
:101F000030017EE06F2B26DDB3F5005F47D0B3F5DF
:101F1000805F78D0702B40F08180D1E901E3C968FF
:101F2000DCF8082043EA0E0322F47F4243EA012151
:101F30001143CCF80810DCF8081041F0770160E09C
:101F40000BB1102B6AD1DCF8081021F07001194395
:101F500041F0070155E0502B34D0602B5ED1D1F811
:101F600004E0C968DCF82030DCF8202022F0100200
:101F7000CCF82020DCF8182022F4704242EA01312B
:101F800023F0A00242EA0E12CCF81810CCF8202060
:101F9000DCF8081041F0670121F0100131E0D1E9CF
:101FA00001E3C968DCF8082043EA0E0322F47F420B
:101FB00043EA01211143CCF80810DCF8081041F481
:101FC00080411EE0D1F804E0C968DCF82030DCF87C
:101FD000202022F00102CCF82020DCF8182022F08A
:101FE000F00242EA011123F00A0242EA0E02CCF8A2
:101FF0001810CCF82020DCF8081041F0570121F02F
:102000002001CCF808100022012180F83D100021A9
:1020100080F83C10BDE88040104670470122F3E78D
:102020007047000010B504460068416994F84120EB
:10203000212A1FD111F080011CD000BF206850E878
:10204000050F216820F0800041E80502002AF5D143
:10205000A06B08B1FEF7D7FF206850E8030F216896
:1020600020F0C00041E80302002AF5D1202084F8C6
:1020700041002068406994F84210222913D110F0E1
:10208000400010D0206850E8050F216820F0400083
:1020900041E80502002AF5D1E06B08B1FEF7B3FF75
:1020A000204602F099FA002010BD7047B0B582B00A
:1020B000044600680168C368426901F02F05202DBD
:1020C00003F0200506D12DB1204602B0BDE8B04096
:1020D00002F0AABA5FEA017C1EBF02F0010E03F40F
:1020E000907212EB0E026CD1226BCD0641D5012A03
:1020F0003FD113F010023CD0002101910168019101
:102100004168019101994069400600F1B780A08DB6
:10211000E18DE28D002A00F01381401A00F0108159
:10212000216851E8031F226821F4907142E80313EB
:10213000002BF5D1216851E8051F226821F001012B
:1021400042E80513002BF5D1202184F8421000212C
:10215000216300BF216851E8031F226821F01001AC
:1021600042E80313002BF5D1022281B220466263BC
:10217000CAE00A0640F1CD8013F0800200F0C98069
:1021800094F84110212940F0DB80A168B1F5805F0F
:1021900003D12169002900F0DB80216A4A1C2262F8
:1021A00009784160E18C01390A04E18440F0C8807B
:1021B000C16821F08001C160C16841F04001C16087
:1021C000BEE0CA0718BF13F4807203D0626C42F0FD
:1021D000010262644A0706D5BEF1000F03D0626CAB
:1021E00042F0020262648A0706D5BEF1000F03D0F6
:1021F000626C42F004026264BCF1000F06D55EEA34
:10220000050203D0626C42F008026264626C002A2C
:1022100000F09680890604D51DB1204602F004FA2C
:1022200020684069616C00F0400001F0080140182E
:1022300000F08180204602F0CFF920684069400616
:1022400040F18080206850E8050F216820F04000B0
:1022500041E80502002AF5D1E06B002872D044F273
:10226000D141C0F600014163FEF7EDFE002867D0C2
:10227000E06B416B02B0BDE8B0400847E06B01681D
:1022800049688AB2002A5BD0A38D9A4258D2E18570
:102290008069202831D000BF206850E8030F2168F2
:1022A00020F4807041E80302002AF5D1206850E84C
:1022B000050F216820F0010041E80502002AF5D150
:1022C000206850E8050F216820F0400041E8050231
:1022D000002AF5D1202084F842000020206300BFAE
:1022E000206850E8030F216820F0100041E8030245
:1022F000002AF5D1E06BFEF786FE02206063A08D18
:10230000E18D401A81B2204602B0BDE8B040FFF72F
:1023100087BE490614D513F0400111D0C16821F0E1
:102320004001C1602021204684F8411002B0BDE880
:10233000B04000F07EB92046FFF7B7FE0020606491
:1023400002B0B0BD204602B0BDE8B040FFF7ADBE60
:10235000216A31F8022B6FF35F224260216221E78C
:1023600010B582B0006843F60001C4F20101884252
:1023700001D002B010BD40F23C10C2F20000006873
:1023800041F2F8140168C2F2000409071CD4016884
:10239000C906EED5002101910168019140680190C4
:1023A000019840F23C10C2F20000FFF73BFE40F201
:1023B0006C00C2F2000000684068C0F1FF0020809D
:1023C000012084F8010118E00021019102680192C6
:1023D00042680192019A0191026801924268019259
:1023E000019A01910168019140680190019840F2C1
:1023F0003C10C2F20000FFF715FE40F23C10A11C99
:10240000C2F20000FF2202B0BDE8104000F0A8B800
:1024100058B310B5044690F8410028B9002084F85C
:102420004000204600F023F8242084F84100206872
:10243000C16821F40051C160204602F054F92068BF
:10244000016921F490410161416921F02A01416152
:10245000C16841F40051C16000202021606484F80B
:10246000411084F84210606310BD012070472DE9CF
:10247000F04385B040F600050446C4F2010500684B
:1024800005F5405100278842039766D141F21800B4
:10249000C4F20200016801AE41F4804101600168AC
:1024A00040F2440801F48041009100990168C4F2AF
:1024B000020841F0040101600068314600F00400A8
:1024C000009000984FF400700190022002900320C9
:1024D00004902846FEF768FF4FF48060CDE90107BD
:1024E000284631460397FEF75FFF40F26C0508F17E
:1024F0001400C2F20005802620214FF48059C5E95E
:1025000000072846C5E90276C5E90477C5E906193A
:10251000FEF7A4FE08B1FEF771FDE5636C6240F2C0
:10252000B005C2F2000510200021C5E90080284650
:10253000C5E90216C5E90411C5E90619FEF78EFEC4
:1025400008B1FEF75BFD252000210022A5636C6227
:10255000FFF7ABF82520FFF798F805B0BDE8F0834A
:1025600010B590F84230202B08D14FF0010431B162
:102570002AB10024046302F0FFF800E002242046A0
:1025800010BD7047704700002DE9F041044690F8F7
:10259000410020281CBF0220BDE8F0810D46002923
:1025A0004FF001003DD01746DAB3002060642120CF
:1025B000984684F84100FEF7F9FFA784E784A168F4
:1025C0000746B1F5805F01D1206910B12E46002584
:1025D00000E00026E08CC0B1204680213A46434608
:1025E00002F016F9F8B92EB116F8010B216848600F
:1025F00007E000BF35F8020B21686FF35F204860E9
:102600000026E08C0138E084E4E7204640213A4689
:10261000434602F0FDF8202184F84110002818BF3D
:102620000320BDE8F081202084F841000320BDE8AC
:10263000F081704780B540F6000089B2C4F2010015
:10264000FEF7AAFF80BD80B540F6000089B2C4F253
:102650000100FEF7A6FF002080BD0000FEE700009D
:102660002DE9F043002856D090F80CC04FF0000E32
:10267000ACF104071C2F00F2A680012606FA07F72A
:1026800041F21F06C1F20006374200F09C80E2B121
:10269000437BD3B14FF0000C11F80C7000260725D6
:1026A000002400BF27FA06F303F00103AB40013614
:1026B0001C43082EA5F10105F4D101F80C400CF1E2
:1026C000010C9445E8D190F80CC00CF0FC03D0F854
:1026D00000E0042B22D1CCF108040EFA04F3DBB2A3
:1026E000B2B100254F5D00267B4000BF5FB2B7F15D
:1026F000FF3F01DD5B0004E08768A74087EA4303F2
:10270000DBB2072E06F10106F0D301359542E9D17F
:1027100023FA04FE25E04FF0000E54E00AB34FF018
:10272000FF3303FA0CF36FEA0308ACF10103012550
:10273000ACF108099D4000268B5D002703FA09F3E0
:1027400083EA0E032B424FEA43031CBF84686340B5
:10275000072F07F10107F5D30136964203EA080E69
:10276000EAD1837B93B1BCF1000F11D0ACF101072A
:10277000002600232EFA06F505F00105BD40013FB5
:102780002B437D1C06F10106F4D102E0734600E004
:102790000023476887EA030EAAB1407B98B1002066
:1027A0000F5C00260725002427FA06F303F0010337
:1027B000AB4001361C43082EA5F10105F4D10C54A1
:1027C00001309042ECD17046BDE8F08300207047A4
:1027D00080B582B041F2D010C2F20000016841F22F
:1027E000C410C2F20000026841F2CC10C2F2000034
:1027F000036841F2C810C2F20000D0F800C004A083
:10280000CDF800C002F098F8002002B080BD00BFF3
:1028100025732C25732C25732C25730D0A000000BD
:1028200080B541F2D01EC2F2000EDDF808C0CEF82D
:10283000001041F2C411C2F200010A6041F2CC1151
:10284000C2F200010B6041F2C811C2F20001C1F8EE
:1028500000C040F29811C2F200010128088004D89B
:1028600023A002F069F800BFFEE701F023FA40F26E
:102870005801C2F200010860C0B140F20C01002012
:10288000C2F2000101EBC00252680130002AF9D106
:10289000411E40F20C0044F6CD03C2F20000C0F627
:1028A00000030822BDE88040FDF76DBC02A002F0E5
:1028B000C9FC00BFFEE700BF5B4C4C4F53204552A4
:1028C000524F525D204C4C4F535F436D645F496ED5
:1028D000697420636F6E746578742E6275666665C0
:1028E00072206D616C6C6F63206E756C6C210D00D5
:1028F0005B4C4C4F53204552524F525D204C4C4F35
:10290000535F436D645F496E6974206275665369F5
:102910007A65203C3D2073697A656F66286368613B
:10292000722900002DE9F04381B040F20C05C2F29B
:1029300000056A68002A44D0A94659F8047B044679
:1029400038468846FDF795FC06463846214632460D
:10295000FDF7BCFC88B10835686890B355F8087B72
:102960003846FDF786FC0646384621463246FDF7D6
:10297000ADFC0028F0D1A5F1040940F29810C2F294
:102980000000028840F25805A8EB0600C2F20005DC
:10299000904238BF02462868A1196A60FDF753FCCF
:1029A000686870B1D9F8001059B140F25800C2F20D
:1029B0000000884718B1014604A001F0BDFF0120C6
:1029C00000E0002001B0BDE8F08300BF5B4C4C4F3D
:1029D00053204552524F525D204C4C4F5320434D93
:1029E00044204552523A203078253032580D0A00A2
:1029F000F0B581B089B10568064628460C4601F05D
:102A000033FD36683078A0F1300102290DD231381B
:102A1000B0FA80F0400901272EE045F2C940C0F627
:102A2000000002F00FFC02202CE020B916A002F0FA
:102A300009FC012026E023A1304602220227FDF7EF
:102A400045FCB0B120A1304603220327FDF73EFC30
:102A500088B11EA1304604220427FDF737FC40B19F
:102A60001CA1304605220527FDF730FC18B11BA03C
:102A7000DDE7012000E000202070E9193046FDF775
:102A80000DFC002001B0F0BD5B4C4C4F5320455273
:102A9000524F525D204C4C4F535F436D645F506109
:102AA00072616D426F6F6C3A20636F6E74657874FB
:102AB0002D3E627566666572203D3D204E554C4C3C
:102AC000210D00004F4E00004F4646005452554520
:102AD0000000000046414C53450000005B4C4C4F49
:102AE00053204552524F525D204C4C4F535F436D23
:102AF000645F506172616D426F6F6C3A2050617219
:102B0000616D65746572206572726F72210D0000CF
:102B1000F0B581B071B3154662B3064600680C4645
:102B200001F0A2FC376821A039460322FDF7CEFB55
:102B300028B31FA039460322FDF7C8FBF8B1384679
:102B40002221FDF78CFB30B3471C38462221FDF7CC
:102B500086FB00B37668C01BB04238BF0646AE4263
:102B600028BF2E46204639463246FDF76CFB002032
:102B7000A05519E01CA002F065FB022014E0032D13
:102B800001D80CA00DE0204639460322FDF75BFB7F
:102B90000020E07008E00020207045F22060C0F6C0
:102BA000000002F04FFB012001B0F0BD4D41580084
:102BB0004D494E005B4C4C4F53204552524F525D95
:102BC000204C4C4F535F436D645F506172616D43A5
:102BD0006F7079546578743A20636F7079206C65F2
:102BE0006E203C2034210D005B4C4C4F532045524D
:102BF000524F525D204C4C4F535F436D645F5061A8
:102C000072616D436F7079546578743A20506172C7
:102C1000616D65746572203D3D204E554C4C210D13
:102C200000000000F0B581B0002900F0E780064602
:102C300000680C4601F018FC30680178002900F0AB
:102C4000D580694602F010FB009D3668B54200F061
:102C5000CD8045F268610746C0F600012846022291
:102C6000FDF725FB002800F0CE8045F27461C0F628
:102C7000000128460222FDF71AFB002800F0C3805D
:102C800045F29261C0F6000128460222FDF70FFBD3
:102C9000002800F0B88045F28F61C0F60001284698
:102CA0000222FDF704FB002800F0AD8045F26B61C5
:102CB000C0F6000128460222FDF7F9FA002800F0CC
:102CC000A28045F26E61C0F6000128460222FDF79F
:102CD000EEFA002800F0978045F27A61C0F6000114
:102CE00028460222FDF7E3FA002800F08C8045F226
:102CF0006561C0F6000128460222FDF7D8FA0028D7
:102D000000F0918045F27161C0F600012846022270
:102D1000FDF7CDFA002800F0868045F28C61C0F600
:102D2000000128460222FDF7C2FA00287BD045F2B6
:102D30007761C0F6000128460222FDF7B8FA0028A4
:102D400071D045F29A61C0F6000128460222FDF7D3
:102D5000AEFA00286FD045F29961C0F6000128460E
:102D60000322FDF7A4FA002867D045F29561C0F66A
:102D7000000128460322FDF79AFA00285FD045F2A9
:102D80008761C0F6000128460422FDF790FA00286A
:102D90005BD045F28861C0F6000128460322FDF7AA
:102DA00086FA002853D045F28261C0F60001284619
:102DB0000422FDF77CFA00284BD045F27D61C0F675
:102DC000000128460422FDF772FA002843D0287833
:102DD000A0F14101162940D8012202FA01F1A122F5
:102DE000C0F26002114238D0013514E045F28D4046
:102DF000C0F6000002F026FA012012E01AA002F04C
:102E000021FA02200DE002350021C4F27A41384651
:102E1000FDF7DFFA074630462946FDF73FFA002066
:102E2000276001B0F0BD02350021C4F27A41384676
:102E3000FDF79DFAEEE70235EDE70335F4E70335DC
:102E400042F20041C4F67411F1E70435DCE70335C2
:102E5000E1E70435E8E70435F2E77328C4D06D28CC
:102E600008BF0135D7E700BF5B4C4C4F532045529C
:102E7000524F525D204C4C4F535F436D645F506125
:102E800072616D466C6F61743A20506172616D655C
:102E9000746572203D3D204E554C4C210D000000C4
:102EA000F0B581B0002900F0E980064600680C46C4
:102EB00001F0DAFA30680178002900F0D78069461D
:102EC0000A22FDF71CFA009D3668B54200F0CE805C
:102ED00045F268610746C0F6000128460222FDF768
:102EE000E6F9002800F0CF8045F27461C0F60001D9
:102EF00028460222FDF7DBF9002800F0C48045F2E5
:102F00009261C0F6000128460222FDF7D0F90028A0
:102F100000F0B98045F28F61C0F600012846022218
:102F2000FDF7C5F9002800F0AE8045F26B61C0F6F0
:102F3000000128460222FDF7BAF9002800F0A3801C
:102F400045F26E61C0F6000128460222FDF7AFF996
:102F5000002800F0988045F27A61C0F6000128460A
:102F60000222FDF7A4F9002800F08D8045F265618A
:102F7000C0F6000128460222FDF799F9002800F06A
:102F8000988045F27161C0F6000128460222FDF7E3
:102F90008EF9002800F08D8045F28C61C0F60001AA
:102FA00028460222FDF783F9002800F0828045F2CE
:102FB0007761C0F6000128460222FDF778F9002863
:102FC00077D045F29A61C0F6000128460222FDF74B
:102FD0006EF9002872D045F29961C0F600012846CA
:102FE0000322FDF764F900286AD045F29561C0F626
:102FF000000128460322FDF75AF9002862D045F265
:103000008761C0F6000128460422FDF750F9002828
:1030100064D045F28861C0F6000128460322FDF71E
:1030200046F900285CD045F28261C0F600012846CE
:103030000422FDF73CF9002854D045F27D61C0F62A
:10304000000128460422FDF732F900284CD02878E8
:10305000A0F14101162949D8012202FA01F1A12269
:10306000C0F26002114241D001351AE045F25140F0
:10307000C0F6000002F0E6F8012018E01EA002F001
:10308000E1F8022013E002353846FDF7C1FA44F2B8
:103090000003C4F28F030022FDF74BFAFDF7C9FAD3
:1030A000074630462946FDF7F9F80020276001B0B1
:1030B000F0BD02354FF47A704743F2E70235F0E78E
:1030C0000335F7E703353846FDF7A2FA48F28043A7
:1030D000C4F22E130022FDF7BAF9DFE70435D3E777
:1030E0000335DEE70435E5E70435ECE77328BBD0AC
:1030F0006D2808BF0135D4E75B4C4C4F5320455237
:10310000524F525D204C4C4F535F436D645F506192
:1031100072616D496E7433323A20506172616D652F
:10312000746572203D3D204E554C4C210D00000031
:1031300080B540F2BC10C2F20000006808B18047C0
:1031400005E045F22A40C0F6000002F07BF80020BE
:1031500080BD000070B588B00DF11F010446FFF777
:1031600047FC88B906A92046FFF75CFD60B905A9B0
:103170002046FFF795FE38B90DF10905204629468E
:103180000A22FFF7C5FC10B1012008B070BD0698F7
:103190009DF81F60FDF76CFA059C02460B4604A0E3
:1031A0003146CDE9004501F0C7FB0020EDE700BF47
:1031B0002A54657374202D3E2025642C2025662C0E
:1031C0002025642C2025730D0A00000040F24802DF
:1031D000C2F2000210701F38C3B2C00040EA5310A0
:1031E00040F28412C3B2C2F20002032B4FF0FF037D
:1031F000D3710BD840B225A232F81000884288BFA4
:10320000014640F2B810C2F20000018010B540F251
:103210008C11C2F20001086870B14968012200F007
:10322000A3F90A2000F0E6F800F064F848B119A00C
:1032300002F008F8022010BD22A002F003F80120DD
:1032400010BD44F28920C0F6000000F02BFC0446BB
:1032500040F23400C2F20000FF2C04700ED040F2A5
:10326000B810C2F20000008800F07EFB02460B4658
:103270002046022100F046FC002010BD45F2BB6054
:10328000C0F6000001F0DEFF032010BD6400C8009E
:10329000900120035B4C4C4F53204552524F525DDE
:1032A000204C4C4F535F445331384232305F496EAB
:1032B00069743A207265736574206661696C65642F
:1032C000210D00005B4C4C4F53204552524F525D34
:1032D000204C4C4F535F445331384232305F496E7B
:1032E00069743A20646576203D3D204E554C4C0D66
:1032F0000000000010B540F28C14C2F20004D4E9C2
:103300000001012200F030F9052000F08FF8D4E927
:103310000001002200F028F94FF4FA7000F086F85E
:10332000D4E90001012200F01FF9462000F07EF8E8
:10333000D4E9000100F0B0F804464FF4FA7000F050
:1033400075F8E0B210BD000070B540F28C15002495
:10335000C2F20005002600BFD5E900010022C6F335
:10336000460600F001F9052000F060F8D5E90001FB
:10337000012200F0F9F80A2000F058F8D5E9000120
:1033800000F08AF800284FF03C0018BF66F07F0676
:1033900000F04CF8072C04F10104DDD3F0B270BD4D
:1033A000F0B581B040F28C1704460026C2F2000747
:1033B000D7E90001002204F0010500F0D5F8002D46
:1033C0004FF005004FF0460508BF462008BF052511
:1033D00000F02CF8D7E90001012200F0C5F82846DA
:1033E00000F024F86408072E06F10106E0D301B0CE
:1033F000F0BD000040F2B011C2F20001096801B155
:10340000084701A001F01EBF5B4C4C4F53204552B2
:10341000524F525D204C4C4F535F44656C61794D67
:10342000733A204E554C4C210D00000040F2B4116F
:10343000C2F20001096801B1084701A001F002BF12
:103440005B4C4C4F53204552524F525D204C4C4FD9
:10345000535F44656C617955733A204E554C4C214D
:103460000D00000070B540F2AC11C2F200010E7800
:103470007EB1054640F26400C2F20000046800BF5D
:1034800021682846FCF7FCFE20B1013E04F134041B
:10349000F6D10024204670BD10B1026A02B1104777
:1034A00080B503A001F0CEFE4FF0FF3080BD00BF1D
:1034B0005B4C4C4F53204552524F525D204C4C4F69
:1034C000535F4465766963655F5265616450696EF8
:1034D0003A20646576203D3D204E554C4C210D0030
:1034E00010B58EB001AC201D3021FCF7A1FE0CA060
:1034F000019042F24760C0F600000A9042F2356047
:10350000C0F600000990204600F070FAFF281CBFAA
:103510000EB010BD019904A001F00EFAFEE700BF45
:103520004750494F410000005B4C4C4F53204552DF
:10353000524F525D204C4C4F535F44657669636532
:103540005F52656769737465725F4750494F202504
:1035500073207265676973746572206661696C6552
:1035600064210D0A0000000010B1436A03B118473E
:1035700080B502A001F066FE022080BD5B4C4C4F7E
:1035800053204552524F525D204C4C4F535F44657F
:10359000766963655F577269746550696E3A206435
:1035A0006576203D3D204E554C4C210D000000001D
:1035B0002DE9F04381B040F2BC13C2F20003186061
:1035C000086840F2B013C2F200031860486840F285
:1035D000B411C2F200010860D179137A40F2A41745
:1035E00040F2A816C2F20007C2F20006397033702A
:1035F000136840F29C11C2F200019079547A40F2B3
:10360000A21540F2AC190B60918840F2A012C2F2F0
:103610000005C2F20009C2F20002287089F80040D9
:10362000118043B104290ED845F2EC30C0F60000F9
:1036300001F008FEFEE745F2FE40C0F6000001F092
:1036400001FE00BFFEE7A82100FB01F4204600F0C8
:1036500031FB40F26808C2F20008C8F8000040B32D
:103660002146FCF7E5FD28788400204600F022FB87
:1036700040F2C011C2F20001086010B32146FCF70D
:10368000D7FD387800EB4000C400204600F012FB64
:10369000D8F8001041F2F412C2F200021060C1B971
:1036A0003978B1B145F22A50C0F6000001F0CAFDE8
:1036B000FEE745F25C50C0F6000001F0C3FD00BF1C
:1036C000FEE745F2C250C0F6000001F0BBFD00BFAE
:1036D000FEE72146FCF7ACFD3078C400204600F040
:1036E000E9FAD8F8001040F25002C2F2000210606D
:1036F00049B9317839B145F2F050C0F6000001F017
:10370000A1FD00BFFEE72146FCF792FD99F80000FD
:10371000342100FB01F4204600F0CCFA40F26401B1
:10372000C2F20001086050B999F8001039B145F2B1
:103730008E50C0F6000001F085FD00BFFEE7214677
:10374000FCF776FD45F28430C0F6000001F07AFD0A
:1037500045F21C30C0F6000001F074FD45F2503017
:10376000C0F6000001F06EFD45F2B830C0F6000072
:1037700001F068FD06A001F065FD45F25E6111A053
:10378000C0F6000101B0BDE8F04301F0D5B800BFBC
:103790005B4C4C4F532044454255475D204C4C4FA9
:1037A000535F496E697420202D2D2D2D2020202D52
:1037B0002D2D2D202020202D2D202020202D2D20AE
:1037C00020200D005B4C4C4F532044454255475D33
:1037D000204C4C4F535F496E6974204C4C4F532022
:1037E00076657273696F6E3A2025730D0A000000CA
:1037F00041F2F010C2F200000078002800F0B3801F
:103800002DE9F04F81B040F2680EC2F2000EDEF8F2
:1038100000C04FF00008A8274FF0000A002100BFA9
:1038200048B200FB07F94FF0780B0026009100BF6B
:103830000AFB07C40CEB0903224632F8A20F9D19BC
:1038400032F8027C95F89F10384322F8020C39B107
:10385000012185F88F10A2F8008085F89F8006E08E
:1038600095F88F10A2F8008085F89F8069B141F229
:10387000E811C2F2000106C903EB0B0753F80B3045
:103880007F68C91A72EB070102D2A82754E000BF73
:10389000D4F8A420A827002A4ED040F29411C2F2F6
:1038A00000010B6806F10F01012505FA01F87BB153
:1038B000009C00EA080081B2E0B2002275469847F9
:1038C00028680AFB0700D0F8A420B0F8A00001E0A7
:1038D000009C754600EA0800E4B281B22046904799
:1038E000D5F800C040F294130AFB07C1C2F20003EE
:1038F000B1F8A0201B685040AE46A1F8A0006BB103
:1039000000EA080081B22046012274469847D4F8A4
:1039100000C0A6460AFB07C0B0F8A00000EA0800F5
:10392000000402D04FF0000806E00CEB0900304420
:103930004FF0000880F88F80ABF1080B1BF10800F6
:10394000A6F101067FF474AF009941F2F010C2F2C3
:103950000000013100784FFA81FA8245FFF660AF2E
:1039600001B0BDE8F04F704740F24A01C2F20001D9
:103970000978B0FBF1F000217047000040F2A2117D
:10398000C2F200010A78824209D9014640F2C01011
:10399000C2F200000268002042F82100704780B5A2
:1039A00002A001F04FFCFF2080BD00BF5B4C4C4FDC
:1039B00053204552524F525D204C4C4F535F4D7334
:1039C000675F436C6561723A203E204C4C5F544106
:1039D000534B5F4E554D210D0000000040F2C011C9
:1039E000C2F20001096851F820007047F0B581B0BB
:1039F00040F2600C40F2AC13C2F2000CC2F20003C1
:103A00009CF800101B78994228D240F26403C2F25D
:103A100000031B684FF0340E01FB0E32046800F106
:103A2000080701FB0EFEE0CF43F80E4002F1080349
:103A3000E0C3D0E905375171C2E90537D0E907374E
:103A4000C2E90737D0E90937C2E90937D0E90B30B5
:103A5000C2E90B30481C8CF8000003E003A001F021
:103A6000F1FBFF21084601B0F0BD00BF5B4C4C4F9D
:103A700053204552524F525D204C4C4F535F52657C
:103A80006769737465725F4465766963653A203E61
:103A9000204C4C5F4445565F4D41585F4E554D217B
:103AA0000D00000010B541F2F011C2F200010C78D7
:103AB000FF2C03D108A001F0C5FB0BE040F2680227
:103AC000C2F200021268A82304FB0322C2F8A40079
:103AD000601C0870204610BD5B4C4C4F5320455273
:103AE000524F525D204C4C4F535F5265676973745F
:103AF00065725F4576656E74733A203E3D203235BF
:103B000035210D00F0B540F2A215C2F200052D7866
:103B1000854228D940F26805C2F200052D68A82424
:103B200000FB045E41F2E814BEF8A2000EF1900C16
:103B30000843AEF8A2000020C2F20004012500BF35
:103B400021FA00F6F60707D0D4E900670CF8005018
:103B5000B6185F41CEE90067013010280EF1080E5B
:103B600008BFF0BDECE702A0BDE8F04001F06ABB81
:103B70005B4C4C4F53204552524F525D204C4C4FA2
:103B8000535F53746172745F4576656E743A203E7C
:103B9000204C4C5F5441534B5F4E554D210D00005E
:103BA0002DE9F04F81B040F24A01C2F2000141F22A
:103BB000E81A0870C2F2000ADAE9000241F2D815E8
:103BC000013042F10002CAE90002C2F20005DAE95E
:103BD0000003D5E900270978801A4FF47A72B2FB06
:103BE000F1F263EB07010023FCF79CFA52EA0300B1
:103BF00024D1A86840F2A8140130A860C2F20004E1
:103C00002078D8B140F25006C2F2000631684FF079
:103C100000080027AA6851F837309A420BD301EB0D
:103C2000C70252683AB1F8B290473168207801EB88
:103C3000C702C2F8048001378742EBD340F2A41BCD
:103C4000C2F2000B9BF8000088B341F2F419C2F2F3
:103C50000009D9F800800027002600BF08EB0705FF
:103C6000287C68B1DAE9000158F80720EB68801A6F
:103C7000D5E90142A141FCF755FA52EA030007D009
:103C80009BF800000136864207F11807E6D30EE0E4
:103C900069690029F4D0F0B28847D9F8008008EBB0
:103CA0000700417C0029EBD100210174E8E701B055
:103CB000BDE8F08F40F2A011C2F200010B88411E56
:103CC00089B2994224BF00207047B0B581088407AB
:103CD0004FF0010218BF02EB9001B1EB930F36D207
:103CE00040F29C10C2F20000026823F0030040F290
:103CF000FF0EAC2302EB000CCFF6007ECCF6005397
:103D0000106800EA0E049C420CD1C0F30F2002EBB5
:103D10008000041D04EB810200206245224628BF7A
:103D2000B0BDEDE769B1141D002000BF256805EAAC
:103D30000E059D42EED0013085B28D4204F104049F
:103D4000F4D343EA012042F8040B1046B0BD002032
:103D5000B0BD80B582B041F21400C4F20200016827
:103D6000002241F0010101600068002100F0010023
:103D7000019001980E20FDF798FC0E20FDF785FCC0
:103D80000F2000210022FDF790FC0F2002B0BDE8BB
:103D90008040FDF77ABC2DE9F04784B041F218006D
:103DA000C4F20200016840F6000A41F020010160FF
:103DB0000168C4F2010A01F0200100910099016834
:103DC000012241F0040101600168012701F00401B2
:103DD00000910099016841F008010160006801212B
:103DE00000F00800009000985046FDF7DAFB0AF555
:103DF000806420464FF4707101224FF47078FDF713
:103E0000D0FB11206E46CDE901074FF00209504664
:103E100031460097CDF80C90FDF7C6FA802000904F
:103E2000002550463146CDE90157FDF7BDFA204641
:103E30003146CDE900750297FDF7B6FA20463146C6
:103E4000CDE90087CDE90259FDF7AEFA04B0BDE82F
:103E5000F08780B586B040F2F40042F600420021BF
:103E6000C2F20000C4F2010223234FF6FF7C059149
:103E7000CDE90311CDE90011C0E90023C0E9021C1E
:103E8000C0E904118161FDF777FF08B1FDF7B6F8CD
:103E90004FF48050029040F2F400C2F2000002A9F8
:103EA000FDF7F0FF08B1FDF7A9F840F2F400C2F207
:103EB00000006946FDF726FF08B1FDF79FF806B040
:103EC00080BD80B540F23C1043F60001C2F2000014
:103ED000C4F2010100234FF00C0C4FF4E13280E8F2
:103EE0000E00C0E90333C0E905C3C361FEF790FAD1
:103EF00018B1BDE88040FDF781B880BDFEE7000045
:103F0000FDF72AFDFEE77047704780B50120FFF7F7
:103F100047FEBDE88040FDF74FBB0000B0B590B054
:103F200000240120CDE90B44CDE9094406900A9014
:103F30004FF480104FF4803102250F9006A8CDE990
:103F40000714CDE90D51FDF715FD20B1EFF31080F9
:103F500072B600BFFEE70F20CDE901054FF4806087
:103F6000CDE9040401A802210394FDF7DBFB20B195
:103F7000EFF3108072B600BFFEE7FDF78BFC10B0C8
:103F8000B0BD704710B586B040F23C10C2F20000E0
:103F9000016841F2F814CA68C2F2000442F010024B
:103FA000CA60A11CFF22FEF7DBFA002084F80101A1
:103FB000039041F28130C0F60000049040F6C970D1
:103FC000C0F60000059040F60320ADF80C0040F26A
:103FD000C410C2F20000019041F20000C0F20A5089
:103FE000029044F6A900C0F6000004A901AAFFF758
:103FF000DFFA07A409A10CA20DA3FF200094FEF78D
:104000000FFCFFF76DFA00F0C9F806B010BD00BF55
:104010003030303030303031000000004C69747482
:104020006C654C65616600004C4C4F53000000000D
:1040300056322E302E30000080B5FFF7D9FB41F20A
:10404000F810C2F2000090F8011141B1002180F88F
:10405000011130F8021BBDE88040FEF763BC80BD53
:1040600010B540F2FF7E0368C4F2000E42F6004C29
:104070007045C4F2010C05DCB0F1804F0AD040F26B
:10408000004203E0604505D040F60002C4F20002A1
:10409000904203D14A6823F070031343704505DC56
:1040A000B0F1804F0AD040F2004203E0604505D0F5
:1040B00040F60002C4F20002904203D1CA6823F421
:1040C0004073134323F080024B69D1F800E08C6801
:1040D0001A4360450260C462C0F828E002D1096951
:1040E000CCF83010012141610169C90708BF10BD3A
:1040F000016921F00101016110BD000010B50AB293
:10410000B2F1FF3F04DDC80710D14FF6FF7429E07C
:104110000446FFF763FC024613A0214600F00CFCA6
:104120002046FFF72BFC4FF400441BE040F28410C4
:10413000C2F200000068FCF79BFA024612A00B4690
:1041400000F0FAFB40F24900C2F2000004784FF49C
:104150007A70FFF709FC02460B4620460121012434
:10416000FFF7D0FC204610BD7461736B256420728C
:10417000656365697665206D6573736167653A206F
:1041800025730D0A0000000054656D70657261743E
:104190007572653A20252E31660D0A00B0B51EA055
:1041A000FFF760F9F8B1044644F2FD00C0F60000E4
:1041B000FFF778FC40F24905C2F20005FF2828709D
:1041C00019D040F28C10C2F200000121C0E9004178
:1041D0001F206421FEF7FAFF88B1014610A0BDE858
:1041E000B04000F0A9BB45F2FC60C0F6000001F051
:1041F00029F800BFFEE718A001F024F8FEE72C78AC
:104200002046FFF7B1FB02460B4620460121BDE8E0
:10421000B040FFF777BC00BF4750494F4100000056
:104220005B4C4C4F53204552524F525D20546173AA
:104230006B5F445331384232305F496E6974206994
:104240006E6974206661696C656421206572723ADA
:104250002025640D0A0000005B4C4C4F5320455252
:10426000524F525D205461736B5F44533138423278
:10427000305F496E697420696E6974206661696C8B
:104280006564210D00000000F0B583B00AB2B2F100
:10429000FF3F06DD880711D4C80726D14FF6FF700F
:1042A000CCE00446FFF79AFB014669A000F044FB0E
:1042B0002046FFF763FB4FF40040BFE040F254009C
:1042C000C2F20000007800284AD1FFF713F818B3B3
:1042D00040F28410C2F200000321C1714CF6CD41BE
:1042E000CCF2C721016064202DE040F25400C2F2FC
:1042F00000000078002840F08E80FEF7FBFF88B3B6
:1043000040F28410C2F200000221C1714CF6CD418E
:10431000CCF2C72101607EE0CC20FFF741F84420B9
:10432000FFF73EF840F24800C2F2000000781F3864
:10433000C1B2C00040EA5110C1B2042910D240B24B
:1043400045A151F8200040F23401C2F200010C787E
:10435000FFF70AFB02460B4620460121FFF7D2FB7E
:1043600002206BE0CC20FFF71BF8BE20FFF718F807
:10437000FEF7EAFF0446FEF7E7FF05468DF8044026
:104380008DF80500FEF7E0FF40F28417C2F2000747
:1043900038718DF80600FEF7D7FF78718DF80700A9
:1043A000FEF7D2FFB8718DF80800FEF7CDFF8DF84B
:1043B0000900FEF7C9FF8DF80A00FEF7C5FF8DF86A
:1043C0000B00FEF7C1FF064640F23800C2F20000C3
:1043D00001A90822FEF744F9B04231D169B2C8B24E
:1043E00044EA00200024CBF6B0744242B1F1FF3F12
:1043F000D8BF90B2C4BF0024C3F6B074FCF708F96C
:1044000002460B46002021460024FCF720F8FCF76A
:1044100042F93860FC7140F23400C2F200000478C6
:1044200040F2B810C2F200000088FFF79DFA024681
:104430000B4620460221FFF765FB012003B0F0BDCB
:104440004CF6CD410120CCF2C721F8713960F5E777
:1044500025730D0A0000000064000000C800000081
:10446000900100002003000058B101460A78202A7C
:1044700018BF2C2A01D10131F8E72AB903A000F0B6
:10448000E1BE0AA000F0DEBEFBF708BF5B4C4C4F5C
:1044900053204552524F525D205472696D3A204E5E
:1044A0006F207370616365210D0000005B4C4C4F01
:1044B00053204552524F525D205472696D3A207319
:1044C0007472203D3D204E554C4C210D00000000E3
:1044D000406A0021C185C184FDF7E7BD10B5446A7B
:1044E0002068416994F84120212A13D111F08001FC
:1044F00010D00020E08400BF206850E8030F21683E
:1045000020F0C00041E80302002AF5D1202084F801
:1045100041002068406994F84210222907D110F028
:10452000400004D00020E085204600F055F8606C83
:1045300040F0100120466164BDE81040FDF7B5BDB4
:104540000168406A0968890630D40021C18500BF2E
:10455000016851E8031F026821F4807142E80313E7
:10456000002BF5D1016851E8051F026821F0010117
:1045700042E80513002BF5D1016851E8051F0268D8
:1045800021F0400142E80513002BF5D1202180F8ED
:104590004210016B012909D1016851E8031F02682B
:1045A00021F0100142E80313002BF5D100214163F3
:1045B000016B012918BFFDF7E4BF818DFDF730BD08
:1045C000406A01214163016B012918BFFDF7DABF81
:1045D000818D4908FDF724BD016851E8031F026879
:1045E00021F4907142E80313002BF5D1016851E8E2
:1045F000051F026821F0010142E80513002BF5D1E7
:10460000016B01290AD100BF016851E8031F02684C
:1046100021F0100142E80313002BF5D1202180F88E
:10462000421000210163704790F84210222918BF00
:10463000704783680246B3F5805F0CD152F8281F9B
:1046400052F8183C8BB9026852686FF35F2221F868
:10465000022B81620FE052F8281F0BB9036923B1C6
:1046600003685B6803F07F0301E003685B680B701D
:10467000116801311160C18D01390A04C18500D072
:1046800070470168CA6822F02002CA60CA6822F432
:104690008072CA604A6922F001024A61202180F8D2
:1046A000421000214163026B012A18BFFDF769BF68
:1046B00081B00163016851E8031F026821F0100115
:1046C00042E80313002BF5D101680A68D20606D52B
:1046D000002200920A680092496800910099818D39
:1046E00001B0FDF79DBC10B504460068D4E902C2D4
:1046F0002369016921F4405111430161616943EA71
:104700000C021143C26841F20C639A431143C16029
:104710004169A26921F44071114343F60002C4F2D9
:1047200001029042416102D0FDF7BAF801E0FDF7C5
:10473000CAF8D4E90023192148439900B0FBF1F0ED
:1047400048F21F51C5F2EB11A0FB013463094FF68B
:104750009C74C0F6FF7403FB0400322404EB0010C9
:10476000A0FB0101F02000EA511000EB0310C1F39F
:1047700043110844906010BD70B582B01346002507
:104780000446816283854564222084F842000A46FB
:104790002168E06B44F2415C44F2C15E44F2DD46C4
:1047A000C0F6000CC0F6000EC0F600060431C0E9E9
:1047B0000ACEC0E90C65FCF794FD019520680168FC
:1047C0000191406801900198206948B1206850E843
:1047D000030F216840F4807041E80302002AF5D1FC
:1047E000206850E8050F216840F0010041E805020B
:1047F000002AF5D1206850E8050F216840F04000FC
:1048000041E80502002AF5D1002002B070BD000089
:104810002DE9F04182B0804600681D4603680E46CF
:104820001940B1421CD017466C1C00BFA4B1FCF764
:10483000BDFE01464FF003009DB1C91BA94210D82F
:10484000D8F80000C168490706D5402E04D0802E54
:1048500002D00168090707D401683140B142E5D1AF
:10486000002002B0BDE8F0810024019401680191AC
:104870004068019001984046FFF7AEFE0820C8F856
:10488000440088F840400120EBE710B540F23C14AA
:10489000C2F200042046FDF763FD2046BDE810404B
:1048A000FDF704BCFEE700004EF60C50BFF34F8F3F
:1048B000CEF200000168042201F4E061C0F2FA5275
:1048C00011430160BFF34F8F00BFFDE710B50968CA
:1048D00004460846FBF7CDFC216804460846FBF772
:1048E000C8FC0021844238BF4FF0FF3188BF01214E
:1048F000084610BD80B582B0019040F23C10C2F273
:10490000000001A901224FF6FF73FDF73DFE01985B
:1049100002B080BDFCF75DFEFFF700FBFFF73BFA3E
:10492000FFF717FAFFF7CDFAFFF793FAFFF72AFB25
:10493000FFF782FBFCE700000FB4054B10B503A99D
:10494000044A029800F0E6F810BC5DF814FB000081
:10495000F5480008000000200048704704000020CF
:1049600002E008C8121F08C1002AFAD17047704738
:10497000002001E001C1121F002AFBD17047000096
:104980002DE9FF5F82B00021DDE90430020DDDF882
:1049900040B0034318D044F61050A2F2FF32424315
:1049A0001514119801281FD0A5EB0B00401C5FEADD
:1049B000000A4FF000064E4FDFF83891B0465046DF
:1049C00015D5CAF1000413E0119801244AA3012867
:1049D00001D16FEA0B010298119AC0E90031C0E9D8
:1049E000024206B0BDE8F09FCBF10000DFE70446CD
:1049F0000021404A491842EB0450CDE9001012E072
:104A0000E00707D032463B4640464946FBF71FFDCC
:104A10008046894632463B4610461946FBF717FD4D
:104A200006460F466410002CEAD1DDE90401DDE9F9
:104A30000023BAF1000F06DAFBF709FD42464B46A8
:104A4000FBF705FD05E0FBF774FD42464B46FBF71F
:104A500070FD04460E460022284BFCF727F803D8C9
:104A60004FF0FF30014607E00022254B204631463B
:104A7000FBF75CFFFCF701F8102409E0002C0ADBCF
:104A80000A220023FBF74EFB039B30321A55641EAB
:104A900050EA0102F2D1641C039AC4F111031444D8
:104AA000119A012A03D0012208430DD10AE00843DC
:104AB00004D000204FF0110B119072E7A3EB0B050F
:104AC0006D1E0DE05B4504DD4FF0000205F10105B0
:104AD00004E003DA4FF00002A5F10105002AECD052
:104AE00002981199C0E90231C0E9004579E7000058
:104AF000000014400000F03F300000000000F043D0
:104B00000000E03F30380A2801D201207047002021
:104B1000704700002DE9FF4F95B09B468946064639
:104B200000250FE2252877D100242746F84A0121E5
:104B3000059400E0044316F8013F203B01FA03F01E
:104B40001042F7D130782A2811D06FF02F03307837
:104B5000A0F13002092A16D8059A44F0020402EBAB
:104B6000820203EB42021044761C0590EFE759F8ED
:104B7000042B0592002A03DA504244F400540590B5
:104B800044F00204761C30782E2816D116F8010F56
:104B900044F004042A280DD06FF02F023078A0F1E1
:104BA0003003092B09D807EB870302EB4303C7182F
:104BB000761CF3E759F8047B761C30786C280FD00C
:104BC00006DC4C2817D068280DD06A2814D104E0E0
:104BD000742810D07A280FD10DE044F400140AE0B4
:104BE00044F4801401E044F440147278824202D10B
:104BF00004F58014761C761C307866280BD013DC04
:104C0000582877D009DC002875D04528F6D04628EA
:104C1000F4D047281AD19DE118E0632835D06428E4
:104C200079D0652812D195E1702873D008DC672807
:104C3000F1D069286FD06E280DD06F2806D1B5E06D
:104C400073282CD0752875D0782874D05A461799B7
:104C500090476D1C75E1C4F30250022809D0032867
:104C60000DD0D9F8001004280DD00D6009F1040909
:104C700067E1D9F80010EA17C1E90052F6E7D9F860
:104C800000100D80F2E70D70F0E719F8041B8DF8A5
:104C9000001000208DF80100EA46012003E059F8D9
:104CA00004AB4FF0FF3061074FF0000102D40DE07C
:104CB00008F101018846B9420FDA8045F8DB1AF89D
:104CC00008100029F4D108E008F10101884681426A
:104CD000FADB1AF808100029F6D105985B46A0EB1C
:104CE000080721463846179A00F094FA284400EB4A
:104CF000080507E04DE029E10DE01AF8010B5A46DE
:104D000017999047B8F10108F7D25B46214638461B
:104D1000179A13E142E00A220092C4F302524FF0C4
:104D2000000A022A08D059F804CB032A4FEAEC7192
:104D30000AD00DE029E02AE009F1070121F007027D
:104D4000F2E802C1914609E00FFA8CFC4FEAEC71DF
:104D5000042A03D14FFA8CFC4FEAEC71002907DAE0
:104D60000A460021DCF1000C61EB02012D2202E079
:104D7000220504D52B228DF80420012203E0E2074E
:104D800001D02022F7E7904659E00A2102E01022E4
:104D90000DE010214FF0000A00910BE010224FF0BF
:104DA000000A44F004040827009203E008224FF0B0
:104DB000000A0092C4F30252022A05D059F804CB2B
:104DC0000021032A08D009E009F1070121F00702B8
:104DD000F2E802C1914605E01FFA8CFC042A01D1D9
:104DE0000CF0FF0C4FF00008220728D5702806D0E1
:104DF000009B83F0100353EA0A0305D00EE0402223
:104E00008DF80420012208E05CEA010206D030227D
:104E10008DF804208DF8050002229046009B83F057
:104E2000080353EA0A030AD15CEA010201D16207CE
:104E300005D530228DF804204FF001087F1E582838
:104E400004D034A003900EA802900DE036A0F9E73C
:104E500053466046009AFBF765F984460398825CE6
:104E60000298401E029002705CEA0100F0D10298A4
:104E700006A9081A00F1200A600702D524F480343C
:104E800000E00127574502DDA7EB0A0000E0002003
:104E900000EB0A01009005984144401A0590E00398
:104EA00006D45B462146179A059800F0B3F90544ED
:104EB000002706E001A85A46C05D179990476D1C6F
:104EC0007F1C4745F6DBE0030CD55B462146179A6D
:104ED000059800F09FF9054404E030205A461799E0
:104EE00090476D1C0099481E00900029F5DC08E0F1
:104EF000029802995A460078491C029117999047E6
:104F00006D1CBAF10001AAF1010AF1DC65E10000B3
:104F1000092801003031323334353637383961628F
:104F20006364656600000000303132333435363753
:104F300038394142434445460000000000F058F92A
:104F40000544761C307800287FF4ECAD19B0284673
:104F5000BDE8F08F620700D4062709F1070222F0AE
:104F6000070CFCE80223E14603F000485FEA080C66
:104F700002D00FF2702C0DE05FEA045C02D50FF254
:104F8000682C07E05FEAC47C02D00FF2602C01E0DD
:104F9000AFF2700C4FF0FF3823F00043CDF850C053
:104FA00065280CD006DC452809D046281DD04728A6
:104FB0003DD13DE0662818D067287ED138E0002139
:104FC000112F01DB112000E0781CCDE9000106A9BA
:104FD0000EA8FFF7D5FCDDE90F010E9A0391002121
:104FE000009207F1010A04914DE04FF00040009754
:104FF000CDE9011006A90EA8FFF7C2FCDDE90F02FA
:1050000003920E9B11990022DDF80CA000930492EC
:1050100011B9791C00EB010AB7EB0A0004D4C0F106
:10502000FF3007F1010A0490AAEB0700019044E069
:10503000012F00DA01270021112F01DD112000E0EE
:105040003846CDE9000106A90EA8FFF799FCDDE975
:105050000F010E9A0391002104910092BA46210794
:105060000CD40399514500DA8A46BAF1010F05DDE7
:10507000009AAAF10101515C302908D0B84202DA45
:1050800010F1040F06DA0121CDE9011015E0AAF1B3
:105090000101E9E7002805DC049901440491AAEB29
:1050A000000102E0411C514500DD8A460499401A86
:1050B000401C01904FF000400290200704D401985A
:1050C000504501DBCDF8048000208DF84F00029898
:1050D0000DF14F07B0F1004F25D02B200E90029814
:1050E0004FF0020800280CDA404202902D200E906A
:1050F00007E00A210298FBF7EAFA3031029007F83C
:10510000011DB8F10001A8F10108F2DC02980028A5
:10511000EFD1791E0E980870307800F0200040F032
:10512000450007F8020D12A8C01B00F107081498EB
:10513000007800B1012000EB0A01019801EBE07159
:1051400005984144401A401E0590E00306D45B4692
:105150002146179A059800F05DF8054414980078E8
:1051600018B15A46179990476D1CE00324D55B4649
:105170002146179A059800F04DF805441CE0049864
:10518000002807DBDDE90301884203DD0098405C6D
:10519000179901E0179930205A469047049805F175
:1051A0000105401C04900198401E019004D12E205E
:1051B0005A46179990476D1CBAF10001AAF1010AED
:1051C000DDDC05E017F8010B5A46179990476D1C76
:1051D000B8F10001A8F10108F4DC5B462146179AFA
:1051E0000598ABE62D0000002B0000002000000019
:1051F0002DE9F041044600251E461746880404D4D4
:1052000005E039462020B0476D1C641EF9D52846BC
:10521000BDE8F0812DE9F041044600251E46904688
:10522000C80301D5302700E02027880404D505E015
:1052300041463846B0476D1C641EF9D52846BDE886
:10524000F081000010B5044601E0FFF753FB14F8AD
:10525000010B04490028F8D1BDE810400A20FFF7EF
:1052600049BB00000000002008B50A46002100915B
:1052700001466846FBF7C2FA009808BD004040406E
:105280004040404040404141414141404040404019
:1052900040404040404040404040404040050202C5
:1052A0000202020202020202020202020220202084
:1052B00020202020202020020202020202029090E0
:1052C00090909090101010101010101010101010DE
:1052D0001010101010101010020202020202888832
:1052E000888888880808080808080808080808083E
:1052F0000808080808080808020202024000000026
:105300007D520008000000000000000001020304BC
:105310000607080900000000010203045B4C4C4F23
:10532000532044454255475D204C4C4F535F496ED6
:105330006974207C2020202020207C202020202018
:10534000207C202020207C207C20202020200D007C
:105350005B4C4C4F532044454255475D204C4C4FCD
:10536000535F496E6974207C2020202020207C20FF
:1053700020202020207C202020207C20202D2D205B
:1053800020200D005B4C4C4F532044454255475D57
:10539000204C4C4F535F496E697420482020652093
:1053A000206C20206C20206F2020202D2D202020FC
:1053B00020202D2D20200D005B4C4C4F53204445C8
:1053C0004255475D204C4C4F535F496E6974207CB9
:1053D0002020202020207C2020202020207C202015
:1053E00020207C20202020207C200D005B4C4C4F76
:1053F00053204552524F525D204C4C4F535F496EE3
:105400006974206D656D4366672D3E706F6F6C53D8
:10541000697A65203C3D2073697A656F66287569F5
:105420006E7433325F7429210D005B4C4C4F532056
:105430004552524F525D204C4C4F535F5379737419
:10544000656D5F52657365743A204E554C4C210D65
:10545000005B4C4C4F53204552524F525D204C4CF8
:105460004F535F436D645F506172616D496E743379
:10547000323A20636F6E746578742D3E627566668D
:105480006572203D3D204E554C4C210D005B4C4C2F
:105490004F53204552524F525D204C4C4F535F4367
:1054A0006D645F506172616D466C6F61743A206328
:1054B0006F6E746578742D3E627566666572203D08
:1054C0003D204E554C4C210D005B4C4C4F5320451C
:1054D00052524F525D204C4C4F535F436D645F50AE
:1054E0006172616D426F6F6C3A20506172616D65DF
:1054F000746572203D3D204E554C4C210D005B4C97
:105500004C4F53204552524F525D204C4C4F535FED
:10551000496E6974206D656D4366672D3E70506FEE
:105520006F6C204E554C4C210D005B4C4C4F532062
:105530004552524F525D204C4C4F535F496E697437
:105540002074696D657243425F6C697374206D618C
:105550006C6C6F63206E756C6C210D005B4C4C4F56
:1055600053204552524F525D204C4C4F535F496E71
:105570006974206576656E7443425F6C697374204C
:105580006D616C6C6F63206E756C6C210D005B4CF3
:105590004C4F53204552524F525D204C4C4F535F5D
:1055A000496E6974206C6C5F6465766963655F6CD5
:1055B000697374206D616C6C6F63206E756C6C2107
:1055C0000D005B4C4C4F53204552524F525D204CC6
:1055D0004C4F535F496E6974206D73675F6C6973DC
:1055E00074206D616C6C6F63206E756C6C210D00A6
:1055F0005B4C4C4F53204552524F525D204C4C4F08
:10560000535F496E697420616C61726D5F6C697380
:1056100074206D616C6C6F63206E756C6C210D0075
:105620005B4C4C4F53204552524F525D204C4C4FD7
:10563000535F436D645F506172616D436F70795465
:105640006578743A20506172616D65746572206688
:105650006F726D6174206572726F72210D00563227
:105660002E302E30006B41006D41006D46006D48BC
:10567000006B56006D56006B57006D57004D6F68FC
:105680006D006B6F686D006D6F686D006B6D006D08
:105690006D006D73004D487A006B487A002A4944CA
:1056A0004E3F002A5253540053595374656D3A5279
:1056B00045536574002A54657374005B4C4C4F531A
:1056C000204552524F525D204C4C4F535F44533152
:1056D000384232305F496E69743A206473313862FF
:1056E00032305461736B4964203D3D204C4C5F4522
:1056F00052525F494E56414C49440D005B4C4C4F51
:1057000053204552524F525D205461736B5F445396
:1057100031384232305F496E6974204750494F201A
:105720004E6F7420466F756E64210D00505700084F
:10573000000000205000000060490008A057000849
:1057400050000020B0160000704900080000000062
:10575000000000000000000000127A009D560008C2
:10576000D1270008A856000831310008B5560008B6
:1057700055310008A3560008CD2700089C560008A4
:1057800000000000FF00000000000000000000001A
:1057900031000000080101007FFF0101100000003E
:04000005080000ED02
:00000001FF
