:020000040800F2
:10000000681000200101000819270008E519000800
:1000100015270008B9060008C12C000800000000E0
:100020000000000000000000000000002127000880
:10003000D3060008000000001F270008232700083F
:100040001B0100081B0100081B0100081B01000820
:100050001B0100081B0100081B0100081B01000810
:100060001B0100081B0100081B0100081B01000800
:100070001B0100081B010008BB060008C70600089A
:100080001B0100081B0100081B0100081B010008E0
:100090001B0100081B0100081B0100081B010008D0
:1000A0001B0100081B0100081B0100081B010008C0
:1000B0001B0100081B0100081B0100081B010008B0
:1000C0001B0100081B0100081B0100081B010008A0
:1000D0001B010008A72C00081B0100081B010008D9
:1000E0001B0100081B0100081B010008DFF80CD0F1
:1000F00000F0B8FA00480047D12D00086810002031
:100100000648804706480047FEE7FEE7FEE7FEE7B1
:10011000FEE7FEE7FEE7FEE7FEE7FEE79B270008B7
:10012000ED0000082DE9F05F0546002092469B4651
:1001300088460646814640241BE0284641464746FD
:10014000224600F04AF953465A46C01A914110D34C
:1001500011461846224600F031F92D1A67EB0108C6
:100160004F4622460120002100F028F917EB000934
:100170004E41201EA4F10104DFDC484631462A46E8
:100180004346BDE8F09F40EA01039B0703D009E026
:1001900008C9121F08C0042AFAD203E011F8013B73
:1001A00000F8013B521EF9D27047D2B201E000F8CC
:1001B000012B491EFBD270470022F6E710B513460B
:1001C0000A4604461946FFF7F0FF204610BD2DE908
:1001D000FE4F81EA030404F0004421F00041009442
:1001E0004FF0000B23F0004350EA01045ED052EAC6
:1001F00003045BD0C3F30A54C1F30A552C44A4F2A0
:10020000F3340194A0FB0254C1F3130141F48011B3
:10021000C3F3130343F4801301FB024400FB034EBA
:10022000840A970A44EA815447EA8357A4FB076883
:1002300002958D0A05FB07854FEA932C04FB0C54AD
:100240002705029D4FEA065847EA1637B5EB080521
:100250006EEB070C870E920E47EA811742EA831273
:10026000A7FB0201B6EB0B0164EB00042B0D43EA84
:100270000C335E1844EB1C50DA465146E7FB020192
:10028000C5F313044FEA0B3343EA14534FEA043225
:10029000019C43EA0603A4F10C040294009CCDE9FE
:1002A00000B400F0B9F803B0BDE8F08F00200146BB
:1002B000F9E72DE9F04D81EA030404F0004B21F049
:1002C000004514464FF0000A23F0004150EA0502B1
:1002D00020D054EA01021DD0C5F30A570246C5F3E7
:1002E0001303C1F31300C1F30A5640F4801543F41D
:1002F0008013A7EB0608101BD64608F2FD3873EBF7
:10030000050002D308F1010801E092185B41B8F141
:10031000000F03DA00200146BDE8F08D00204FF405
:100320008011064684460EE0171B73EB050705D3C4
:10033000121B63EB050306434CEA010C49084FEA24
:10034000300092185B4150EA0107EDD152EA0300F8
:1003500012D082EA040083EA0501084305D0101B8D
:10036000AB4106D20122002306E000224FF00043F9
:1003700002E06FF0010253101AEB06004CEB08513B
:1003800010EB0A0041EB0B01BDE8F04D00F035B871
:1003900030B50B46014600202022012409E021FA55
:1003A00002F59D4205D303FA02F5491B04FA02F552
:1003B0002844151EA2F10102F1DC30BD202A04DB25
:1003C000203A00FA02F1002070479140C2F1200368
:1003D00020FA03F3194390407047202A04DB203AA7
:1003E00021FA02F00021704721FA02F3D040C2F155
:1003F0002002914008431946704710B5141E73F14E
:10040000000408DA401C41F1000192185B411A43D4
:1004100001D120F0010010BD2DE9F04D92469B4620
:1004200011B1B1FA81F202E0B0FA80F220329046C6
:10043000FFF7C4FF04460F4640EA0A0041EA0B01F9
:1004400053465A46084313D0114653EA010019D0C7
:10045000C8F140025046FFF7C0FF05460E46504621
:1004600059464246FFF7AAFF084305D0012004E0A1
:1004700020463946BDE8F08D0020054346EAE07687
:100480002C4337430A986305E40AA0EB08000022D6
:10049000FD0A44EA47540A3002D500200146E9E744
:1004A000010510196941DDE9084500196941BDE8F8
:1004B000F04DA2E72DE9FE4F804681EA0300C00F10
:1004C0000C46009021F0004123F00045B8EB0200FB
:1004D000A94105D24046214690461C460B4602469D
:1004E00023F00040104347D0270DC7F30A00C3F3A1
:1004F0000A510290401A019040286BDAC3F31300AE
:1005000040F4801B0098924620B10023D2EB030AEE
:1005100063EB0B0B01985946C0F140025046FFF7C0
:100520004DFF06460D4650465946019A00F0B2F876
:1005300010EB08006141002487EA115284EAE77356
:100540001A4340D0009A62B3019A012A4FEA075237
:1005500015DC001B61EB02014FF0004202EA07527A
:10056000CDE90042001C41F5801132462B46FFF7D1
:1005700053FF03B0BDE8F08F40462146F9E7001B6A
:1005800061EB0201001C41F5801300185B4120184B
:10059000A2F5001747EB030140EAD570B6196D418B
:1005A00011E06D084FEA360645EAC0754FEA07527A
:1005B000001B61EB0201001C41F5801149084FEA64
:1005C00030000019514132462B4603B0BDE8F04FD0
:1005D000FFF713BF0098012240000023D0EB020276
:1005E00063EBE073009821464FEAE074B8EB00003B
:1005F00061EB0401E9E783F000435BE781F0004130
:1006000058E7C1F30A52C1F3130140F2FF3341F43A
:1006100080119A4202DA00200146704740F23343CB
:100620009A42A2F2334202DC5242FFF7D6BEFFF7F3
:10063000C5BE000030B5041E71F1000404DB4FF0AC
:100640000044404264EB0101141E73F1000405DB19
:100650001C464FF00043524263EB0403994208BF2B
:10066000904230BD1CB509480090094801900546EC
:10067000009C06E0E06840F0010394E8070098471A
:100680001034AC42F6D3FFF735FD0000D83900082E
:10069000F8390008202A06DBCB17203A41FA02F08D
:1006A00043EAE07306E041FA02F3D040C2F12002CF
:1006B0009140084319467047FEE740F26400C2F2D9
:1006C000000000F084B840F22000C2F2000000F008
:1006D0007EB87047EFF3108072B600BFFEE70146A8
:1006E00090F82100022813D10868D1E90FC30268ED
:1006F00022F00E020260026822F001020260012074
:1007000000FA03F2CCF8042081F82100002002E076
:10071000042088630120002281F82020704790F88F
:100720002110022923D10268116821F00E01116005
:100730002F211368C4F202018A4240F20401C4F27C
:10074000020123F00103136015DD3023C4F202031C
:100750009A421CD04423C4F202039A421AD058236E
:10076000C4F202039A421AD14FF480331FE00421ED
:100770008163012129E00823C4F202039A420CD0CC
:100780001C23C4F202039A4209D110230FE04FF454
:1007900080730CE04FF4805309E0012307E001F17E
:1007A000680C4FF08073624508BF4FF480130B60F4
:1007B000012180F82110426B002180F8201022B125
:1007C00080B590470021BDE880400846704710B5CD
:1007D000D0E90FCE0168DCF800300A6823FA0EF386
:1007E0005C0724D512F0040421D00A68920603D4D1
:1007F0000A6822F004020A602F22C4F20202914227
:1008000040F20402C4F202024EDD3023C4F20203BD
:10081000994261D04423C4F2020399425FD0582325
:10082000C4F2020399425FD14FF4802364E09C0735
:1008300027D512F0020424D00A68920606D40A686A
:1008400022F00A020A60012280F821202F22C4F23D
:100850000202914240F20402C4F2020230DD30236F
:10086000C4F2020399424DD04423C4F202039942D8
:100870004BD05823C4F2020399424BD14FF40033BA
:1008800050E01B0755D512F0080252D00A6822F03A
:100890000E020A60012101FA0EF2CCF804208163F5
:1008A00080F82110016B3FE00823C4F20203994253
:1008B00018D01C23C4F20203994215D140231BE037
:1008C0000823C4F20203994222D01C23C4F202037B
:1008D00099421FD1202325E04FF480630CE04FF4B0
:1008E000804309E0042307E002F168044FF08063CD
:1008F000A14208BF4FF480031360C16AC9B1BDE8CB
:10090000104008474FF400730CE04FF4005309E027
:10091000022307E002F168044FF00073A14208BF10
:100920004FF400131360816A0022002980F8202010
:10093000E5D110BD014600284FF0010008BF704707
:100940002DE9F0470A684FF6F873CBF6FD7302EB1A
:10095000030C4CF6CD43CCF6CC43ACFB033C6FF020
:100960000307002607EA9C07C4F2020601F10C0AFD
:10097000C1E90F670227D1E9013E9AE83004D1E9C5
:10098000069881F82170176843F6F076B7433B4329
:1009900043EA0E0323432B4343EA0A0343EA0903D2
:1009A00043EA0803136000228A6381F8210081F87A
:1009B00020200020BDE8F047704790F820C0BCF12F
:1009C000010F04BF02207047F0B54FF0010E80F810
:1009D00020E090F821C0BCF1010F26D14FF0020CAD
:1009E00080F821C04FF0000CC0F838C0D0E900C436
:1009F000C56AC66BDCF80070102C27F00107CCF834
:100A00000070006C0EFA00F070600846CCF80430FC
:100A100004BF10460A46CCF80800CCF80C20DCF8DD
:100A200000003DB140F00E000CE0002180F82010E5
:100A30000220F0BD20F00400CCF80000DCF800003B
:100A400040F00A00CCF80000DCF8000040F00100A3
:100A5000CCF800000020F0BDB0B5044600F00DF960
:100A6000054640F20900C2F200000078611C18BF80
:100A7000044400BF00F001F9401BA042FAD3B0BD0E
:100A80002DE9F04F82B00E68002E00F0EE8041F2AA
:100A90000042C4F20102042340F2004E904208BF1B
:100AA00003234FF6FF7CC4F2010E009300240123C0
:100AB000C1F2100C4FF0000A4FF0000903FA0AFBD4
:100AC00016EA0B0800F0C8804E68664508DC032E65
:100AD00034D8DFE806F028023E42D1F80C9043E01B
:100AE0004FF6FF72C1F2210296420DDC0022C1F2E4
:100AF0001102964217D00022C1F21202964212D081
:100B00000022C1F221020CE00022C1F22202964230
:100B100009D00022C1F23102964204D00022C1F273
:100B20003202964220D18A6882B1012A14BFC0F8ED
:100B300014B0C0F810B04FF0080915E0112E0FD016
:100B4000122E11D1CA6802F10C090DE04FF0040910
:100B50000AE0CA6802F1080906E04FF0000903E064
:100B6000CA6802F1040900BF22460646B8F5807F34
:100B700024BF203A043637680F25954027EA05053B
:100B800009FA02F22A433260CA79D20664D541F2E8
:100B90001803C4F202031A68AEF57E7642F0010231
:100BA0001A601A6802F001020192019A2AF0030207
:100BB00056F802B040F60002C4F20102904210D092
:100BC00040F60042C4F20102904208D041F2000215
:100BD000C4F20102009F904208BF022702E00127F1
:100BE00000E0002704F00C030F229A402BEA0202D7
:100BF00007FA03F34FEA9A051A4346F825204E6890
:100C000040F20C45F202DEF8082054BF22EA080246
:100C100042EA0802C4F20105CEF808202A68B302AD
:100C200054BF22EA080242EA08022A60B303DEF84F
:100C3000042054BF22EA080242EA0802F303CEF875
:100C40000420DEF800204FF0010354BF22EA08021E
:100C500042EA0802CEF800200E680AF1010A36FACC
:100C60000AF204F104047FF429AF02B0BDE8F08F6A
:100C7000002A08BF09040161704740F66440C2F2CF
:100C800000000068704740F2090040F66441C2F27B
:100C90000000C2F2000100780A6810440860704742
:100CA00080B542F20000C4F20200016841F0100178
:100CB0000160032000F08BF8002000F004F800F041
:100CC0002AF8002080BDB0B540F20902C2F200024D
:100CD00040F204011278C2F200014FF47A730968FD
:100CE000B3FBF2F20446B1FBF2F1084600F05AFB06
:100CF0000F2C4FF001050CD858B94FF0FF302146AA
:100D00000022002500F038F840F20C00C2F200008A
:100D100004602846B0BD82B041F21800C4F202005F
:100D20000168022241F001010160016801F0010146
:100D300001910199416841F080514160406800F0A3
:100D40008050009000980420C4F20100016862F312
:100D50001A61016002B0704700280CD400F01F0136
:100D6000012202FA01F11C2202EAD0004EF2001226
:100D7000CEF200028150704710B54EF60C5CCEF2F8
:100D8000000CDCF80030C3F3022E8EF00704042CB4
:100D900028BF0424BEF103034FF0FF3E0EFA04F413
:100DA00038BF0023A14399400EFA03F39A4311433D
:100DB00000F00F0200F160430901043A03F56443B7
:100DC0006244002848BF02F10C03197010BD4EF6B2
:100DD0000C51CEF200010A684FF6FF031A4060F38F
:100DE0000A2242F0806040F0FD7008607047704752
:100DF000002800F081802DE9F04381B042F2000824
:100E0000C4F202080446D8F800000D4600F00700BE
:100E100088420CD2D8F8000020F007002843C8F818
:100E20000000D8F8000000F00700A8426FD1206849
:100E300041F204098107C4F2020917D5410705D51B
:100E4000D9F8001041F4E061C9F80010010705D598
:100E5000D9F8001041F46051C9F80010D9F8001019
:100E6000A26821F0F0011143C9F80010C00745D174
:100E7000D8F8000000F00700A8420CD9D8F800000C
:100E800020F007002843C8F80000D8F8000000F060
:100E90000700A8423BD12068410707D5D9F80010C8
:100EA000E26821F4E0611143C9F80010000708D599
:100EB000D9F80000216920F4605040EAC100C9F867
:100EC000000000F079F8D9F8001043F20872C1F37D
:100ED0000311C0F60002515C40F2040220FA01F155
:100EE00040F20C00C2F200000068C2F20002116081
:100EF000FFF7E9FE00200BE0012070476068022840
:100F000009D0012827D159F8041C890307D40120EE
:100F100001B0BDE8F08359F8041C8901F7D5D9F870
:100F2000001021F003010843C9F80000FFF7A5FEF7
:100F3000064641F2883700BFD9F80000616800F02A
:100F40000C00B0EB810F93D0FFF797FE801BB842E7
:100F5000F2D90320DCE759F8041C8907D7D5DEE76E
:100F60004C20C4F2422001210160704740F204008D
:100F700041F20401C2F20000C4F2020100680968F3
:100F800043F21872C1F30221C0F60002515CC8405E
:100F9000704740F2040041F20401C2F20000C4F2C2
:100FA00002010068096843F21872C1F3C221C0F659
:100FB0000002515CC840704741F20401C4F20201D2
:100FC0000B6841F6003003F00C02042AC0F2B700AF
:100FD00008BF7047082A0CD1C3F3834C0CA212F847
:100FE0000C20DB030AD440F60010C0F23D00504351
:100FF000704741F20020C0F27A007047096808A3E8
:10100000C1F34041595C5043B0FBF1F0704700BF61
:1010100002030405060708090A0B0C0D0E0F101039
:101020000102000010B541F20804C4F20204206875
:10103000000658BF10BDFFF7DAFE8020A07010BD7B
:1010400058B32DE9F04182B00446007841F2000621
:10105000C007C4F2020629D0706800F00C00042812
:101060001DD0706800F00C00082802D17068C00321
:1010700015D46068002800F04181B0F5A02F00F081
:101080005581B0F5803F00F05581306820F4803004
:101090003060306820F480204FE1012070473068D4
:1010A000800303D56068002800F0AD8020788007B9
:1010B00019D5706810F00C0F07D0706800F00C00A4
:1010C000082828D17068C00325D43068800703D56C
:1010D0002069012840F097803068616920F0F800AD
:1010E00040EAC1003060207800074FD5A06940B3C6
:1010F0000020C4F242200121C0F88014FFF7BDFD9A
:10110000054600BF706A80072DD4FFF7B6FD401B6F
:101110000228F7D91FE12069002840F20000C4F23C
:10112000422000F0A28001210160FFF7A6FD0546E4
:1011300030688007D0D4FFF7A0FD401B0228F7D904
:1011400009E10020C4F242200021C0F88014FFF71A
:1011500094FD0546706A800718D5FFF78EFD401B89
:101160000228F7D9F7E040F20400C2F2000000685C
:1011700044F6D351C1F26201A0FB0101480A01907B
:1011800000BF0198411E00280191F9D12078400745
:1011900015D4E5698DB1706800F00C00082843D1C2
:1011A000012D30D07068216A00F480328A422AD141
:1011B000616A00F47010884225D10020CCE0F0690B
:1011C0005FEAC00808D4F06940F08050F061F0692F
:1011D00000F080500090009847F20007C4F200072A
:1011E0003868C00511D4386840F480703860FFF763
:1011F00044FD05463868C00507D4FFF73EFD401B97
:101200006428F7D9A7E00120A6E0E06800283DD0D7
:10121000052854D0012856D0306A20F001003062F1
:10122000306A20F0040051E00027C4F24227002079
:101230003866FFF722FD022D05460BD1306880018C
:1012400040F18D80FFF719FD401B02284FF003008D
:10125000F4D981E030688001AFD5FFF70EFD401B67
:1012600002284FF00300F5D976E000210160FFF776
:1012700004FD0546306880077FF535AFFFF7FDFCBC
:10128000401B02284FF00300F4D965E0306A20F0DB
:1012900001003062306A20F004003062FFF7EDFC9C
:1012A000054641F2883700BF306A80071DD5FFF739
:1012B000E4FC401BB8424FF00300F5D94CE0306A23
:1012C00040F004003062306A40F001003062FFF705
:1012D000D4FC054641F28837306A800705D4FFF711
:1012E000CCFC401BB842F7D935E0B8F1000F3FF510
:1012F00050AFF06920F08050F0614AE7306820F488
:1013000080303060306820F480203060FFF7B5FC1A
:10131000054600BF306880037FF5C8AEFFF7ADFC1F
:10132000401B64284FF00300F4D915E0306840F406
:1013300080203060306840F480303060FFF79DFCE2
:10134000054600BF306880033FF5B0AEFFF795FC5F
:10135000401B6428F6D9032002B0BDE8F081206A62
:10136000B0F5803F05D17168A26821F400311143C6
:1013700071607168626A21F47411114308437060EE
:1013800001203866FFF779FC044600BF3068800111
:101390003FF513AFFFF771FC001B02284FF003006D
:1013A000F4D9D9E7411E0020B0EB116F1CBF01201A
:1013B00070474EF21002CEF2000251604EF62351F9
:1013C000CEF20001F0230B7007219060116070478E
:1013D0007047000010B504460068416994F8412048
:1013E000212A1FD111F080011CD000BF206850E8D5
:1013F000050F216820F0800041E80502002AF5D1A0
:10140000A06B08B1FFF76BF9206850E8030F216863
:1014100020F0C00041E80302002AF5D1202084F822
:1014200041002068406994F84210222913D110F03D
:10143000400010D0206850E8050F216820F04000DF
:1014400041E80502002AF5D1E06B08B1FFF747F942
:10145000204601F0CFFA002010BD7047B0B582B031
:10146000044600680168C368426901F02F05202D19
:1014700003F0200506D12DB1204602B0BDE8B040F2
:1014800001F0E0BA5FEA017C1EBF02F0010E03F436
:10149000907212EB0E026CD1226BCD0641D5012A5F
:1014A0003FD113F010023CD000210191016801915D
:1014B0004168019101994069400600F1B780A08D13
:1014C000E18DE28D002A00F01381401A00F01081B6
:1014D000216851E8031F226821F4907142E8031348
:1014E000002BF5D1216851E8051F226821F0010188
:1014F00042E80513002BF5D1202184F84210002189
:10150000216300BF216851E8031F226821F0100108
:1015100042E80313002BF5D1022281B22046626318
:10152000CAE00A0640F1CD8013F0800200F0C980C5
:1015300094F84110212940F0DB80A168B1F5805F6B
:1015400003D12169002900F0DB80216A4A1C226254
:1015500009784160E18C01390A04E18440F0C880D7
:10156000C16821F08001C160C16841F04001C160E3
:10157000BEE0CA0718BF13F4807203D0626C42F059
:10158000010262644A0706D5BEF1000F03D0626C07
:1015900042F0020262648A0706D5BEF1000F03D052
:1015A000626C42F004026264BCF1000F06D55EEA90
:1015B000050203D0626C42F008026264626C002A89
:1015C00000F09680890604D51DB1204601F03AFA54
:1015D00020684069616C00F0400001F0080140188B
:1015E00000F08180204601F005FA2068406940063D
:1015F00040F18080206850E8050F216820F040000D
:1016000041E80502002AF5D1E06B002872D042F6CD
:10161000ED01C0F600014163FFF781F8002867D0B3
:10162000E06B416B02B0BDE8B0400847E06B016879
:1016300049688AB2002A5BD0A38D9A4258D2E185CC
:101640008069202831D000BF206850E8030F21684E
:1016500020F4807041E80302002AF5D1206850E8A8
:10166000050F216820F0010041E80502002AF5D1AC
:10167000206850E8050F216820F0400041E805028D
:10168000002AF5D1202084F842000020206300BF0A
:10169000206850E8030F216820F0100041E80302A1
:1016A000002AF5D1E06BFFF71AF802206063A08DE5
:1016B000E18D401A81B2204602B0BDE8B040FFF78C
:1016C00087BE490614D513F0400111D0C16821F03E
:1016D0004001C1602021204684F8411002B0BDE8DD
:1016E000B04000F07EB92046FFF7B7FE00206064EE
:1016F00002B0B0BD204602B0BDE8B040FFF7ADBEBD
:10170000216A31F8022B6FF35F224260216221E7E8
:1017100010B582B0006843F60001C4F201018842AE
:1017200001D002B010BD40F2A800C2F20000006873
:1017300040F660340168C2F2000409071CD4016855
:10174000C906EED500210191016801914068019020
:10175000019840F2A800C2F20000FFF73BFE40F201
:101760002000C2F2000000684068C0F1FF00208045
:10177000012084F8010118E0002101910268019222
:1017800042680192019A01910268019242680192B5
:10179000019A01910168019140680190019840F21D
:1017A000A800C2F20000FFF715FE40F2A800A11C3D
:1017B000C2F20000FF2202B0BDE8104000F0A8B85D
:1017C00058B310B5044690F8410028B9002084F8B9
:1017D0004000204600F023F8242084F841002068CF
:1017E000C16821F40051C160204601F08AF92068E7
:1017F000016921F490410161416921F02A014161AF
:10180000C16841F40051C16000202021606484F867
:10181000411084F84210606310BD012070472DE92B
:10182000F04385B040F600050446C4F201050068A7
:1018300005F5405100278842039766D141F2180010
:10184000C4F20200016801AE41F480410160016808
:1018500040F2440801F48041009100990168C4F20B
:10186000020841F0040101600068314600F0040004
:10187000009000984FF40070019002200290032025
:1018800004902846FFF7FCF84FF48060CDE901078B
:10189000284631460397FFF7F3F840F2200508F198
:1018A0001400C2F20005802620214FF48059C5E9BA
:1018B00000072846C5E90276C5E90477C5E9061997
:1018C000FFF738F808B1FEF705FFE5636C6240F2F8
:1018D0006405C2F2000510200021C5E900802846F9
:1018E000C5E90216C5E90411C5E90619FFF722F892
:1018F00008B1FEF7EFFE252000210022A5636C62EF
:10190000FFF73AFA2520FFF727FA05B0BDE8F08384
:1019100010B590F84230202B08D14FF0010431B1BE
:101920002AB10024046301F035F900E002242046C6
:1019300010BD7047704700002DE9F041044690F853
:10194000410020281CBF0220BDE8F0810D4600297F
:101950004FF001003DD01746DAB30020606421202B
:10196000984684F84100FFF788F9A784E784A168C6
:101970000746B1F5805F01D1206910B12E460025E0
:1019800000E00026E08CC0B1204680213A46434664
:1019900001F04CF9F8B92EB116F8010B2168486036
:1019A00007E000BF35F8020B21686FF35F20486045
:1019B0000026E08C0138E084E4E7204640213A46E6
:1019C000434601F033F9202184F84110002818BF64
:1019D0000320BDE8F081202084F841000320BDE809
:1019E000F0817047FEE700002DE9F04381B040F23E
:1019F0003813C2F200031860086840F22C13C2F2D8
:101A000000031860486840F23011C2F2000108601B
:101A1000D079117A40F2201740F22416C2F2000762
:101A2000C2F2000638703170106840F21811C2F22C
:101A300000019479537A40F21E1540F2281908608B
:101A4000918840F21C12C2F20005C2F20009C2F2F3
:101A500000022C7089F80030118040B104290ED8A2
:101A600043F2F070C0F6000001F03CFEFEE743F6E2
:101A70005500C0F6000001F035FE00BFFEE7FEF79E
:101A80009BFBA8204443204600F068FD40F21C0860
:101A9000C2F20008C8F8000048B32146FEF78CFBEC
:101AA00028788400204600F059FD40F23C11C2F233
:101AB0000001086018B32146FEF77EFB387800EB82
:101AC0004000C400204600F049FDD8F8001040F660
:101AD0005C32C2F200021060C9B93978B9B143F67C
:101AE0008100C0F6000001F0FDFD00BFFEE743F6F7
:101AF000B300C0F6000001F0F5FD00BFFEE743F6BD
:101B00001910C0F6000001F0EDFD00BFFEE7214610
:101B1000FEF752FB3078C400204600F01FFDD8F8D5
:101B2000001040F21402C2F20002106049B931788C
:101B300039B143F64710C0F6000001F0D3FD00BFF5
:101B4000FEE72146FEF738FB99F80000342100FB40
:101B500001F4204600F002FD40F21801C2F200013B
:101B6000086050B999F8001039B143F6E500C0F6A5
:101B7000000001F0B7FD00BFFEE72146FEF71CFBA9
:101B800043F28870C0F6000001F0ACFD43F2207013
:101B9000C0F6000001F0A6FD43F25470C0F600004C
:101BA00001F0A0FD43F2BC70C0F6000001F09AFD08
:101BB00006A001F097FD43F6771111A0C0F60001D1
:101BC00001B0BDE8F04301F013B900BF5B4C4C4FCE
:101BD000532044454255475D204C4C4F535F496E5E
:101BE000697420202D2D2D2D2020202D2D2D2D20F0
:101BF0002020202D2D202020202D2D2020200D00E4
:101C00005B4C4C4F532044454255475D204C4C4F54
:101C1000535F496E6974204C4C4F53207665727344
:101C2000696F6E3A2025730D0A0000002DE9F0411E
:101C300084B040F2F807C2F2000788460A9938805B
:101C400040F2F400C2F20000002B016051D0002AE3
:101C50004FD00B9800284CD00C99002949D01D4634
:101C600040F23413C2F20003188040F2161040F222
:101C70000C14C2F20000C2F200040180D0002270F5
:101C800000F06CFC40F21011C2F200010860C0B319
:101C90002078C600304600F061FC40F20811C2F224
:101CA00000010860A8B329463246FEF76CFA207896
:101CB00000EB40008500284600F050FC40F2100187
:101CC000C2F20001086040B32946FEF775FA388871
:101CD00000F060FB41F68D53C0F60003CDE9000132
:101CE000404601210122029300F0F4FB04B0BDE85C
:101CF000F08143F6B010C0F6000001F0F3FC00BF25
:101D0000FEE743F67E10C0F6000001F0EBFC00BFDA
:101D1000FEE711A001F0E6FCFEE702A001F0E2FC04
:101D2000FEE700BF5B4C4C4F53204552524F525D73
:101D3000204C4C4F535F4C45445F496E69742046BC
:101D4000534D5F76616C7565206D616C6C6F6320BF
:101D50006E756C6C210D00005B4C4C4F532045524E
:101D6000524F525D204C4C4F535F4C45445F496E7F
:101D70006974206B6579436F6E666967206D616C6D
:101D80006C6F63206E756C6C210D00002DE9F04FB7
:101D900081B040F20C19C2F2000999F8000040F23B
:101DA000F00AC2F2000A4FF0000B00288AF800B0D7
:101DB00000F0C78040F20810C2F20000016840F253
:101DC0001008C2F200080022D0B251F83030002BC7
:101DD00000F0AE8001EBC0035E68002E00F0A8802A
:101DE000D8F8003000EB400713F8275003EB8707C3
:101DF000012D13D0002D5ED13B4603F801BF83F8BF
:101E000009B051F8300000683040B042C3F8030018
:101E100000F08E8001203870187089E040F2F805DB
:101E2000C2F200052D883C8925443D8151F830409F
:101E300024683440B44241D140F21016C2F2000688
:101E40003468ADB204EBC00C40F23414C2F20004AA
:101E5000BCF806E024883E467444AC424FF00104CE
:101E600006F80A4F4BD840F21614C2F20004248838
:101E700087F800B07D7840F2F40786F800B0A645F8
:101E800088BF04258CF80450C2F200073F685FB198
:101E90000121B84740F20810C2F2000001689AF828
:101EA0000000D8F80030024600EB400003EB800051
:101EB000A0F808B03CE087F800B039E051F8307085
:101EC00040F210143F68C2F20004246826EA0707B3
:101ED00044F8307040F2F407C2F200073F6804EBA8
:101EE000C006F5805FB10021B84740F20810C2F289
:101EF000000001689AF80000D8F80030024651F856
:101F0000307001EBC00600EB40003F68766803EBE1
:101F10008000436837409F420AD1034613F80A7F86
:101F2000012F05D1477883F800B00137477000BF13
:101F3000013299F80000D3B283428AF80020FFF4FE
:101F400043AF01B0BDE8F08F2DE9F04181B0DDF87D
:101F50001CC0009040F21410C2F20000007840F261
:101F6000FC0EC2F2000E80B1DEF8004005460834D7
:101F700054F8086C009FBE4203D154F8046C8E42A2
:101F800023D0013D04F11004F2D140F2FA08C2F26C
:101F9000000898F80050854211D20098DEF80070D1
:101FA0002C0107EB051638510020C6E90110681C0A
:101FB000B273F373A6F80CC088F800000FE009A014
:101FC00001B0BDE8F04101F08DBB009844F8080C69
:101FD0000020A271E371A4F804C044E9011001B02B
:101FE000BDE8F0815B4C4C4F53204552524F525D3F
:101FF000204C4C4F535F4C45445F426C696E6B3ACA
:10200000203E204C4C5F4C45445F4E554D210D0009
:10201000F0B583B040F20016C2F2000640F2141789
:1020200015013080C2F2000728460C463A7000F0D5
:1020300095FA40F2FC01C2F20001086028B9397833
:1020400019B10CA001F04EFBFEE72946FEF7B4F8EB
:10205000308800F09FF942F22513C0F60003CDE965
:102060000001204601210122029300F033FA03B05F
:10207000F0BD00BF5B4C4C4F53204552524F525D58
:10208000204C4C4F535F4C45445F496E6974206C43
:1020900065644C697374206D616C6C6F63206E7540
:1020A0006C6C210D00000000B0B581B0009000986C
:1020B000B0B340F21410C2F20000DDF800C00378A3
:1020C000DBB140F2FC00C2F2000000684FF0000EED
:1020D0000E3000BF50F80E4C009DAC4209D150F8B4
:1020E0000A4C8C4202BF40F80EEC40F80AEC80F833
:1020F00000E0013B00F11000ECD1022A07D0012AD8
:1021000009D0DCF80000002A40EA010006E0DCF813
:102110000000484002E0DCF800008843CCF80000F2
:1021200001B0B0BD40F21410C2F2000000780028E7
:1021300044D02DE9F04340F2FC01C2F200010A68EC
:1021400040F20011C2F20001B1F8008008324FF0F5
:10215000640E4FF0000C00BF52F8083C43B352F835
:10216000044C2CB392F80690B9F1000F20D052F82D
:10217000085C1668D379771C968807FB08F101FB89
:102180000EF1734317609942296834BF21EA0404B1
:102190000C432C60116801FB08F1B14208D3B9F17E
:1021A000FF0FC2F800C01CBFA9F10101917100BF6F
:1021B000013802F11002CFD1BDE8F04370470000B2
:1021C00040F65830C2F200000078002800F0B380DA
:1021D0002DE9F04F81B040F21C0EC2F2000EDEF885
:1021E00000C04FF00008A8274FF0000A002100BFF0
:1021F00048B200FB07F94FF0780B0026009100BFB2
:102200000AFB07C40CEB0903224632F8A20F9D1902
:1022100032F8027C95F89F10384322F8020C39B14D
:10222000012185F88F10A2F8008085F89F8006E0D4
:1022300095F88F10A2F8008085F89F8069B140F66C
:102240005031C2F2000106C903EB0B0753F80B3003
:102250007F68C91A72EB070102D2A82754E000BFB9
:10226000D4F8A420A827002A4ED040F20411C2F2CC
:1022700000010B6806F10F01012505FA01F87BB199
:10228000009C00EA080081B2E0B20022754698473F
:1022900028680AFB0700D0F8A420B0F8A00001E0ED
:1022A000009C754600EA0800E4B281B220469047DF
:1022B000D5F800C040F204130AFB07C1C2F20003C4
:1022C000B1F8A0201B685040AE46A1F8A0006BB149
:1022D00000EA080081B22046012274469847D4F8EB
:1022E00000C0A6460AFB07C0B0F8A00000EA08003C
:1022F000000402D04FF0000806E00CEB0900304467
:102300004FF0000880F88F80ABF1080B1BF108003C
:10231000A6F101067FF474AF009940F65830C2F27E
:102320000000013100784FFA81FA8245FFF660AF74
:1023300001B0BDE8F04F704740F21810C2F2000043
:10234000D0F800C040F21C10C2F200000288002049
:10235000B0EB920F614618D080B522F0030040F236
:10236000AC0E0CEB0002CCF6005E61460B68184622
:102370006FF31720704506D1C3F30F2001EB8000E7
:10238000011D9142F2D3BDE88040A1EB0C00C0F3E7
:102390008F00704740F20801C2F200010978B0FBDB
:1023A000F1F00021704740F23810C2F200000068DE
:1023B00000B1004743F62E00C0F6000001F092B9CC
:1023C0002DE9F04F81B040F20801C2F2000140F661
:1023D000503A0870C2F2000ADAE9000240F64035CD
:1023E000013042F10002CAE90002C2F20005DAE956
:1023F0000003D5E900270978801A4FF47A72B2FBFE
:10240000F1F263EB07010023FDF78CFE52EA0300B3
:1024100024D1A86840F224140130A860C2F200045C
:102420002078D8B140F21406C2F2000631684FF0AD
:1024300000080027AA6851F837309A420BD301EB05
:10244000C70252683AB1F8B290473168207801EB80
:10245000C702C2F8048001378742EBD340F2201B49
:10246000C2F2000B9BF8000088B340F65C39C2F260
:102470000009D9F800800027002600BF08EB0705F7
:10248000287C68B1DAE9000158F80720EB68801A67
:10249000D5E90142A141FDF745FE52EA030007D00C
:1024A0009BF800000136864207F11807E6D30EE0DC
:1024B00069690029F4D0F0B28847D9F8008008EBA8
:1024C0000700417C0029EBD100210174E8E701B04D
:1024D000BDE8F08FF0B581B040F22013C2F20003E6
:1024E0001B7883421CD940F6503440F65C36C2F269
:1024F0000004C2F20006089B30CC3668DDE906EC29
:1025000000EB400706EBC70046F837400174427401
:10251000C0E9015EC0F80CC003B14361002003E0D4
:1025200002A001F0DFF8FF2001B0F0BD5B4C4C4F82
:1025300053204552524F525D204C4C4F535F5469CB
:102540006D65725F5365743A203E204C4C5F544970
:102550004D45525F4E554D210D00000040F21C11BB
:10256000C2F200010B88411E89B2994224BF0020AB
:102570007047B0B5810884074FF0010218BF02EB25
:102580009001B1EB930F36D240F21810C2F2000066
:10259000026823F0030040F2FF0EAC2302EB000CB4
:1025A000CFF6007ECCF60053106800EA0E049C4281
:1025B0000CD1C0F30F2002EB8000041D04EB81025C
:1025C00000206245224628BFB0BDEDE769B1141D69
:1025D000002000BF256805EA0E059D42EED00130BF
:1025E00085B28D4204F10404F4D343EA012042F899
:1025F000040B1046B0BD0020B0BD80B582B041F2E2
:102600001400C4F202000168002241F001010160DF
:102610000068002100F00100019001980E20FEF7F3
:10262000ABFB0E20FEF798FB0F2000210022FEF7E7
:10263000A3FB0F2002B0BDE88040FEF78DBB2DE963
:10264000F04186B0002641F218000596C4F202005F
:10265000016840F6004441F0200101600168C4F2C5
:10266000010401F02001019101990168012241F06A
:102670000401016001684FF4707801F004010191D8
:1026800001990168012741F00801016000684FF4D9
:10269000707100F00800019001982046FEF7E8FAFA
:1026A000802002A902ADC1C1A4F580602946FEF7D1
:1026B000E7F920462946CDE902760497FEF7E0F9CE
:1026C0000220059020462946CDE902870496FEF7B0
:1026D000D7F906B0BDE8F08180B540F2A80043F616
:1026E0000001C2F20000C4F2010100234FF00C0C03
:1026F0004FF4E13280E80E00C0E90333C0E905C3BE
:10270000C361FFF75DF818B1BDE88040FDF7E2BF97
:1027100080BD0000FEE70000FEF784FCFEE7704786
:10272000704780B50120FFF74BFEBDE88040FEF703
:10273000AABA0000B0B590B000240120CDE90B4446
:10274000CDE9094406900A904FF480104FF480318F
:1027500002250F9006A8CDE90714CDE90D51FEF72B
:102760006FFC20B1EFF3108072B600BFFEE70F20C0
:10277000CDE901054FF48060CDE9040401A80221F0
:102780000394FEF735FB20B1EFF3108072B600BF63
:10279000FEE7FEF7E5FB10B0B0BD704770B58CB03A
:1027A00040F2A800C2F20000016840F66034CA6836
:1027B000C2F2000442F01002CA60A11CFF22FFF71F
:1027C000A7F8002084F801010B90CDE9090040F63C
:1027D0005920C0F600000A9040F60320ADF824000E
:1027E00040F24010C2F20000079040F60020C0F214
:1027F0000A50089042F6C540C0F600000AA907AA90
:10280000FFF7F2F80A2000210322FFF701FC40F64F
:102810000C44C4F201044FF4FA7C204640210A2201
:102820000A23CDF800C0FFF78FFB642520468021E6
:10283000FF220F2300958026FFF786FB20464FF4EA
:102840008071FF225A230095FFF77EFB20464FF44C
:10285000007101220124FFF727FC40F60800C4F2B2
:102860000100039000F5806042F60951049605903E
:102870009620C0F600014FF44876CDE9001003AB76
:102880000A200121022206940296FFF7CFF9FFF7F2
:1028900053FD014602A000F0ABFA0CB070BD00BFC2
:1028A00055736564206D656D6F727920706F6F6C04
:1028B0002073697A653A2025640D0A0080B5FFF718
:1028C0007FFC40F66032C2F2000292F8010140B192
:1028D0000023911C03A082F80131BDE8804000F084
:1028E00087BA80BD25730D0A00000000406A0021F0
:1028F000C185C184FEF7B1BD10B5446A2068416945
:1029000094F84120212A13D111F0800110D0002029
:10291000E08400BF206850E8030F216820F0C00069
:1029200041E80302002AF5D1202084F84100206804
:10293000406994F84210222907D110F0400004D0D9
:102940000020E085204600F055F8606C40F0100152
:1029500020466164BDE81040FEF77FBD0168406A13
:102960000968890630D40021C18500BF016851E89B
:10297000031F026821F4807142E80313002BF5D194
:10298000016851E8051F026821F0010142E80513C2
:10299000002BF5D1016851E8051F026821F04001C4
:1029A00042E80513002BF5D1202180F84210016B7D
:1029B000012909D1016851E8031F026821F01001C3
:1029C00042E80313002BF5D100214163016B01297B
:1029D00018BFFEF7AEBF818DFEF7FABC406A012139
:1029E0004163016B012918BFFEF7A4BF818D49081F
:1029F000FEF7EEBC016851E8031F026821F49071F4
:102A000042E80313002BF5D1016851E8051F026865
:102A100021F0010142E80513002BF5D1016B0129DA
:102A20000AD100BF016851E8031F026821F01001BC
:102A300042E80313002BF5D1202180F84210002139
:102A40000163704790F84210222918BF70478368CD
:102A50000246B3F5805F0CD152F8281F52F8183C9B
:102A60008BB9026852686FF35F2221F8022B8162F2
:102A70000FE052F8281F0BB9036923B103685B68A4
:102A800003F07F0301E003685B680B70116801319C
:102A90001160C18D01390A04C18500D070470168F9
:102AA000CA6822F02002CA60CA6822F48072CA6032
:102AB0004A6922F001024A61202180F84210002177
:102AC0004163026B012A18BFFEF733BF81B0016377
:102AD000016851E8031F026821F0100142E8031366
:102AE000002BF5D101680A68D20606D500220092B3
:102AF0000A680092496800910099818D01B0FEF743
:102B000067BC10B504460068D4E902C223690169B4
:102B100021F4405111430161616943EA0C02114300
:102B2000C26841F20C639A431143C1604169A269D2
:102B300021F44071114343F60002C4F201029042B5
:102B4000416102D0FEF712FA01E0FEF722FAD4E961
:102B50000023192148439900B0FBF1F048F21F51BE
:102B6000C5F2EB11A0FB013463094FF69C74C0F66B
:102B7000FF7403FB0400322404EB0010A0FB0101EE
:102B8000F02000EA511000EB0310C1F34311084498
:102B9000906010BD70B582B0134600250446816276
:102BA00083854564222084F842000A462168E06B50
:102BB00042F65D1C42F6DD1E42F6F906C0F6000C38
:102BC000C0F6000EC0F600060431C0E90ACEC0E926
:102BD0000C65FDF7F2FE01952068016801914068DF
:102BE00001900198206948B1206850E8030F2168DE
:102BF00040F4807041E80302002AF5D1206850E8D3
:102C0000050F216840F0010041E80502002AF5D1D6
:102C1000206850E8050F216840F0400041E80502B7
:102C2000002AF5D1002002B070BD00002DE9F0416E
:102C300082B0804600681D4603680E461940B142C6
:102C40001CD017466C1C00BFA4B1FEF716F8014655
:102C50004FF003009DB1C91BA94210D8D8F800005D
:102C6000C168490706D5402E04D0802E02D00168E5
:102C7000090707D401683140B142E5D1002002B014
:102C8000BDE8F08100240194016801914068019041
:102C900001984046FFF7AEFE0820C8F8440088F8C7
:102CA00040400120EBE710B540F2A804C2F2000456
:102CB0002046FEF72DFD2046BDE81040FEF7CEBBB6
:102CC000FEE700004EF60C50BFF34F8FCEF200002F
:102CD0000168042201F4E061C0F2FA52114301607C
:102CE000BFF34F8F00BFFDE780B582B0019040F287
:102CF000A800C2F2000001A901224FF6FF73FEF7FF
:102D00001BFE019802B080BD2DE9F04182B040F277
:102D10001018C2F20008D8F80020044602EBC000E8
:102D200052F834200679C7880D461AA021462B4652
:102D3000CDE9006700F05CF8F5B1D8F8000000EBD1
:102D4000C4010979012913D1B4B950F8340010F045
:102D5000800011D040F60C40C4F201004FF4007125
:102D60000222FFF7A1F9D8F8000000EBC4010979AD
:102D7000042908BF002C02D002B0BDE8F08150F851
:102D8000340010F08000F7D002B0BDE8F041FFF74A
:102D90000ABB00BF506F72743A2025642C20506922
:102DA0006E3A20253038582C20697355703A20250A
:102DB000642C204576656E743A2025642C20507270
:102DC0006573732074696D653A2025640D0A0000EF
:102DD000FDF766FFFFF7AEFCFFF731FCFFF70DFCD8
:102DE000FFF77AFCFFF7DAFCFFF768FDFCE700006D
:102DF0000FB4054B10B503A9044A029800F0DAF8A5
:102E000010BC5DF814FB0000E92C00080000002055
:102E100002E008C8121F08C1002AFAD170477047A3
:102E2000002001E001C1121F002AFBD17047000001
:102E30002DE9FF5F82B00021DDE90430020DDDF8ED
:102E400040B0034318D044F61050A2F2FF32424380
:102E50001514119801281FD0A5EB0B00401C5FEA48
:102E6000000A4FF000064E4FDFF83891B04650464A
:102E700015D5CAF1000413E0119801244AA30128D2
:102E800001D16FEA0B010298119AC0E90031C0E943
:102E9000024206B0BDE8F09FCBF10000DFE7044638
:102EA0000021404A491842EB0450CDE9001012E0DD
:102EB000E00707D032463B4640464946FDF787F9D2
:102EC0008046894632463B4610461946FDF77FF953
:102ED00006460F466410002CEAD1DDE90401DDE965
:102EE0000023BAF1000F06DAFDF771F942464B46AE
:102EF000FDF76DF905E0FDF7DCF942464B46FDF7BD
:102F0000D8F904460E460022284BFDF793FB03D860
:102F10004FF0FF30014607E00022254B20463146A6
:102F2000FDF7C8FAFDF76DFB102409E0002C0ADB61
:102F30000A220023FDF7F6F8039B30321A55641E6F
:102F400050EA0102F2D1641C039AC4F11103144443
:102F5000119A012A03D0012208430DD10AE0084347
:102F600004D000204FF0110B119072E7A3EB0B057A
:102F70006D1E0DE05B4504DD4FF0000205F101051B
:102F800004E003DA4FF00002A5F10105002AECD0BD
:102F900002981199C0E90231C0E9004579E70000C3
:102FA000000014400000F03F300000000000F0433B
:102FB0000000E03F2DE9FF4F95B09B46894606464D
:102FC00000250FE2252877D100242746F84A012161
:102FD000059400E0044316F8013F203B01FA03F09A
:102FE0001042F7D130782A2811D06FF02F033078B3
:102FF000A0F13002092A16D8059A44F0020402EB27
:10300000820203EB42021044761C0590EFE759F868
:10301000042B0592002A03DA504244F40054059030
:1030200044F00204761C30782E2816D116F8010FD1
:1030300044F004042A280DD06FF02F023078A0F15C
:103040003003092B09D807EB870302EB4303C718AA
:10305000761CF3E759F8047B761C30786C280FD087
:1030600006DC4C2817D068280DD06A2814D104E05B
:10307000742810D07A280FD10DE044F400140AE02F
:1030800044F4801401E044F440147278824202D186
:1030900004F58014761C761C307866280BD013DC7F
:1030A000582877D009DC002875D04528F6D0462866
:1030B000F4D047281AD19DE118E0632835D0642860
:1030C00079D0652812D195E1702873D008DC672883
:1030D000F1D069286FD06E280DD06F2806D1B5E0E9
:1030E00073282CD0752875D0782874D05A46179933
:1030F00090476D1C75E1C4F30250022809D00328E3
:103100000DD0D9F8001004280DD00D6009F1040984
:1031100067E1D9F80010EA17C1E90052F6E7D9F8DB
:1031200000100D80F2E70D70F0E719F8041B8DF820
:10313000001000208DF80100EA46012003E059F854
:1031400004AB4FF0FF3061074FF0000102D40DE0F7
:1031500008F101018846B9420FDA8045F8DB1AF818
:1031600008100029F4D108E008F1010188468142E5
:10317000FADB1AF808100029F6D105985B46A0EB97
:10318000080721463846179A00F094FA284400EBC5
:10319000080507E04DE029E10DE01AF8010B5A4659
:1031A00017999047B8F10108F7D25B462146384697
:1031B000179A13E142E00A220092C4F302524FF040
:1031C000000A022A08D059F804CB032A4FEAEC710E
:1031D0000AD00DE029E02AE009F1070121F00702F9
:1031E000F2E802C1914609E00FFA8CFC4FEAEC715B
:1031F000042A03D14FFA8CFC4FEAEC71002907DA5C
:103200000A460021DCF1000C61EB02012D2202E0F4
:10321000220504D52B228DF80420012203E0E207C9
:1032200001D02022F7E7904659E00A2102E010225F
:103230000DE010214FF0000A00910BE010224FF03A
:10324000000A44F004040827009203E008224FF02B
:10325000000A0092C4F30252022A05D059F804CBA6
:103260000021032A08D009E009F1070121F0070233
:10327000F2E802C1914605E01FFA8CFC042A01D154
:103280000CF0FF0C4FF00008220728D5702806D05C
:10329000009B83F0100353EA0A0305D00EE040229E
:1032A0008DF80420012208E05CEA010206D03022F9
:1032B0008DF804208DF8050002229046009B83F0D3
:1032C000080353EA0A030AD15CEA010201D162074A
:1032D00005D530228DF804204FF001087F1E5828B4
:1032E00004D034A003900EA802900DE036A0F9E7B8
:1032F00053466046009AFCF715FF84460398825CAB
:103300000298401E029002705CEA0100F0D102981F
:1033100006A9081A00F1200A600702D524F48034B7
:1033200000E00127574502DDA7EB0A0000E000207E
:1033300000EB0A01009005984144401A0590E00313
:1033400006D45B462146179A059800F0B3F9054468
:10335000002706E001A85A46C05D179990476D1CEA
:103360007F1C4745F6DBE0030CD55B462146179AE8
:10337000059800F09FF9054404E030205A4617995B
:1033800090476D1C0099481E00900029F5DC08E06C
:10339000029802995A460078491C02911799904761
:1033A0006D1CBAF10001AAF1010AF1DC65E100002F
:1033B000092801003031323334353637383961620B
:1033C00063646566000000003031323334353637CF
:1033D00038394142434445460000000000F058F9A6
:1033E0000544761C307800287FF4ECAD19B02846EF
:1033F000BDE8F08F620700D4062709F1070222F02A
:10340000070CFCE80223E14603F000485FEA080CE1
:1034100002D00FF2702C0DE05FEA045C02D50FF2CF
:10342000682C07E05FEAC47C02D00FF2602C01E058
:10343000AFF2700C4FF0FF3823F00043CDF850C0CE
:1034400065280CD006DC452809D046281DD0472821
:103450003DD13DE0662818D067287ED138E00021B4
:10346000112F01DB112000E0781CCDE9000106A935
:103470000EA8FFF7DDFCDDE90F010E9A0391002194
:10348000009207F1010A04914DE04FF000400097CF
:10349000CDE9011006A90EA8FFF7CAFCDDE90F026D
:1034A00003920E9B11990022DDF80CA00093049268
:1034B00011B9791C00EB010AB7EB0A0004D4C0F182
:1034C000FF3007F1010A0490AAEB0700019044E0E5
:1034D000012F00DA01270021112F01DD112000E06A
:1034E0003846CDE9000106A90EA8FFF7A1FCDDE9E9
:1034F0000F010E9A0391002104910092BA46210710
:103500000CD40399514500DA8A46BAF1010F05DD62
:10351000009AAAF10101515C302908D0B84202DAC0
:1035200010F1040F06DA0121CDE9011015E0AAF12E
:103530000101E9E7002805DC049901440491AAEBA4
:10354000000102E0411C514500DD8A460499401A01
:10355000401C01904FF000400290200704D40198D5
:10356000504501DBCDF8048000208DF84F00029813
:103570000DF14F07B0F1004F25D02B200E9002988F
:103580004FF0020800280CDA404202902D200E90E5
:1035900007E00A210298FCF7FBFE3031029007F8A1
:1035A000011DB8F10001A8F10108F2DC0298002821
:1035B000EFD1791E0E980870307800F0200040F0AE
:1035C000450007F8020D12A8C01B00F10708149867
:1035D000007800B1012000EB0A01019801EBE071D5
:1035E00005984144401A401E0590E00306D45B460E
:1035F0002146179A059800F05DF805441498007864
:1036000018B15A46179990476D1CE00324D55B46C4
:103610002146179A059800F04DF805441CE00498DF
:10362000002807DBDDE90301884203DD0098405CE8
:10363000179901E0179930205A469047049805F1F0
:103640000105401C04900198401E019004D12E20D9
:103650005A46179990476D1CBAF10001AAF1010A68
:10366000DDDC05E017F8010B5A46179990476D1CF1
:10367000B8F10001A8F10108F4DC5B462146179A75
:103680000598ABE62D0000002B0000002000000094
:103690002DE9F041044600251E461746880404D44F
:1036A00005E039462020B0476D1C641EF9D5284638
:1036B000BDE8F0812DE9F041044600251E46904604
:1036C000C80301D5302700E02027880404D505E091
:1036D00041463846B0476D1C641EF9D52846BDE802
:1036E000F081000010B5044601E0FFF7FDFA14F880
:1036F000010B04490028F8D1BDE810400A20FFF76B
:10370000F3BA0000000000200000000000000000EC
:103710000102030406070809000000000102030477
:103720005B4C4C4F532044454255475D204C4C4F19
:10373000535F496E6974207C2020202020207C204B
:1037400020202020207C202020207C207C20202065
:1037500020200D005B4C4C4F532044454255475DA3
:10376000204C4C4F535F496E6974207C20202020F0
:1037700020207C2020202020207C202020207C2035
:10378000202D2D2020200D005B4C4C4F5320444514
:103790004255475D204C4C4F535F496E6974204839
:1037A00020206520206C20206C20206F2020202DE0
:1037B0002D20202020202D2D20200D005B4C4C4F53
:1037C000532044454255475D204C4C4F535F496E52
:1037D0006974207C2020202020207C202020202094
:1037E000207C202020207C20202020207C200D00F8
:1037F0005B4C4C4F53204552524F525D204C4C4F26
:10380000535F496E6974206D656D4366672D3E7028
:103810006F6F6C53697A65203C3D2073697A656FE0
:10382000662875696E7433325F7429210D005B4C14
:103830004C4F53204552524F525D204C4C4F535FDA
:1038400053797374656D5F52657365743A204E5594
:103850004C4C210D005B4C4C4F53204552524F5263
:103860005D204C4C4F535F496E6974206D656D430C
:1038700066672D3E70506F6F6C204E554C4C210D7D
:10388000005B4C4C4F53204552524F525D204C4CE4
:103890004F535F496E69742074696D657243425F6E
:1038A0006C697374206D616C6C6F63206E756C6CE9
:1038B000210D005B4C4C4F53204552524F525D201E
:1038C0004C4C4F535F496E6974206576656E744346
:1038D000425F6C697374206D616C6C6F63206E75F0
:1038E0006C6C210D005B4C4C4F53204552524F5293
:1038F0005D204C4C4F535F496E6974206C6C5F6463
:1039000065766963655F6C697374206D616C6C6F5B
:1039100063206E756C6C210D005B4C4C4F53204541
:1039200052524F525D204C4C4F535F496E69742088
:103930006D73675F6C697374206D616C6C6F63206D
:103940006E756C6C210D005B4C4C4F5320455252F0
:103950004F525D204C4C4F535F496E697420616C2F
:1039600061726D5F6C697374206D616C6C6F632044
:103970006E756C6C210D0056322E302E30005B4C73
:103980004C4F53204552524F525D204C4C4F535F89
:103990004C45445F496E6974206B6579576869636B
:1039A00068206D616C6C6F63206E756C6C210D000E
:1039B0005B4C4C4F53204552524F525D204C4C4F64
:1039C000535F4C45445F496E697420706172612099
:1039D0006572726F72210D00F83900080000002036
:1039E00010000000102E0008083A00081000002007
:1039F00058100000202E00080000000000127A007D
:083A00000101000010000000AC
:04000005080000ED02
:00000001FF
