:020000040800F2
:100000009816002001010008DD3700089922000839
:10001000D93700086D0F0008854000080000000077
:10002000000000000000000000000000E5370008AC
:10003000870F000800000000E3370008E7370008DA
:100040001B0100081B0100081B0100081B01000820
:100050001B0100081B0100081B0100081B01000810
:100060001B0100081B0100081B0100081B01000800
:100070001B0100081B0100086F0F00087B0F000820
:100080001B0100081B0100081B0100081B010008E0
:100090001B0100081B0100081B0100081B010008D0
:1000A0001B0100081B0100081B0100081B010008C0
:1000B0001B0100081B0100081B0100081B010008B0
:1000C0001B0100081B0100081B0100081B010008A0
:1000D0001B0100086B4000081B0100081B01000801
:1000E0001B0100081B0100081B010008DFF80CD0F1
:1000F00000F0B8FC00480047F540000898160020C2
:100100000648804706480047FEE7FEE7FEE7FEE7B1
:10011000FEE7FEE7FEE7FEE7FEE7FEE75F380008E2
:10012000ED0000082DE9F05F0546002092469B4651
:1001300088460646814640241BE0284641464746FD
:10014000224600F0ADFA53465A46C01A914110D3E8
:1001500011461846224600F094FA2D1A67EB010862
:100160004F4622460120002100F08BFA17EB0009D0
:100170004E41201EA4F10104DFDC484631462A46E8
:100180004346BDE8F09F2DE9FE4399461546884653
:10019000074601AC022942D3002D40D00020029036
:1001A000A8F101004FF0FF36009022E000FB05723D
:1001B00001FB057011464A469047002805DC54F8BB
:1001C0002600304444F8260013E060682A4600FB0D
:1001D000057154F8040C00FB057007E00B7890F8EB
:1001E00000C001F801CB00F8013B521E002AF5D1F6
:1001F000764254F8040C61688842D7DC4B462A46A4
:100200003846FFF7C0FF54F8040C4B46A8EB00013A
:10021000401C00FB05702A46491EFFF7B4FFBDE8ED
:10022000FE8310B5044604E00B7800F8013B03B1EF
:10023000491C521EF8D2204610BDCAB2401E10F80A
:10024000011F8A4202D00029F9D100207047421CC8
:1002500010F8011B0029FBD1801A7047034611F8E2
:10026000012B00F8012B002AF9D11846704730B550
:1002700005460020034600E05B1C934205D2EC5C7F
:10028000C85C201A01D1002CF6D130BD2DE9F04117
:100290000546002090460E46044600E0641C444596
:1002A0000BD2285D00F019FA0746305D00F015FA10
:1002B000381A02D1295D0029F0D1BDE8F0812DE97D
:1002C000F04791460F4680460446002614F8015B2D
:1002D0002DB100F0F5F90068405DC007F6D12B2D77
:1002E00002D02D2D18D0641E4A463946204600F013
:1002F000FAF927B13968A14201D1C7F80080710528
:100300004FF002040BD54042002803DD03F012FF3A
:100310000460A007BDE8F08746F48066E4E70028A3
:10032000F8DA03F007FF04606FF00040F2E780EABC
:10033000010210B502F00043400022D04A001FD055
:10034000010E01EB1261C0F35600C2F3560240F4F5
:10035000000042F40002A0FB022000047F391404D4
:1003600000D0401C50EA124001D44000491EC2B2E5
:100370000C0604EBD010401C4008802A02D003E099
:10038000002010BD20F00100002900DA00201843F1
:1003900010BD30B480EA010202F0004530F00042A6
:1003A00021F0004013D090B1C30DD40DC2F316015B
:1003B000C0F31600E41A41F4000140F400027D3459
:1003C000914201D3641C00E04900002C02DA30BCE9
:1003D000002070474FF400000023914201D3891A96
:1003E000034340084FEA4101F7D151B1914202D194
:1003F0004FF0004105E002D24FF0010101E06FF043
:10040000010103EBC450284430BC00F0BFB92DE912
:10041000FE4F81EA030404F0004421F000410094FF
:100420004FF0000B23F0004350EA01045ED052EA83
:1004300003045BD0C3F30A54C1F30A552C44A4F25D
:10044000F3340194A0FB0254C1F3130141F4801171
:10045000C3F3130343F4801301FB024400FB034E78
:10046000840A970A44EA815447EA8357A4FB076841
:1004700002958D0A05FB07854FEA932C04FB0C546B
:100480002705029D4FEA065847EA1637B5EB0805DF
:100490006EEB070C870E920E47EA811742EA831231
:1004A000A7FB0201B6EB0B0164EB00042B0D43EA42
:1004B0000C335E1844EB1C50DA465146E7FB020150
:1004C000C5F313044FEA0B3343EA14534FEA0432E3
:1004D000019C43EA0603A4F10C040294009CCDE9BC
:1004E00000B400F099F903B0BDE8F08F0020014698
:1004F000F9E72DE9F04D81EA030404F0004B21F007
:10050000004514464FF0000A23F0004150EA05026E
:1005100020D054EA01021DD0C5F30A570246C5F3A4
:100520001303C1F31300C1F30A5640F4801543F4DA
:100530008013A7EB0608101BD64608F2FD3873EBB4
:10054000050002D308F1010801E092185B41B8F1FF
:10055000000F03DA00200146BDE8F08D00204FF4C3
:100560008011064684460EE0171B73EB050705D382
:10057000121B63EB050306434CEA010C49084FEAE2
:10058000300092185B4150EA0107EDD152EA0300B6
:1005900012D082EA040083EA0501084305D0101B4B
:1005A000AB4106D20122002306E000224FF00043B7
:1005B00002E06FF0010253101AEB06004CEB0851F9
:1005C00010EB0A0041EB0B01BDE8F04D00F015B94E
:1005D0000EB5C10F80EAE0700844CA07002140F25E
:1005E00033438DE80E000A460B4600F015F903B0C0
:1005F00000BD70B5C1F30A5201F000450024C1F3FB
:10060000130140F2FF3341F480119A4201DA0020D5
:1006100070BD40F233439A42A2F2334203DC5242AD
:1006200000F03EF800E090402C43F1D0404270BD15
:1006300000F0004230F000400AD0C10D01F56071B9
:10064000C0F3160042EA0151C20840071143704747
:1006500000200146704730B50B460146002020229D
:10066000012409E021FA02F59D4205D303FA02F5BF
:10067000491B04FA02F52844151EA2F10102F1DC1F
:1006800030BD202A04DB203A00FA02F10020704736
:100690009140C2F1200320FA03F3194390407047C0
:1006A000202A04DB203A21FA02F00021704721FAC7
:1006B00002F3D040C2F1200291400843194670472E
:1006C00000487047DC4A000810B50446FFF7F8FF01
:1006D0000068005D00F0010010BDA0F14101192982
:1006E00000D8203070472DE9F05F8246007800275F
:1006F00015468B460AF10104B946302801D09DB158
:1007000013E014F8010B0127782803D0582801D0F2
:1007100045B10AE00DB1102D07D10027102514F8BE
:10072000010B02E0082500E00A250026B0460EE095
:1007300005FB080005FB06F1012701EB10461FFA37
:1007400080F8B6F5803F00D3B94614F8010B29466E
:1007500000F0B2F90028EBDABBF1000F05D00FB1C1
:10076000641E00E05446CBF80040B9F1000F06D0FB
:1007700003F0E0FC02210160C81EBDE8F09F48EADA
:100780000640FAE70023036000F0C3B90029A8BFC0
:100790007047401C490008BF20F00100704710B4AA
:1007A000B0FA80FC00FA0CF050EA010404BF10BC5F
:1007B000704749B1CCF1200421FA04F411FA0CF18C
:1007C00018BF012121430843A3EB0C01CB1D4FEAC5
:1007D00000614FEA102042BF002010BC704700EBC0
:1007E000C35010440029A4BF10BC7047401C4900EE
:1007F00008BF20F0010010BC704710B5141E73F143
:10080000000408DA401C41F1000192185B411A43D0
:1008100001D120F0010010BD2DE9F04D92469B461C
:1008200011B1B1FA81F202E0B0FA80F220329046C2
:10083000FFF727FF04460F4640EA0A0041EA0B0192
:1008400053465A46084313D0114653EA010019D0C3
:10085000C8F140025046FFF723FF05460E465046BA
:1008600059464246FFF70DFF084305D0012004E03A
:1008700020463946BDE8F08D0020054346EAE07683
:100880002C4337430A986305E40AA0EB08000022D2
:10089000FD0A44EA47540A3002D500200146E9E740
:1008A000010510196941DDE9084500196941BDE8F4
:1008B000F04DA2E72DE9FE4F804681EA0300C00F0C
:1008C0000C46009021F0004123F00045B8EB0200F7
:1008D000A94105D24046214690461C460B46024699
:1008E00023F00040104347D0270DC7F30A00C3F39D
:1008F0000A510290401A019040286BDAC3F31300AA
:1009000040F4801B0098924620B10023D2EB030AEA
:1009100063EB0B0B01985946C0F140025046FFF7BC
:10092000B0FE06460D4650465946019A00F0B2F810
:1009300010EB08006141002487EA115284EAE77352
:100940001A4340D0009A62B3019A012A4FEA075233
:1009500015DC001B61EB02014FF0004202EA075276
:10096000CDE90042001C41F5801132462B46FFF7CD
:1009700053FF03B0BDE8F08F40462146F9E7001B66
:1009800061EB0201001C41F5801300185B41201847
:10099000A2F5001747EB030140EAD570B6196D4187
:1009A00011E06D084FEA360645EAC0754FEA075276
:1009B000001B61EB0201001C41F5801149084FEA60
:1009C00030000019514132462B4603B0BDE8F04FCC
:1009D000FFF713BF0098012240000023D0EB020272
:1009E00063EBE073009821464FEAE074B8EB000037
:1009F00061EB0401E9E783F000435BE781F000412C
:100A000058E7C1F30A52C1F3130140F2FF3341F436
:100A100080119A4202DA00200146704740F23343C7
:100A20009A42A2F2334202DC5242FFF739BEFFF78C
:100A300028BE000030B5041E71F1000404DB4FF045
:100A40000044404264EB0101141E73F1000405DB15
:100A50001C464FF00043524263EB0403994208BF27
:100A6000904230BD1CB509480090094801900546E8
:100A7000009C06E0E06840F0010394E80700984716
:100A80001034AC42F6D3FFF735FB0000984E000857
:100A9000B84E0008202A06DBCB17203A41FA02F0B4
:100AA00043EAE07306E041FA02F3D040C2F12002CB
:100AB00091400843194670473A2800D2303820F058
:100AC0002002412A01D3A2F13700884201D34FF01E
:100AD000FF3070470FB40B0010B58AB00FA900911A
:100AE0000E994FF00004234ACC60214CCDE9064218
:100AF00000D004236FF00042CDE901321E4A089273
:100B000002466B46002000F0CDF80AB010BC5DF83C
:100B100014FBF0B585B007464FF0FF300091CDE9EA
:100B200001011E46002015460C4604903B466A46CD
:100B3000314604A8FFF7CEFF04990346601825B19B
:100B400009B1024600E022462A6000290ED0002B9F
:100B500002DD0099814209D00094001BCDE9010417
:100B60003B466A46314604A8FFF7B4FF05B0F0BD26
:100B7000DD0E0008FB0E0008C90600082DE9FF4F36
:100B8000087883B09946FF2805D0491C2D2804D049
:100B90000024002008E000200BE00124F9E700EB2E
:100BA000800003EB4000491C0B78FF2BF7D104B108
:100BB000404200230293147819461D462D2C01D083
:100BC0002B2C04D1521C2D2C13D000240294AA46A5
:100BD0001478FF2C0FD00A25A3FB057801FB0581B3
:100BE0004FF0000C03FB0C11521CE3194AEB0101FE
:100BF000EEE70124EAE7814453EA010002D019F547
:100C0000C87F06DA03980021C0E9001107B0BDE8EB
:100C1000F08F0025AE4E2F46DFF8B882184600F060
:100C20007DF9CDE90001B9F1000002DAC9F1000453
:100C300000E004460023A74A1AEB030B42EB045AD8
:100C400012E0E00707D02A46334638464146FFF710
:100C5000DEFB074688462A46334610461946FFF70C
:100C6000D6FB05460E466410002CEAD1DDE90001F2
:100C7000B9F1000F5A46534606DAFFF73AFC3A46F6
:100C80004346FFF736FC05E0FFF7C1FB3A46434613
:100C9000FFF7BDFB029A0AB181F00041039AC2E955
:100CA0000001B3E72DE9FF4F1F468DB0D7E901469C
:100CB0004FF0FF382E2045464FF000090B90B969E0
:100CC0006D1C0E988847396A824688470028F6D1FD
:100CD000BAF1FF3F0AD024F4D064002E11DDBAF13E
:100CE0002B0F08D0BAF12D0F0BD102E0404611B006
:100CF0008DE744F48064B9696D1C0E98884782467C
:100D0000761E6946600501D52D2000E02B208DF868
:100D1000000001F1010B0DF1200809E0B9696D1C1B
:100D20000E98884782460F9844F40074761E05603A
:100D3000002E02DDBAF1300FF0D00B998A453ED17A
:100D400044F0800406E00F99681CA9F1010944F4FD
:100D500000740860B9696D1C761E0E98884782463B
:100D60003028F0D02BE00B998A4505D1200603D41A
:100D700044F08004761E18E0504603F0B1FA08B340
:100D80000DF11302761EAAF1300044F4007493456D
:100D900006D20BF8010B200607D5A9F1010003E0EC
:100DA000200602D409F101008146A00502D50F9961
:100DB000681C0860B9696D1C0E9888478246002E31
:100DC000D1DC53E0002E51DDBAF1650F02D0BAF14B
:100DD000450F4BD1A00549D5B9696D1C24F4407469
:100DE000761E0E9888478246002E0CDD2B2804D0F4
:100DF000BAF12D0F07D144F48074B9696D1C0E98B7
:100E000088478246761EE00501D52D2100E02B2182
:100E100008F8011BCDF82C8021E00DF12901761E88
:100E200044F4007488450CD2AAF1300010F0FF00A1
:100E300088F8000002D10B99884509D908F101080A
:100E400006E0E00501D5244801E042F20F7081463A
:100E5000B9696D1C0E98884782460F980560002E70
:100E600004DD504603F03CFA0028D6D1F9690E980B
:100E70008847FF208BF8000088F8000000200690CB
:100E800007904B466A4608A906A8FFF777FEA0051B
:100E900002D46FF001002AE714F0240F0AD0E00713
:100EA00014D1DDE906123868031D3B600068C0E913
:100EB00000120BE0DDE9060100F03CF80146E00716
:100EC00004D13868021D3A600068016028460EE7C8
:100ED000000014400000F03FF1D8FFFF426842B12B
:100EE000016811F8013B23B1521EC0E900121846F7
:100EF00070470121C160881E704742685AB1C368BB
:100F0000016843B983688B4205D0491E521CC0E971
:100F10000012002070474FF0FF3070470EB540F2CE
:100F2000334202920022CDE900221346FFF774FCFF
:100F300003B000BD01F0004330B421F0004150EA9D
:100F4000010206D00A0DA2F56072C1F31301002A56
:100F500002DC30BC00207047440F44EAC104C100E9
:100F6000E01830BC00EBC250FFF710BCFEE740F2C7
:100F70009800C2F2000000F084B840F25400C2F2BF
:100F8000000000F07EB87047EFF3108072B600BF2B
:100F9000FEE7014690F82100022813D10868D1E944
:100FA0000FC3026822F00E020260026822F0010202
:100FB0000260012000FA03F2CCF8042081F821003D
:100FC000002002E0042088630120002281F8202014
:100FD000704790F82110022923D10268116821F08E
:100FE0000E0111602F211368C4F202018A4240F2FF
:100FF0000401C4F2020123F00103136015DD302364
:10100000C4F202039A421CD04423C4F202039A425F
:101010001AD05823C4F202039A421AD14FF48033F3
:101020001FE004218163012129E00823C4F20203A7
:101030009A420CD01C23C4F202039A4209D1102315
:101040000FE04FF480730CE04FF4805309E001236C
:1010500007E001F1680C4FF08073624508BF4FF460
:1010600080130B60012180F82110426B002180F871
:10107000201022B180B590470021BDE8804008468D
:10108000704710B5D0E90FCE0168DCF800300A686F
:1010900023FA0EF35C0724D512F0040421D00A6869
:1010A000920603D40A6822F004020A602F22C4F2D6
:1010B0000202914240F20402C4F202024EDD3023E9
:1010C000C4F20203994261D04423C4F2020399425C
:1010D0005FD05823C4F2020399425FD14FF48023BA
:1010E00064E09C0727D512F0020424D00A68920617
:1010F00006D40A6822F00A020A60012280F8212040
:101100002F22C4F20202914240F20402C4F202020F
:1011100030DD3023C4F2020399424DD04423C4F29F
:10112000020399424BD05823C4F2020399424BD197
:101130004FF4003350E01B0755D512F0080252D08F
:101140000A6822F00E020A60012101FA0EF2CCF8C0
:101150000420816380F82110016B3FE00823C4F272
:101160000203994218D01C23C4F20203994215D1FC
:1011700040231BE00823C4F20203994222D01C231F
:10118000C4F2020399421FD1202325E04FF480636B
:101190000CE04FF4804309E0042307E002F1680407
:1011A0004FF08063A14208BF4FF480031360C16A0F
:1011B000C9B1BDE8104008474FF400730CE04FF48C
:1011C000005309E0022307E002F168044FF00073C6
:1011D000A14208BF4FF400131360816A0022002966
:1011E00080F82020E5D110BD014600284FF0010015
:1011F00008BF70472DE9F0470A684FF6F873CBF641
:10120000FD7302EB030C4CF6CD43CCF6CC43ACFBA8
:10121000033C6FF00307002607EA9C07C4F20206AE
:1012200001F10C0AC1E90F670227D1E9013E9AE8F2
:101230003004D1E9069881F82170176843F6F076FA
:10124000B7433B4343EA0E0323432B4343EA0A03DA
:1012500043EA090343EA0803136000228A6381F822
:10126000210081F820200020BDE8F047704790F869
:1012700020C0BCF1010F04BF02207047F0B54FF051
:10128000010E80F820E090F821C0BCF1010F26D1BA
:101290004FF0020C80F821C04FF0000CC0F838C0AD
:1012A000D0E900C4C56AC66BDCF80070102C27F0CA
:1012B0000107CCF80070006C0EFA00F07060084670
:1012C000CCF8043004BF10460A46CCF80800CCF82D
:1012D0000C20DCF800003DB140F00E000CE00021D5
:1012E00080F820100220F0BD20F00400CCF80000AF
:1012F000DCF8000040F00A00CCF80000DCF8000048
:1013000040F00100CCF800000020F0BDB0B504466C
:1013100000F00DF9054640F23700C2F200000078F7
:10132000611C18BF044400BF00F001F9401BA0423B
:10133000FAD3B0BD2DE9F04F82B00E68002E00F058
:10134000EE8041F20042C4F20102042340F2004E5A
:10135000904208BF03234FF6FF7CC4F2010E0093B6
:1013600000240123C1F2100C4FF0000A4FF00009D5
:1013700003FA0AFB16EA0B0800F0C8804E686645BF
:1013800008DC032E34D8DFE806F028023E42D1F80C
:101390000C9043E04FF6FF72C1F2210296420DDC41
:1013A0000022C1F21102964217D00022C1F21202AD
:1013B000964212D00022C1F221020CE00022C1F2BA
:1013C0002202964209D00022C1F23102964204D094
:1013D0000022C1F23202964220D18A6882B1012AEB
:1013E00014BFC0F814B0C0F810B04FF0080915E0F1
:1013F000112E0FD0122E11D1CA6802F10C090DE086
:101400004FF004090AE0CA6802F1080906E04FF04B
:10141000000903E0CA6802F1040900BF224606463B
:10142000B8F5807F24BF203A043637680F259540F1
:1014300027EA050509FA02F22A433260CA79D20680
:1014400064D541F21803C4F202031A68AEF57E7641
:1014500042F001021A601A6802F001020192019A38
:101460002AF0030256F802B040F60002C4F201026C
:10147000904210D040F60042C4F20102904208D0DF
:1014800041F20002C4F20102009F904208BF02270D
:1014900002E0012700E0002704F00C030F229A402D
:1014A0002BEA020207FA03F34FEA9A051A4346F8B9
:1014B00025204E6840F20C45F202DEF8082054BFA9
:1014C00022EA080242EA0802C4F20105CEF8082026
:1014D0002A68B30254BF22EA080242EA08022A60DC
:1014E000B303DEF8042054BF22EA080242EA0802ED
:1014F000F303CEF80420DEF800204FF0010354BFC0
:1015000022EA080242EA0802CEF800200E680AF138
:10151000010A36FA0AF204F104047FF429AF02B09A
:10152000BDE8F08F002A08BF09040161704741F24D
:101530009420C2F200000068704740F2370041F288
:101540009421C2F20000C2F2000100780A6810443F
:101550000860704780B542F20000C4F202000168E2
:1015600041F010010160032000F08BF8002000F032
:1015700004F800F02AF8002080BDB0B540F2370230
:10158000C2F2000240F208011278C2F200014FF4E8
:101590007A730968B3FBF2F20446B1FBF2F1084634
:1015A00000F05AFB0F2C4FF001050CD858B94FF042
:1015B000FF3021460022002500F038F840F23800C4
:1015C000C2F2000004602846B0BD82B041F21800AB
:1015D000C4F202000168022241F0010101600168C9
:1015E00001F0010101910199416841F08051416090
:1015F000406800F08050009000980420C4F2010080
:10160000016862F31A61016002B0704700280CD4CF
:1016100000F01F01012202FA01F11C2202EAD000AF
:101620004EF20012CEF200028150704710B54EF615
:101630000C5CCEF2000CDCF80030C3F3022E8EF00E
:101640000704042C28BF0424BEF103034FF0FF3E1F
:101650000EFA04F438BF0023A14399400EFA03F3B5
:101660009A43114300F00F0200F160430901043A6C
:1016700003F564436244002848BF02F10C0319706B
:1016800010BD4EF60C51CEF200010A684FF6FF0372
:101690001A4060F30A2242F0806040F0FD7008605A
:1016A00070477047002800F081802DE9F04381B039
:1016B00042F20008C4F202080446D8F800000D46C1
:1016C00000F0070088420CD2D8F8000020F0070094
:1016D0002843C8F80000D8F8000000F00700A8422E
:1016E0006FD1206841F204098107C4F2020917D5BD
:1016F000410705D5D9F8001041F4E061C9F80010A0
:10170000010705D5D9F8001041F46051C9F800105F
:10171000D9F80010A26821F0F0011143C9F80010B7
:10172000C00745D1D8F8000000F00700A8420CD946
:10173000D8F8000020F007002843C8F80000D8F8C7
:10174000000000F00700A8423BD12068410707D500
:10175000D9F80010E26821F4E0611143C9F80010E3
:10176000000708D5D9F80000216920F4605040EA4C
:10177000C100C9F8000000F079F8D9F8001044F66B
:10178000E022C1F30311C0F60002515C40F20802EE
:1017900020FA01F140F23800C2F200000068C2F203
:1017A00000021160FFF7E9FE00200BE00120704706
:1017B0006068022809D0012827D159F8041C890340
:1017C00007D4012001B0BDE8F08359F8041C890159
:1017D000F7D5D9F8001021F003010843C9F800003B
:1017E000FFF7A5FE064641F2883700BFD9F8000092
:1017F000616800F00C00B0EB810F93D0FFF797FE0B
:10180000801BB842F2D90320DCE759F8041C890791
:10181000D7D5DEE74C20C4F2422001210160704799
:1018200040F2080041F20401C2F20000C4F20201D9
:101830000068096844F6F022C1F30221C0F60002F4
:10184000515CC840704740F2080041F20401C2F206
:101850000000C4F202010068096844F6F022C1F3F6
:10186000C221C0F60002515CC840704741F2040139
:10187000C4F202010B6841F6003003F00C02042AA6
:10188000C0F2B70008BF7047082A0CD1C3F3834CDD
:101890000CA212F80C20DB030AD440F60010C0F2B0
:1018A0003D005043704741F20020C0F27A0070477B
:1018B000096808A3C1F34041595C5043B0FBF1F003
:1018C000704700BF02030405060708090A0B0C0D48
:1018D0000E0F10100102000010B541F20804C4F20E
:1018E00002042068000658BF10BDFFF7DAFE802012
:1018F000A07010BD58B32DE9F04182B004460078C5
:1019000041F20006C007C4F2020629D0706800F058
:101910000C0004281DD0706800F00C00082802D1CB
:101920007068C00315D46068002800F04181B0F5EC
:10193000A02F00F05581B0F5803F00F05581306850
:1019400020F480303060306820F480204FE10120A6
:1019500070473068800303D56068002800F0AD80D0
:101960002078800719D5706810F00C0F07D07068C8
:1019700000F00C00082828D17068C00325D4306816
:10198000800703D52069012840F09780306861699D
:1019900020F0F80040EAC1003060207800074FD501
:1019A000A06940B30020C4F242200121C0F8801495
:1019B000FFF7BDFD054600BF706A80072DD4FFF715
:1019C000B6FD401B0228F7D91FE12069002840F22C
:1019D0000000C4F2422000F0A28001210160FFF764
:1019E000A6FD054630688007D0D4FFF7A0FD401B58
:1019F0000228F7D909E10020C4F242200021C0F8F2
:101A00008014FFF794FD0546706A800718D5FFF72C
:101A10008EFD401B0228F7D9F7E040F20800C2F221
:101A20000000006844F6D351C1F26201A0FB01013D
:101A3000480A019000BF0198411E00280191F9D188
:101A40002078400715D4E5698DB1706800F00C006E
:101A5000082843D1012D30D07068216A00F480320B
:101A60008A422AD1616A00F47010884225D1002090
:101A7000CCE0F0695FEAC00808D4F06940F080501B
:101A8000F061F06900F080500090009847F2000784
:101A9000C4F200073868C00511D4386840F480707B
:101AA0003860FFF744FD05463868C00507D4FFF7E6
:101AB0003EFD401B6428F7D9A7E00120A6E0E068BE
:101AC00000283DD0052854D0012856D0306A20F097
:101AD00001003062306A20F0040051E00027C4F2B7
:101AE000422700203866FFF722FD022D05460BD164
:101AF0003068800140F18D80FFF719FD401B0228FE
:101B00004FF00300F4D981E030688001AFD5FFF7D2
:101B10000EFD401B02284FF00300F5D976E00021AE
:101B20000160FFF704FD0546306880077FF535AF9B
:101B3000FFF7FDFC401B02284FF00300F4D965E0DD
:101B4000306A20F001003062306A20F00400306218
:101B5000FFF7EDFC054641F2883700BF306A800789
:101B60001DD5FFF7E4FC401BB8424FF00300F5D948
:101B70004CE0306A40F004003062306A40F001000E
:101B80003062FFF7D4FC054641F28837306A80079F
:101B900005D4FFF7CCFC401BB842F7D935E0B8F1CB
:101BA000000F3FF550AFF06920F08050F0614AE738
:101BB000306820F480303060306820F4802030605D
:101BC000FFF7B5FC054600BF306880037FF5C8AE5F
:101BD000FFF7ADFC401B64284FF00300F4D915E07B
:101BE000306840F480203060306840F480303060ED
:101BF000FFF79DFC054600BF306880033FF5B0AE9F
:101C0000FFF795FC401B6428F6D9032002B0BDE81D
:101C1000F081206AB0F5803F05D17168A26821F497
:101C20000031114371607168626A21F474111143CB
:101C30000843706001203866FFF779FC044600BF56
:101C4000306880013FF513AFFFF771FC001B0228DD
:101C50004FF00300F4D9D9E7411E0020B0EB116F1B
:101C60001CBF012070474EF21002CEF200025160FC
:101C70004EF62351CEF20001F0230B700721906045
:101C8000116070477047000010B504460068416954
:101C900094F84120212A1FD111F080011CD000BFEF
:101CA000206850E8050F216820F0800041E8050217
:101CB000002AF5D1A06B08B1FFF76BF9206850E856
:101CC000030F216820F0C00041E80302002AF5D18B
:101CD000202084F841002068406994F842102229AD
:101CE00013D110F0400010D0206850E8050F216893
:101CF00020F0400041E80502002AF5D1E06B08B170
:101D0000FFF747F9204602F057F8002010BD704752
:101D1000B0B582B0044600680168C368426901F04A
:101D20002F05202D03F0200506D12DB1204602B04D
:101D3000BDE8B04002F068B85FEA017C1EBF02F067
:101D4000010E03F4907212EB0E026CD1226BCD06E1
:101D500041D5012A3FD113F010023CD0002101915E
:101D6000016801914168019101994069400600F1C3
:101D7000B780A08DE18DE28D002A00F01381401A1A
:101D800000F01081216851E8031F226821F490714E
:101D900042E80313002BF5D1216851E8051F2268A2
:101DA00021F0010142E80513002BF5D1202184F830
:101DB00042100021216300BF216851E8031F2268FF
:101DC00021F0100142E80313002BF5D1022281B269
:101DD00020466263CAE00A0640F1CD8013F080021B
:101DE00000F0C98094F84110212940F0DB80A168FF
:101DF000B1F5805F03D12169002900F0DB80216A01
:101E00004A1C226209784160E18C01390A04E184AC
:101E100040F0C880C16821F08001C160C16841F014
:101E20004001C160BEE0CA0718BF13F4807203D03E
:101E3000626C42F0010262644A0706D5BEF1000FEF
:101E400003D0626C42F0020262648A0706D5BEF1DA
:101E5000000F03D0626C42F004026264BCF1000F18
:101E600006D55EEA050203D0626C42F008026264A5
:101E7000626C002A00F09680890604D51DB12046C8
:101E800001F0C2FF20684069616C00F0400001F081
:101E90000801401800F08180204601F08DFF206885
:101EA0004069400640F18080206850E8050F2168B5
:101EB00020F0400041E80502002AF5D1E06B00283F
:101EC00072D043F6B141C0F600014163FFF781F8DB
:101ED000002867D0E06B416B02B0BDE8B040084716
:101EE000E06B016849688AB2002A5BD0A38D9A42F0
:101EF00058D2E1858069202831D000BF206850E8A1
:101F0000030F216820F4807041E80302002AF5D114
:101F1000206850E8050F216820F0010041E8050223
:101F2000002AF5D1206850E8050F216820F0400014
:101F300041E80502002AF5D1202084F84200002063
:101F4000206300BF206850E8030F216820F01000D4
:101F500041E80302002AF5D1E06BFFF71AF80220EE
:101F60006063A08DE18D401A81B2204602B0BDE8C9
:101F7000B040FFF787BE490614D513F0400111D0D9
:101F8000C16821F04001C1602021204684F8411041
:101F900002B0BDE8B04000F07EB92046FFF7B7FEC2
:101FA0000020606402B0B0BD204602B0BDE8B04081
:101FB000FFF7ADBE216A31F8022B6FF35F2242605A
:101FC000216221E710B582B0006843F60001C4F237
:101FD0000101884201D002B010BD40F2DC00C2F223
:101FE0000000006841F290140168C2F20004090781
:101FF0001CD40168C906EED5002101910168019148
:1020000040680190019840F2DC00C2F20000FFF746
:102010003BFE40F25400C2F2000000684068C0F18C
:10202000FF002080012084F8010118E000210191C7
:102030000268019242680192019A0191026801923C
:1020400042680192019A01910168019140680190F2
:10205000019840F2DC00C2F20000FFF715FE40F2EA
:10206000DC00A11CC2F20000FF2202B0BDE810405B
:1020700000F0A8B858B310B5044690F8410028B94C
:10208000002084F84000204600F023F8242084F843
:1020900041002068C16821F40051C160204601F070
:1020A00012FF2068016921F490410161416921F02A
:1020B0002A014161C16841F40051C1600020202122
:1020C000606484F8411084F84210606310BD012000
:1020D00070472DE9F04385B040F600050446C4F290
:1020E0000105006805F5405100278842039766D135
:1020F00041F21800C4F20200016801AE41F48041CF
:102100000160016840F2440801F4804100910099A7
:102110000168C4F2020841F0040101600068314620
:1021200000F00400009000984FF40070019002202D
:102130000290032004902846FFF7FCF84FF48060DB
:10214000CDE90107284631460397FFF7F3F840F23F
:10215000540508F11400C2F20005802620214FF436
:102160008059C5E900072846C5E90276C5E9047724
:10217000C5E90619FFF738F808B1FEF705FFE56372
:102180006C6240F29805C2F2000510200021C5E9FA
:1021900000802846C5E90216C5E90411C5E90619FB
:1021A000FFF722F808B1FEF7EFFE252000210022FC
:1021B000A5636C62FFF73AFA2520FFF727FA05B00E
:1021C000BDE8F08310B590F84230202B08D14FF0D5
:1021D000010431B12AB10024046301F0BDFE00E026
:1021E0000224204610BD7047704700002DE9F041E1
:1021F000044690F8410020281CBF0220BDE8F08171
:102200000D4600294FF001003DD01746DAB30020FB
:1022100060642120984684F84100FFF788F9A7847C
:10222000E784A1680746B1F5805F01D1206910B14C
:102230002E46002500E00026E08CC0B1204680211B
:102240003A46434601F0D4FEF8B92EB116F8010B18
:102250002168486007E000BF35F8020B21686FF382
:102260005F2048600026E08C0138E084E4E72046E7
:1022700040213A46434601F0BBFE202184F841103C
:10228000002818BF0320BDE8F081202084F8410019
:102290000320BDE8F0817047FEE700207047000092
:1022A00080B582B041F26810C2F20000016841F2CC
:1022B0005C10C2F20000026841F26410C2F2000039
:1022C000036841F26010C2F20000D0F800C004A020
:1022D000CDF800C001F01EFF002002B080BD00BF9D
:1022E00025732C25732C25732C25730D0A000000F3
:1022F00080B541F2681EC2F2000EDDF808C0CEF8CB
:10230000001041F25C11C2F200010A6041F2641156
:10231000C2F200010B6041F26011C2F20001C1F88B
:1023200000C040F23411C2F200010128088004D834
:1023300023A001F0EFFE00BFFEE701F071F940F2CB
:102340004401C2F200010860C0B140F20C0100205B
:10235000C2F2000101EBC00252680130002AF9D13B
:10236000411E40F20C0044F2AD03C2F20000C0F680
:1023700000030822BDE88040FDF705BF02A002F07F
:102380004FFB00BFFEE700BF5B4C4C4F5320455254
:10239000524F525D204C4C4F535F436D645F496E0A
:1023A000697420636F6E746578742E6275666665F5
:1023B00072206D616C6C6F63206E756C6C210D000A
:1023C0005B4C4C4F53204552524F525D204C4C4F6A
:1023D000535F436D645F496E69742062756653692B
:1023E0007A65203C3D2073697A656F662863686171
:1023F000722900002DE9F04381B040F20C05C2F2D1
:1024000000056A68002A44D0A94659F8047B0446AE
:1024100038468846FDF71BFF0646384621463246B9
:10242000FDF734FF88B10835686890B355F8087B2C
:102430003846FDF70CFF0646384621463246FDF782
:1024400025FF0028F0D1A5F1040940F23410C2F2B2
:102450000000028840F24405A8EB0600C2F2000525
:10246000904238BF02462868A1196A60FDF7D9FE7C
:10247000686870B1D9F8001059B140F24400C2F256
:102480000000884718B1014604A001F043FE012076
:1024900000E0002001B0BDE8F08300BF5B4C4C4F72
:1024A00053204552524F525D204C4C4F5320434DC8
:1024B00044204552523A203078253032580D0A00D7
:1024C000F0B581B089B10568064628460C4601F092
:1024D000BBFB36683078A0F1300102290DD23138CB
:1024E000B0FA80F0400901272EE044F6C340C0F660
:1024F000000002F095FA02202CE020B916A002F0AC
:102500008FFA012026E023A1304602220227FDF7A0
:10251000BDFEB0B120A1304603220327FDF7B6FE71
:1025200088B11EA1304604220427FDF7AFFE40B15A
:102530001CA1304605220527FDF7A8FE18B11BA0F7
:10254000DDE7012000E000202070E9193046FDF7AA
:1025500085FE002001B0F0BD5B4C4C4F532045522E
:10256000524F525D204C4C4F535F436D645F50613E
:1025700072616D426F6F6C3A20636F6E7465787430
:102580002D3E627566666572203D3D204E554C4C71
:10259000210D00004F4E00004F4646005452554555
:1025A0000000000046414C53450000005B4C4C4F7E
:1025B00053204552524F525D204C4C4F535F436D58
:1025C000645F506172616D426F6F6C3A205061724E
:1025D000616D65746572206572726F72210D000005
:1025E000F0B581B071B3154662B3064600680C467B
:1025F00001F02AFB376821A039460322FDF746FE89
:1026000028B31FA039460322FDF740FEF8B1384633
:102610002221FDF712FE30B3471C38462221FDF778
:102620000CFE00B37668C01BB04238BF0646AE420F
:1026300028BF2E46204639463246FDF7F2FD0020DF
:10264000A05519E01CA002F0EBF9022014E0032DC4
:1026500001D80CA00DE0204639460322FDF7E1FD2C
:102660000020E07008E00020207044F61A60C0F6F8
:10267000000002F0D5F9012001B0F0BD4D41580035
:102680004D494E005B4C4C4F53204552524F525DCA
:10269000204C4C4F535F436D645F506172616D43DA
:1026A0006F7079546578743A20636F7079206C6527
:1026B0006E203C2034210D005B4C4C4F5320455282
:1026C000524F525D204C4C4F535F436D645F5061DD
:1026D00072616D436F7079546578743A20506172FD
:1026E000616D65746572203D3D204E554C4C210D49
:1026F00000000000F0B581B0002900F0E780064638
:1027000000680C4601F0A0FA30680178002900F05A
:10271000D580694602F096F9009D3668B54200F012
:10272000CD8044F662610746C0F6000128460222C9
:10273000FDF79DFD002800F0CE8044F66E61C0F6E6
:10274000000128460222FDF792FD002800F0C38018
:1027500044F68C61C0F6000128460222FDF787FD91
:10276000002800F0B88044F68961C0F600012846D0
:102770000222FDF77CFD002800F0AD8044F6656183
:10278000C0F6000128460222FDF771FD002800F086
:10279000A28044F66861C0F6000128460222FDF7D7
:1027A00066FD002800F0978044F67461C0F60001D1
:1027B00028460222FDF75BFD002800F08C8044F6DD
:1027C0005F61C0F6000128460222FDF750FD002897
:1027D00000F0918044F66B61C0F6000128460222A9
:1027E000FDF745FD002800F0868044F68661C0F6BE
:1027F000000128460222FDF73AFD00287BD044F66E
:102800007161C0F6000128460222FDF730FD002864
:1028100071D044F69461C0F6000128460222FDF70B
:1028200026FD00286FD044F69361C0F600012846CB
:102830000322FDF71CFD002867D044F68F61C0F627
:10284000000128460322FDF712FD00285FD044F660
:102850008161C0F6000128460422FDF708FD00282A
:102860005BD044F68261C0F6000128460322FDF7E2
:10287000FEFC002853D044F67C61C0F600012846D7
:102880000422FDF7F4FC00284BD044F67761C0F633
:10289000000128460422FDF7EAFC002843D02878EE
:1028A000A0F14101162940D8012202FA01F1A1222A
:1028B000C0F26002114238D0013514E044F687407E
:1028C000C0F6000002F0ACF8012012E01AA002F0FD
:1028D000A7F802200DE002350021C4F27A41384603
:1028E000FDF757FD074630462946FDF7B7FC0020A7
:1028F000276001B0F0BD02350021C4F27A413846AC
:10290000FDF715FDEEE70235EDE70335F4E7033596
:1029100042F20041C4F67411F1E70435DCE70335F7
:10292000E1E70435E8E70435F2E77328C4D06D2801
:1029300008BF0135D7E700BF5B4C4C4F53204552D1
:10294000524F525D204C4C4F535F436D645F50615A
:1029500072616D466C6F61743A20506172616D6591
:10296000746572203D3D204E554C4C210D000000F9
:10297000F0B581B0002900F0E980064600680C46F9
:1029800001F062F930680178002900F0D7806946CB
:102990000A22FDF794FC009D3668B54200F0CE8017
:1029A00044F662610746C0F6000128460222FDF7A0
:1029B0005EFC002800F0CF8044F66E61C0F6000196
:1029C00028460222FDF753FC002800F0C48044F69C
:1029D0008C61C0F6000128460222FDF748FC002861
:1029E00000F0B98044F68961C0F600012846022251
:1029F000FDF73DFC002800F0AE8044F66561C0F6AE
:102A0000000128460222FDF732FC002800F0A380D6
:102A100044F66861C0F6000128460222FDF727FC53
:102A2000002800F0988044F67461C0F60001284642
:102A30000222FDF71CFC002800F08D8044F65F6147
:102A4000C0F6000128460222FDF711FC002800F024
:102A5000988044F66B61C0F6000128460222FDF71B
:102A600006FC002800F08D8044F68661C0F6000167
:102A700028460222FDF7FBFB002800F0828044F686
:102A80007161C0F6000128460222FDF7F0FB002824
:102A900077D044F69461C0F6000128460222FDF783
:102AA000E6FB002872D044F69361C0F60001284688
:102AB0000322FDF7DCFB00286AD044F68F61C0F6E4
:102AC000000128460322FDF7D2FB002862D044F61D
:102AD0008161C0F6000128460422FDF7C8FB0028EA
:102AE00064D044F68261C0F6000128460322FDF757
:102AF000BEFB00285CD044F67C61C0F6000128468D
:102B00000422FDF7B4FB002854D044F67761C0F6E8
:102B1000000128460422FDF7AAFB00284CD02878A3
:102B2000A0F14101162949D8012202FA01F1A1229E
:102B3000C0F26002114241D001351AE044F64B4028
:102B4000C0F6000001F06CFF012018E01EA001F0AB
:102B500067FF022013E002353846FDF739FD44F2E5
:102B60000003C4F28F030022FDF7C3FCFDF741FD13
:102B7000074630462946FDF771FB0020276001B06B
:102B8000F0BD02354FF47A704743F2E70235F0E7C3
:102B90000335F7E703353846FDF71AFD48F2804361
:102BA000C4F22E130022FDF732FCDFE70435D3E731
:102BB0000335DEE70435E5E70435ECE77328BBD0E1
:102BC0006D2808BF0135D4E75B4C4C4F532045526C
:102BD000524F525D204C4C4F535F436D645F5061C8
:102BE00072616D496E7433323A20506172616D6565
:102BF000746572203D3D204E554C4C210D00000067
:102C000080B540F25410C2F20000006808B180475D
:102C100005E044F62440C0F6000001F001FF00206A
:102C200080BD000070B588B00DF11F010446FFF7AC
:102C300047FC88B906A92046FFF75CFD60B905A9E5
:102C40002046FFF795FE38B90DF1090520462946C3
:102C50000A22FFF7C5FC10B1012008B070BD06982C
:102C60009DF81F60FDF7E4FC059C02460B4604A09E
:102C70003146CDE9004501F04DFA0020EDE700BFF7
:102C80002A54657374202D3E2025642C2025662C43
:102C90002025642C2025730D0A00000041F28810C5
:102CA000C2F20000007870472DE9F04381B040F295
:102CB0005413C2F200031860086840F24C13C2F2C9
:102CC00000031860486840F25011C2F20001086029
:102CD000D179137A40F2401640F24415C2F2000650
:102CE000C2F2000531702B70136840F23811C2F245
:102CF00000019079547A40F23E1740F248190B6077
:102D0000918840F23C12C2F20007C2F20009C2F2FE
:102D10000002387089F80040118043B104290ED8B0
:102D200044F6E630C0F6000001F07AFEFEE744F615
:102D3000F840C0F6000001F073FE00BFFEE7A821D6
:102D4000484300F06DFC40F25008C2F20008C8F899
:102D5000000000B33878800000F062FC40F25811A7
:102D6000C2F200010860F0B1307800EB4000C00012
:102D700000F056FCD8F8001041F28C12C2F20002AA
:102D80001060C1B93078B0B144F62450C0F60000EC
:102D900001F046FEFEE744F65650C0F6000001F092
:102DA0003FFE00BFFEE744F6BC50C0F6000001F055
:102DB00037FE00BFFEE72878C00000F031FCD8F8ED
:102DC000001040F24002C2F20002106049B92878B7
:102DD00038B144F6EA50C0F6000001F021FE00BF11
:102DE000FEE799F800003421484300F019FC40F256
:102DF0004C01C2F20001086048B999F8000030B1F6
:102E000044F68850C0F6000001F00AFEFEE744F6E2
:102E10007E30C0F6000001F003FE44F61630C0F626
:102E2000000001F0FDFD44F64A30C0F6000001F05C
:102E3000F7FD44F6B230C0F6000001F0F1FD06A047
:102E400001F0EEFD44F6586110A0C0F6000101B09B
:102E5000BDE8F04301F05EB95B4C4C4F5320444554
:102E60004255475D204C4C4F535F496E697420209A
:102E70002D2D2D2D2020202D2D2D2D202020202DDD
:102E80002D202020202D2D2020200D005B4C4C4F8C
:102E9000532044454255475D204C4C4F535F496E8B
:102EA0006974204C4C4F532076657273696F6E3A8B
:102EB0002025730D0A0000002DE9F04181B0DDF8F6
:102EC0001CC0009040F23610C2F20000007840F2C0
:102ED000281EC2F2000E80B1DEF80040054608341C
:102EE00054F8086C009FBE4203D154F8046C8E4223
:102EF00023D0013D04F11004F2D140F22418C2F2B3
:102F0000000898F80050854211D20098DEF8007051
:102F10002C0107EB051638510020C6E90110681C8A
:102F2000B273F373A6F80CC088F800000FE009A094
:102F300001B0BDE8F04101F073BD009844F8080C01
:102F40000020A271E371A4F804C044E9011001B0AB
:102F5000BDE8F0815B4C4C4F53204552524F525DBF
:102F6000204C4C4F535F4C45445F426C696E6B3A4A
:102F7000203E204C4C5F4C45445F4E554D210D008A
:102F800070B584B040F22C15C2F2000540F236163E
:102F90002880C2F2000610010C46327000F040FB9F
:102FA00040F22811C2F20001086030B9307820B137
:102FB0000AA001F035FD00BFFEE7288800F032F9D5
:102FC00043F21103C0F60003CDE9000120460121C0
:102FD0000122029300F0E0FA04B070BD5B4C4C4F4C
:102FE00053204552524F525D204C4C4F535F4C453D
:102FF000445F496E6974206C65644C697374206D1C
:10300000616C6C6F63206E756C6C210D00000000AC
:1030100040F23610C2F200000078002844D02DE9BA
:10302000F04340F22811C2F200010A6840F22C116C
:10303000C2F20001B1F8008008324FF0640E4FF088
:10304000000C00BF52F8083C43B352F8044C2CB3B8
:1030500092F80690B9F1000F20D052F8085C16687B
:10306000D379771C968807FB08F101FB0EF17343B7
:1030700017609942296834BF21EA04040C432C608C
:10308000116801FB08F1B14208D3B9F1FF0FC2F892
:1030900000C01CBFA9F10101917100BF013802F10C
:1030A0001002CFD1BDE8F0437047000041F2881014
:1030B000C2F200000078002800F0B3802DE9F04F44
:1030C00081B040F2500EC2F2000EDEF800C04FF0A8
:1030D0000008A8274FF0000A002100BF48B200FBFB
:1030E00007F94FF0780B0026009100BF0AFB07C4D8
:1030F0000CEB0903224632F8A20F9D1932F8027C2C
:1031000095F89F10384322F8020C39B1012185F857
:103110008F10A2F8008085F89F8006E095F88F1048
:10312000A2F8008085F89F8069B141F28011C2F257
:10313000000106C903EB0B0753F80B307F68C91A6F
:1031400072EB070102D2A82754E000BFD4F8A420F4
:10315000A827002A4ED040F23011C2F200010B68BD
:1031600006F10F01012505FA01F87BB1009C00EA88
:10317000080081B2E0B200227546984728680AFB31
:103180000700D0F8A420B0F8A00001E0009C75462C
:1031900000EA0800E4B281B220469047D5F800C0AA
:1031A00040F230130AFB07C1C2F20003B1F8A020BD
:1031B0001B685040AE46A1F8A0006BB100EA0800C1
:1031C00081B22046012274469847D4F800C0A64632
:1031D0000AFB07C0B0F8A00000EA0800000402D013
:1031E0004FF0000806E00CEB090030444FF00008F7
:1031F00080F88F80ABF1080B1BF10800A6F10106E7
:103200007FF474AF009941F28810C2F200000131DE
:1032100000784FFA81FA8245FFF660AF01B0BDE851
:10322000F04F704740F23601C2F200010978B0FB5E
:10323000F1F000217047000040F23E11C2F200019F
:103240000A78824209D9014640F25810C2F20000C1
:103250000268002042F82100704780B502A001F00A
:10326000DFFBFF2080BD00BF5B4C4C4F532045521D
:10327000524F525D204C4C4F535F4D73675F436C10
:103280006561723A203E204C4C5F5441534B5F4E77
:10329000554D210D0000000040F25811C2F200010E
:1032A000096851F82000704710B540F23E12C2F292
:1032B0000002127882420ED940F25812C2F2000285
:1032C0001268002342F820104FF40041002200242D
:1032D00000F04EF803E003A001F0A2FBFF2420461B
:1032E00010BD00BF5B4C4C4F53204552524F525DB6
:1032F000204C4C4F535F4D73675F53656E643A20AB
:103300003E204C4C5F5441534B5F4E554D210D00B8
:1033100010B541F28811C2F200010C78FF2C03D1E4
:1033200008A001F07DFB0BE040F25002C2F2000267
:103330001268A82304FB0322C2F8A400601C0870D2
:10334000204610BD5B4C4C4F53204552524F525DAE
:10335000204C4C4F535F52656769737465725F45CB
:1033600076656E74733A203E3D20323535210D006E
:10337000F0B540F23E15C2F200052D78854228D9FD
:1033800040F25005C2F200052D68A82400FB045E3F
:1033900041F28014BEF8A2000EF1900C0843AEF882
:1033A000A2000020C2F20004012500BF21FA00F6AD
:1033B000F60707D0D4E900670CF80050B6185F4153
:1033C000CEE90067013010280EF1080E08BFF0BDED
:1033D000ECE702A0BDE8F04001F022BB5B4C4C4F93
:1033E00053204552524F525D204C4C4F535F537403
:1033F0006172745F4576656E743A203E204C4C5F76
:103400005441534B5F4E554D210D000040F23E128A
:10341000C2F200021278824218D940F25002C2F27F
:1034200000021268A82300FB03204FF0000C0023C9
:1034300021FA03F2D2071EBFC21882F880C082F8B8
:1034400090C00133102B08BF7047F1E701A001F0D5
:10345000E7BA00BF5B4C4C4F53204552524F525D70
:10346000204C4C4F535F53746F705F4576656E749C
:103470003A203E204C4C5F5441534B5F4E554D21FA
:103480000D0000002DE9F04F81B040F23601C2F28C
:10349000000141F2801A0870C2F2000ADAE9000263
:1034A00041F27015013042F10002CAE90002C2F295
:1034B0000005DAE90003D5E900270978801A4FF4FE
:1034C0007A72B2FBF1F263EB07010023FCF72AFEEC
:1034D00052EA030024D1A86840F244140130A860E5
:1034E000C2F200042078D8B140F24006C2F20006D1
:1034F00031684FF000080027AA6851F837309A4227
:103500000BD301EBC70252683AB1F8B29047316869
:10351000207801EBC702C2F8048001378742EBD361
:1035200040F2401BC2F2000B9BF8000088B341F24E
:103530008C19C2F20009D9F800800027002600BFCC
:1035400008EB0705287C68B1DAE9000158F8072084
:10355000EB68801AD5E90142A141FCF7E3FD52EA8C
:10356000030007D09BF800000136864207F11807D8
:10357000E6D30EE069690029F4D0F0B28847D9F8A3
:10358000008008EB0700417C0029EBD10021017489
:10359000E8E701B0BDE8F08FF0B581B040F240132C
:1035A000C2F200031B7883421CD941F2801441F21D
:1035B0008C16C2F20004C2F20006089B30CC3668BA
:1035C000DDE906EC00EB400706EBC70046F83740A4
:1035D00001744274C0E9015EC0F80CC003B14361DC
:1035E000002003E002A001F01BFAFF2001B0F0BDB3
:1035F0005B4C4C4F53204552524F525D204C4C4F28
:10360000535F54696D65725F5365743A203E204C78
:103610004C5F54494D45525F4E554D210D00000001
:1036200040F23C11C2F200010B88411E89B299425E
:1036300024BF00207047B0B5810884074FF0010215
:1036400018BF02EB9001B1EB930F36D240F2381065
:10365000C2F20000026823F0030040F2FF0EAC2328
:1036600002EB000CCFF6007ECCF60053106800EAA7
:103670000E049C420CD1C0F30F2002EB8000041D0D
:1036800004EB810200206245224628BFB0BDEDE771
:1036900069B1141D002000BF256805EA0E059D4292
:1036A000EED0013085B28D4204F10404F4D343EA34
:1036B000012042F8040B1046B0BD0020B0BD80B51B
:1036C00082B041F21400C4F202000168002241F00D
:1036D000010101600068002100F0010001900198E3
:1036E0000E20FDF7A3FF0E20FDF790FF0F20002115
:1036F0000022FDF79BFF0F2002B0BDE88040FDF7E0
:1037000085BF2DE9F04186B0002641F218000596EC
:10371000C4F20200016840F6004441F0200101605B
:103720000168C4F2010401F02001019101990168CE
:10373000012241F00401016001684FF4707801F04A
:103740000401019101990168012741F0080101601C
:1037500000684FF4707100F0080001900198204655
:10376000FDF7E0FE802002A902ADC1C1A4F5806092
:103770002946FDF7DFFD20462946CDE9027604976C
:10378000FDF7D8FD0220059020462946CDE90287A5
:103790000496FDF7CFFD06B0BDE8F08180B540F29C
:1037A000DC0043F60001C2F20000C4F20101002374
:1037B0004FF00C0C4FF4E13280E80E00C0E9033307
:1037C000C0E905C3C361FEF755FC18B1BDE88040F0
:1037D000FDF7DABB80BD0000FEE70000FEF77CF8D5
:1037E000FEE77047704780B50120FFF74BFEBDE84C
:1037F0008040FDF7A2BE0000B0B590B000240120CB
:10380000CDE90B44CDE9094406900A904FF48010AD
:103810004FF4803102250F9006A8CDE90714CDE9B9
:103820000D51FEF767F820B1EFF3108072B600BFBC
:10383000FEE70F20CDE901054FF48060CDE90404D7
:1038400001A802210394FDF72DFF20B1EFF31080B2
:1038500072B600BFFEE7FDF7DDFF10B0B0BD7047E8
:1038600010B586B040F2DC00C2F20000016841F2FF
:103870009014CA68C2F2000442F01002CA60A11C8F
:10388000FF22FEF79FFC002084F801010590CDE99E
:10389000030041F20D30C0F60000049040F6032012
:1038A000ADF80C0040F25C10C2F20000019041F251
:1038B0000000C0F20A50029044F28900C0F60000F5
:1038C00004A901AAFFF7F0F912A415A117A219A3E0
:1038D000FF200094FEF70CFD0A2000210122FFF7D3
:1038E0004FFB40F60C404FF4FA74C4F20100402143
:1038F000FF220A230094FFF7DFFA00F0DDF800F062
:1039000065F9FFF7CBF901460CA000F003FC06B007
:1039100010BD00BF3030303030303031000000009A
:103920004C6974746C654C65616600004C4C4F5377
:103930000000000056322E302E3000005461736BB0
:10394000204E756D3A2025640D0A000080B5FFF702
:10395000ADFB41F29010C2F2000090F8011141B1AC
:10396000002180F8011130F8021BBDE88040FEF70D
:1039700041BD80BD10B50AB2B2F1FF3F044608DD7B
:10398000C8071CD188072DD4480741D44FF6FF74CF
:103990003CE02046FFF780FC024629A0214600F0CB
:1039A000B9FB2046FFF748FC40F23500C2F20000A8
:1039B00000782BA1FFF778FC4FF4004426E030A0FC
:1039C000214600F0A7FB40F23400C2F20000047868
:1039D0004FF4FA70FFF726FC02460B462046012101
:1039E000012411E02AA0214600F094FB40F23400AB
:1039F000C2F2000004784FF47A70FFF713FC02461D
:103A00000B46204602210224FFF7B2FC204610BDDF
:103A100023A0214600F07EFB40F23404C2F20004F1
:103A200020780121FFF7F2FC24780020FFF7FAFB51
:103A300002460B4620460221FFF79AFC0424E5E7E4
:103A40007461736B25642072656365697665206DAA
:103A50006573736167653A2025730D0A00000000E5
:103A600066726F6D207461736B30202D3E2074611F
:103A7000736B312061726520796F75204F4B3F0069
:103A80007461736B2564206576656E74310D0A0070
:103A90007461736B2564206576656E74320D0A005F
:103AA0007461736B25642073746F70206576656E26
:103AB00074310D0A00000000B0B543F67510C0F671
:103AC0000000FFF725FC40F23405C2F20005FF2894
:103AD000287016D004460020FFF7A4FB02460B46D0
:103AE00020460121FFF744FC2C7840F6B830FFF760
:103AF00099FB02460B4620460421BDE8B040FFF783
:103B000037BC02A000F08CFFFEE700BF5B4C4C4FBF
:103B100053204552524F525D205461736B302069DF
:103B20006E6974206661696C6564210D0000000097
:103B300010B50AB2B2F1FF3F0FDDC8071BD18807ED
:103B40005CBF4FF6FF7010BD40F23400C2F20000BF
:103B500000780221FFF75AFC15E00446FFF79CFBB2
:103B600002460AA0214600F0D5FA2046FFF764FB82
:103B70004FF4004010BD40F23400C2F20000007863
:103B80000AA1FFF791FB012010BD00BF7461736BA8
:103B900025642072656365697665206D6573736160
:103BA00067653A2025730D0A0000000066726F6D8C
:103BB000207461736B31202D3E207461736B302053
:103BC00061726520796F75204F4B3F00B0B543F6A9
:103BD0003130C0F60000FFF79BFB40F23505C2F222
:103BE0000005FF28287017D0044641F28830FFF7FF
:103BF00019FB02460B4620460121FFF7B9FB2C7842
:103C000042F21070FFF70EFB02460B4620460221DF
:103C1000BDE8B040FFF7ACBB02A000F001FF00BF61
:103C2000FEE700BF5B4C4C4F53204552524F525D54
:103C3000205461736B3120696E6974206661696C10
:103C40006564210D0000000058B101460A78202A61
:103C500018BF2C2A01D10131F8E72AB903A000F0DE
:103C6000DFBE0AA000F0DCBEFCF7F8BA5B4C4C4F9C
:103C700053204552524F525D205472696D3A204E86
:103C80006F207370616365210D0000005B4C4C4F29
:103C900053204552524F525D205472696D3A207341
:103CA0007472203D3D204E554C4C210D000000000B
:103CB000406A0021C185C184FEF729B810B5446A65
:103CC0002068416994F84120212A13D111F0800124
:103CD00010D00020E08400BF206850E8030F216866
:103CE00020F0C00041E80302002AF5D1202084F82A
:103CF00041002068406994F84210222907D110F051
:103D0000400004D00020E085204600F055F8606CAB
:103D100040F0100120466164BDE81040FDF7F7BF98
:103D20000168406A0968890630D40021C18500BF56
:103D3000016851E8031F026821F4807142E803130F
:103D4000002BF5D1016851E8051F026821F001013F
:103D500042E80513002BF5D1016851E8051F026800
:103D600021F0400142E80513002BF5D1202180F815
:103D70004210016B012909D1016851E8031F026853
:103D800021F0100142E80313002BF5D1002141631B
:103D9000016B012918BFFEF726BA818DFDF772BFAE
:103DA000406A01214163016B012918BFFEF71CBA6B
:103DB000818D4908FDF766BF016851E8031F02685D
:103DC00021F4907142E80313002BF5D1016851E80A
:103DD000051F026821F0010142E80513002BF5D10F
:103DE000016B01290AD100BF016851E8031F026875
:103DF00021F0100142E80313002BF5D1202180F8B7
:103E0000421000210163704790F84210222918BF28
:103E1000704783680246B3F5805F0CD152F8281FC3
:103E200052F8183C8BB9026852686FF35F2221F890
:103E3000022B81620FE052F8281F0BB9036923B1EE
:103E400003685B6803F07F0301E003685B680B7045
:103E5000116801311160C18D01390A04C18500D09A
:103E600070470168CA6822F02002CA60CA6822F45A
:103E70008072CA604A6922F001024A61202180F8FA
:103E8000421000214163026B012A18BFFEF7ABB953
:103E900081B00163016851E8031F026821F010013D
:103EA00042E80313002BF5D101680A68D20606D553
:103EB000002200920A680092496800910099818D61
:103EC00001B0FDF7DFBE10B504460068D4E902C2B8
:103ED0002369016921F4405111430161616943EA99
:103EE0000C021143C26841F20C639A431143C16052
:103EF0004169A26921F44071114343F60002C4F202
:103F000001029042416102D0FDF78AFC01E0FDF719
:103F10009AFCD4E90023192148439900B0FBF1F041
:103F200048F21F51C5F2EB11A0FB013463094FF6B3
:103F30009C74C0F6FF7403FB0400322404EB0010F1
:103F4000A0FB0101F02000EA511000EB0310C1F3C7
:103F500043110844906010BD70B582B0134600252F
:103F60000446816283854564222084F842000A4623
:103F70002168E06B43F6215C43F6A15E43F6BD4643
:103F8000C0F6000CC0F6000EC0F600060431C0E911
:103F90000ACEC0E90C65FDF76AF901952068016851
:103FA0000191406801900198206948B1206850E86B
:103FB000030F216840F4807041E80302002AF5D124
:103FC000206850E8050F216840F0010041E8050233
:103FD000002AF5D1206850E8050F216840F0400024
:103FE00041E80502002AF5D1002002B070BD0000B2
:103FF0002DE9F04182B0804600681D4603680E46F8
:104000001940B1421CD017466C1C00BFA4B1FDF78B
:104010008EFA01464FF003009DB1C91BA94210D88A
:10402000D8F80000C168490706D5402E04D0802E7C
:1040300002D00168090707D401683140B142E5D1D7
:10404000002002B0BDE8F0810024019401680191D4
:104050004068019001984046FFF7AEFE0820C8F87E
:10406000440088F840400120EBE710B540F2DC0442
:10407000C2F200042046FDF7A5FF2046BDE810402F
:10408000FDF746BEFEE700004EF60C50BFF34F8F23
:10409000CEF200000168042201F4E061C0F2FA529D
:1040A00011430160BFF34F8F00BFFDE710B50968F2
:1040B00004460846FCF7CBF8216804460846FCF79E
:1040C000C6F80021844238BF4FF0FF3188BF01217C
:1040D000084610BD80B582B0019040F2DC00C2F20B
:1040E000000001A901224FF6FF73FEF77FF8019847
:1040F00002B080BDFDF72EFAFFF77EFBFFF701FB54
:10410000FFF7DDFAFFF74AFBFFF7AAFBFFF71EFCFC
:10411000FCE700000FB4054B10B503A9044A029850
:1041200000F0E6F810BC5DF814FB0000D540000874
:1041300000000020004870470400002002E008C88A
:10414000121F08C1002AFAD170477047002001E011
:1041500001C1121F002AFBD1704700002DE9FF5F4B
:1041600082B00021DDE90430020DDDF840B00343E8
:1041700018D044F61050A2F2FF32424315141198A1
:1041800001281FD0A5EB0B00401C5FEA000A4FF08E
:1041900000064E4FDFF83891B046504615D5CAF1AB
:1041A000000413E0119801244AA3012801D16FEA09
:1041B0000B010298119AC0E90031C0E9024206B031
:1041C000BDE8F09FCBF10000DFE704460021404A44
:1041D000491842EB0450CDE9001012E0E00707D087
:1041E00032463B4640464946FCF711F9804689462F
:1041F00032463B4610461946FCF709F906460F467B
:104200006410002CEAD1DDE90401DDE90023BAF1F4
:10421000000F06DAFCF7FBF842464B46FCF7F7F8CE
:1042200005E0FCF766F942464B46FCF762F90446A6
:104230000E460022284BFCF7FDFB03D84FF0FF3061
:10424000014607E00022254B20463146FCF732FBB1
:10425000FCF7D7FB102409E0002C0ADB0A2200231C
:10426000FBF760FF039B30321A55641E50EA0102CF
:10427000F2D1641C039AC4F111031444119A012A67
:1042800003D0012208430DD10AE0084304D00020E6
:104290004FF0110B119072E7A3EB0B056D1E0DE0B3
:1042A0005B4504DD4FF0000205F1010504E003DA8F
:1042B0004FF00002A5F10105002AECD002981199F7
:1042C000C0E90231C0E9004579E700000000144070
:1042D0000000F03F300000000000F0430000E03F2D
:1042E00030380A2801D201207047002070470000B2
:1042F0002DE9FF4F95B09B468946064600250FE203
:10430000252877D100242746F84A0121059400E0AA
:10431000044316F8013F203B01FA03F01042F7D1A5
:1043200030782A2811D06FF02F033078A0F13002B6
:10433000092A16D8059A44F0020402EB820203EB24
:1043400042021044761C0590EFE759F8042B0592C1
:10435000002A03DA504244F40054059044F0020469
:10436000761C30782E2816D116F8010F44F004047C
:104370002A280DD06FF02F023078A0F13003092BDE
:1043800009D807EB870302EB4303C718761CF3E752
:1043900059F8047B761C30786C280FD006DC4C284A
:1043A00017D068280DD06A2814D104E0742810D0E2
:1043B0007A280FD10DE044F400140AE044F480148C
:1043C00001E044F440147278824202D104F5801472
:1043D000761C761C307866280BD013DC582877D0F2
:1043E00009DC002875D04528F6D04628F4D04728A7
:1043F0001AD19DE118E0632835D0642879D065286A
:1044000012D195E1702873D008DC6728F1D06928B3
:104410006FD06E280DD06F2806D1B5E073282CD050
:10442000752875D0782874D05A46179990476D1C16
:1044300075E1C4F30250022809D003280DD0D9F841
:10444000001004280DD00D6009F1040967E1D9F8C6
:104450000010EA17C1E90052F6E7D9F800100D8004
:10446000F2E70D70F0E719F8041B8DF8001000203A
:104470008DF80100EA46012003E059F804AB4FF043
:10448000FF3061074FF0000102D40DE008F1010197
:104490008846B9420FDA8045F8DB1AF8081000297F
:1044A000F4D108E008F1010188468142FADB1AF8EC
:1044B00008100029F6D105985B46A0EB08072146B5
:1044C0003846179A00F094FA284400EB080507E0F4
:1044D0004DE029E10DE01AF8010B5A461799904773
:1044E000B8F10108F7D25B4621463846179A13E126
:1044F00042E00A220092C4F302524FF0000A022A5C
:1045000008D059F804CB032A4FEAEC710AD00DE029
:1045100029E02AE009F1070121F00702F2E802C1CF
:10452000914609E00FFA8CFC4FEAEC71042A03D1A2
:104530004FFA8CFC4FEAEC71002907DA0A46002199
:10454000DCF1000C61EB02012D2202E0220504D512
:104550002B228DF80420012203E0E20701D0202263
:10456000F7E7904659E00A2102E010220DE0102101
:104570004FF0000A00910BE010224FF0000A44F0C7
:1045800004040827009203E008224FF0000A00927A
:10459000C4F30252022A05D059F804CB0021032AA1
:1045A00008D009E009F1070121F00702F2E802C191
:1045B000914605E01FFA8CFC042A01D10CF0FF0C97
:1045C0004FF00008220728D5702806D0009B83F002
:1045D000100353EA0A0305D00EE040228DF80420B0
:1045E000012208E05CEA010206D030228DF80420A6
:1045F0008DF8050002229046009B83F0080353EAE1
:104600000A030AD15CEA010201D1620705D5302212
:104610008DF804204FF001087F1E582804D034A0E4
:1046200003900EA802900DE036A0F9E753466046CD
:10463000009AFBF777FD84460398825C0298401E3F
:10464000029002705CEA0100F0D1029806A9081AF3
:1046500000F1200A600702D524F4803400E001272D
:10466000574502DDA7EB0A0000E0002000EB0A013D
:10467000009005984144401A0590E00306D45B463B
:104680002146179A059800F0B3F90544002706E083
:1046900001A85A46C05D179990476D1C7F1C47457D
:1046A000F6DBE0030CD55B462146179A059800F02F
:1046B0009FF9054404E030205A46179990476D1C35
:1046C0000099481E00900029F5DC08E00298029944
:1046D0005A460078491C0291179990476D1CBAF10F
:1046E0000001AAF1010AF1DC65E1000009280100DE
:1046F0003031323334353637383961626364656658
:104700000000000030313233343536373839414219
:10471000434445460000000000F058F90544761C6B
:10472000307800287FF4ECAD19B02846BDE8F08F52
:10473000620700D4062709F1070222F0070CFCE803
:104740000223E14603F000485FEA080C02D00FF2B2
:10475000702C0DE05FEA045C02D50FF2682C07E0D4
:104760005FEAC47C02D00FF2602C01E0AFF2700C63
:104770004FF0FF3823F00043CDF850C065280CD02F
:1047800006DC452809D046281DD047283DD13DE00C
:10479000662818D067287ED138E00021112F01DB70
:1047A000112000E0781CCDE9000106A90EA8FFF752
:1047B000D5FCDDE90F010E9A03910021009207F16B
:1047C000010A04914DE04FF000400097CDE901103F
:1047D00006A90EA8FFF7C2FCDDE90F0203920E9BAB
:1047E00011990022DDF80CA00093049211B9791CF4
:1047F00000EB010AB7EB0A0004D4C0F1FF3007F167
:10480000010A0490AAEB0700019044E0012F00DAAE
:1048100001270021112F01DD112000E03846CDE9EC
:10482000000106A90EA8FFF799FCDDE90F010E9A19
:104830000391002104910092BA4621070CD40399F8
:10484000514500DA8A46BAF1010F05DD009AAAF156
:104850000101515C302908D0B84202DA10F1040F8E
:1048600006DA0121CDE9011015E0AAF10101E9E71D
:10487000002805DC049901440491AAEB000102E040
:10488000411C514500DD8A460499401A401C0190A4
:104890004FF000400290200704D40198504501DBFE
:1048A000CDF8048000208DF84F0002980DF14F07DD
:1048B000B0F1004F25D02B200E9002984FF0020847
:1048C00000280CDA404202902D200E9007E00A21C9
:1048D0000298FBF7C0FE3031029007F8011DB8F1D5
:1048E0000001A8F10108F2DC02980028EFD1791E3E
:1048F0000E980870307800F0200040F0450007F86E
:10490000020D12A8C01B00F107081498007800B12E
:10491000012000EB0A01019801EBE0710598414488
:10492000401A401E0590E00306D45B462146179AC4
:10493000059800F05DF805441498007818B15A46BF
:10494000179990476D1CE00324D55B462146179AC2
:10495000059800F04DF805441CE00498002807DB9A
:10496000DDE90301884203DD0098405C179901E00E
:10497000179930205A469047049805F10105401CCC
:1049800004900198401E019004D12E205A46179998
:1049900090476D1CBAF10001AAF1010ADDDC05E0C7
:1049A00017F8010B5A46179990476D1CB8F1000192
:1049B000A8F10108F4DC5B462146179A0598ABE69E
:1049C0002D0000002B000000200000002DE9F04128
:1049D000044600251E461746880404D405E03946DF
:1049E0002020B0476D1C641EF9D52846BDE8F08133
:1049F0002DE9F041044600251E469046C80301D526
:104A0000302700E02027880404D505E041463846D9
:104A1000B0476D1C641EF9D52846BDE8F081000042
:104A200010B5044601E0FFF755FB14F8010B0449EB
:104A30000028F8D1BDE810400A20FFF74BBB00006A
:104A40000000002008B50A46002100910146684692
:104A5000FBF798FE009808BD0040404040404040B1
:104A60004040414141414140404040404040404041
:104A700040404040404040404005020202020202E5
:104A80000202020202020202022020202020202034
:104A90002020200202020202020290909090909048
:104AA0001010101010101010101010101010101006
:104AB000101010100202020202028888888888887A
:104AC0000808080808080808080808080808080866
:104AD000080808080202020240000000594A0008C3
:104AE000000000000000000001020304060708099E
:104AF00000000000010203042A49444E3F002A52EC
:104B000053540053595374656D3A524553657400BC
:104B10002A54657374005B4C4C4F532044454255F6
:104B2000475D204C4C4F535F496E6974207C2020B8
:104B3000202020207C2020202020207C20202020BD
:104B40007C207C20202020200D005B4C4C4F5320EB
:104B500044454255475D204C4C4F535F496E697444
:104B6000207C2020202020207C2020202020207C31
:104B7000202020207C20202D2D2020200D005B4C8B
:104B80004C4F532044454255475D204C4C4F535F9A
:104B9000496E6974204820206520206C20206C20FC
:104BA000206F2020202D2D20202020202D2D202082
:104BB0000D005B4C4C4F532044454255475D204C03
:104BC0004C4F535F496E6974207C202020202020A8
:104BD0007C2020202020207C202020207C202020C1
:104BE00020207C200D005B4C4C4F53204552524FEF
:104BF000525D204C4C4F535F496E6974206D656D5A
:104C00004366672D3E706F6F6C53697A65203C3D3B
:104C10002073697A656F662875696E7433325F74C4
:104C200029210D005B4C4C4F53204552524F525D91
:104C3000204C4C4F535F53797374656D5F526573AD
:104C400065743A204E554C4C210D005B4C4C4F5333
:104C5000204552524F525D204C4C4F535F436D6480
:104C60005F506172616D496E7433323A20636F6ECA
:104C7000746578742D3E627566666572203D3D20D0
:104C80004E554C4C210D005B4C4C4F53204552521D
:104C90004F525D204C4C4F535F436D645F506172C7
:104CA000616D466C6F61743A20636F6E74657874E1
:104CB0002D3E627566666572203D3D204E554C4C1A
:104CC000210D005B4C4C4F53204552524F525D20FA
:104CD0004C4C4F535F436D645F506172616D426F26
:104CE0006F6C3A20506172616D65746572203D3D54
:104CF000204E554C4C210D005B4C4C4F53204552DF
:104D0000524F525D204C4C4F535F496E6974206D79
:104D1000656D4366672D3E70506F6F6C204E554C2D
:104D20004C210D005B4C4C4F53204552524F525D6D
:104D3000204C4C4F535F496E69742074696D6572E5
:104D400043425F6C697374206D616C6C6F63206E9D
:104D5000756C6C210D005B4C4C4F53204552524FEB
:104D6000525D204C4C4F535F496E697420657665E7
:104D70006E7443425F6C697374206D616C6C6F6319
:104D8000206E756C6C210D005B4C4C4F53204552CE
:104D9000524F525D204C4C4F535F496E6974206CEA
:104DA0006C5F6465766963655F6C697374206D61BF
:104DB0006C6C6F63206E756C6C210D005B4C4C4FFE
:104DC00053204552524F525D204C4C4F535F496E19
:104DD0006974206D73675F6C697374206D616C6CAE
:104DE0006F63206E756C6C210D005B4C4C4F532033
:104DF0004552524F525D204C4C4F535F496E69747F
:104E000020616C61726D5F6C697374206D616C6C94
:104E10006F63206E756C6C210D005B4C4C4F532002
:104E20004552524F525D204C4C4F535F436D645F6F
:104E3000506172616D436F7079546578743A205097
:104E40006172616D6574657220666F726D61742048
:104E50006572726F72210D0056322E302E30006B4B
:104E600041006D41006D46006D48006B56006D5667
:104E7000006B57006D57004D6F686D006B6F686D6C
:104E8000006D6F686D006B6D006D6D006D73004D92
:104E9000487A006B487A0000B84E000800000020F5
:104EA000400000003C410008F84E0008400000208F
:104EB000581600004C4100080000000000000000EF
:104EC00000127A00F84A0008A1220008034B0008EB
:104ED000012C0008104B0008252C0008FE4A000891
:104EE0009B220008964E000800000000FFFF010111
:084EF0001000000000000000AA
:04000005080000ED02
:00000001FF
