:020000040800F2
:10000000981A002001010008BD370008ED21000802
:10001000B9370008B9060008213E000800000000BA
:10002000000000000000000000000000C9370008C8
:10003000D506000800000000C5370008CD370008CD
:100040001B0100081B0100081B0100081B01000820
:100050001B0100081B0100081B0100081B01000810
:100060001B0100081B0100081B0100081B01000800
:100070001B0100081B010008BD060008C906000896
:100080001B0100081B0100081B0100081B010008E0
:100090001B0100081B0100081B0100081B010008D0
:1000A0001B0100081B0100081B0100081B010008C0
:1000B0001B0100081B0100081B0100081B010008B0
:1000C0001B0100081B0100081B0100081B010008A0
:1000D0001B010008053E00081B0100081B01000869
:1000E0001B0100081B0100081B010008DFF80CD0F1
:1000F00000F0B8FA00480047A53E0008981A002012
:100100000648804706480047FEE7FEE7FEE7FEE7B1
:10011000FEE7FEE7FEE7FEE7FEE7FEE7DD37000865
:10012000ED0000082DE9F05F0546002092469B4651
:1001300088460646814640241BE0284641464746FD
:10014000224600F04AF953465A46C01A914110D34C
:1001500011461846224600F031F92D1A67EB0108C6
:100160004F4622460120002100F028F917EB000934
:100170004E41201EA4F10104DFDC484631462A46E8
:100180004346BDE8F09F40EA01039B0703D009E026
:1001900008C9121F08C0042AFAD203E011F8013B73
:1001A00000F8013B521EF9D27047D2B201E000F8CC
:1001B000012B491EFBD270470022F6E710B513460B
:1001C0000A4604461946FFF7F0FF204610BD2DE908
:1001D000FE4F81EA030404F0004421F00041009442
:1001E0004FF0000B23F0004350EA01045ED052EAC6
:1001F00003045BD0C3F30A54C1F30A552C44A4F2A0
:10020000F3340194A0FB0254C1F3130141F48011B3
:10021000C3F3130343F4801301FB024400FB034EBA
:10022000840A970A44EA815447EA8357A4FB076883
:1002300002958D0A05FB07854FEA932C04FB0C54AD
:100240002705029D4FEA065847EA1637B5EB080521
:100250006EEB070C870E920E47EA811742EA831273
:10026000A7FB0201B6EB0B0164EB00042B0D43EA84
:100270000C335E1844EB1C50DA465146E7FB020192
:10028000C5F313044FEA0B3343EA14534FEA043225
:10029000019C43EA0603A4F10C040294009CCDE9FE
:1002A00000B400F0B9F803B0BDE8F08F00200146BB
:1002B000F9E72DE9F04D81EA030404F0004B21F049
:1002C000004514464FF0000A23F0004150EA0502B1
:1002D00020D054EA01021DD0C5F30A570246C5F3E7
:1002E0001303C1F31300C1F30A5640F4801543F41D
:1002F0008013A7EB0608101BD64608F2FD3873EBF7
:10030000050002D308F1010801E092185B41B8F141
:10031000000F03DA00200146BDE8F08D00204FF405
:100320008011064684460EE0171B73EB050705D3C4
:10033000121B63EB050306434CEA010C49084FEA24
:10034000300092185B4150EA0107EDD152EA0300F8
:1003500012D082EA040083EA0501084305D0101B8D
:10036000AB4106D20122002306E000224FF00043F9
:1003700002E06FF0010253101AEB06004CEB08513B
:1003800010EB0A0041EB0B01BDE8F04D00F035B871
:1003900030B50B46014600202022012409E021FA55
:1003A00002F59D4205D303FA02F5491B04FA02F552
:1003B0002844151EA2F10102F1DC30BD202A04DB25
:1003C000203A00FA02F1002070479140C2F1200368
:1003D00020FA03F3194390407047202A04DB203AA7
:1003E00021FA02F00021704721FA02F3D040C2F155
:1003F0002002914008431946704710B5141E73F14E
:10040000000408DA401C41F1000192185B411A43D4
:1004100001D120F0010010BD2DE9F04D92469B4620
:1004200011B1B1FA81F202E0B0FA80F220329046C6
:10043000FFF7C4FF04460F4640EA0A0041EA0B01F9
:1004400053465A46084313D0114653EA010019D0C7
:10045000C8F140025046FFF7C0FF05460E46504621
:1004600059464246FFF7AAFF084305D0012004E0A1
:1004700020463946BDE8F08D0020054346EAE07687
:100480002C4337430A986305E40AA0EB08000022D6
:10049000FD0A44EA47540A3002D500200146E9E744
:1004A000010510196941DDE9084500196941BDE8F8
:1004B000F04DA2E72DE9FE4F804681EA0300C00F10
:1004C0000C46009021F0004123F00045B8EB0200FB
:1004D000A94105D24046214690461C460B4602469D
:1004E00023F00040104347D0270DC7F30A00C3F3A1
:1004F0000A510290401A019040286BDAC3F31300AE
:1005000040F4801B0098924620B10023D2EB030AEE
:1005100063EB0B0B01985946C0F140025046FFF7C0
:100520004DFF06460D4650465946019A00F0B2F876
:1005300010EB08006141002487EA115284EAE77356
:100540001A4340D0009A62B3019A012A4FEA075237
:1005500015DC001B61EB02014FF0004202EA07527A
:10056000CDE90042001C41F5801132462B46FFF7D1
:1005700053FF03B0BDE8F08F40462146F9E7001B6A
:1005800061EB0201001C41F5801300185B4120184B
:10059000A2F5001747EB030140EAD570B6196D418B
:1005A00011E06D084FEA360645EAC0754FEA07527A
:1005B000001B61EB0201001C41F5801149084FEA64
:1005C00030000019514132462B4603B0BDE8F04FD0
:1005D000FFF713BF0098012240000023D0EB020276
:1005E00063EBE073009821464FEAE074B8EB00003B
:1005F00061EB0401E9E783F000435BE781F0004130
:1006000058E7C1F30A52C1F3130140F2FF3341F43A
:1006100080119A4202DA00200146704740F23343CB
:100620009A42A2F2334202DC5242FFF7D6BEFFF7F3
:10063000C5BE000030B5041E71F1000404DB4FF0AC
:100640000044404264EB0101141E73F1000405DB19
:100650001C464FF00043524263EB0403994208BF2B
:10066000904230BD1CB509480090094801900546EC
:10067000009C06E0E06840F0010394E8070098471A
:100680001034AC42F6D3FFF735FD0000CC4A000829
:10069000EC4A0008202A06DBCB17203A41FA02F088
:1006A00043EAE07306E041FA02F3D040C2F12002CF
:1006B0009140084319467047FEE7000040F204509D
:1006C000C2F2000000F08CB840F2C040C2F200005C
:1006D00000F086B870470000EFF3108072B600BFDC
:1006E000FEE70000014690F82100022816D10868B4
:1006F000D1E90FC3026822F00E020260026822F004
:1007000001020260012000FA03F2CCF8042081F813
:1007100021000020002281F82020704704208863F7
:100720000120002281F820207047000090F821105D
:10073000022923D10268116821F00E0111602F21D6
:100740001368C4F202018A4240F20401C4F20201B9
:1007500023F00103136015DD3023C4F202039A4233
:100760001CD04423C4F202039A421BD05823C4F283
:1007700002039A421CD14FF4803321E004218163AB
:10078000012070470823C4F202039A420ED01C23B2
:10079000C4F202039A420BD1102311E04FF480738C
:1007A0000EE000BF4FF480530AE000BF012307E0D2
:1007B00001F1680C4FF08073624508BF4FF480135D
:1007C0000B60012180F82110426B002180F820107D
:1007D00022B180B590470021BDE8804008467047AF
:1007E00010B5D0E90FCE0168DCF800300A6823FAB2
:1007F0000EF35C072AD512F0040427D00A6892068B
:1008000003D40A6822F004020A602F22C4F2020212
:10081000914240F20402C4F202025BDD3023C4F2D2
:100820000203994272D04423C4F20203994273D066
:100830005823C4F20203994240F07A804FF4802397
:100840001360C16A002940F098806FE09C0727D5AB
:1008500012F0020424D00A68920606D40A6822F034
:100860000A020A60012280F821202F22C4F202022B
:10087000914240F20402C4F202023BDD3023C4F292
:100880000203994260D04423C4F2020399425FD02C
:100890005823C4F20203994260D14FF4003365E05B
:1008A0001B0743D512F0080208BF10BD0A6822F0EA
:1008B0000E020A60012101FA0EF2CCF804208163D5
:1008C00080F82110016B0022002980F8202054D1EB
:1008D0002CE000BF0823C4F20203994222D01C235B
:1008E000C4F20203994223D140231360C16A002954
:1008F00043D11BE00823C4F2020399422CD01C23ED
:10090000C4F20203994229D120232FE04FF48063DF
:100910001360C16A89BB09E04FF480431360C16A68
:1009200059BB03E004231360C16A31BB10BD00BF93
:1009300002F168044FF08063A14208BF4FF48003C6
:100940001360C16AC9B9F1E74FF400730EE000BF4C
:100950004FF400530AE000BF022307E002F16804ED
:100960004FF00073A14208BF4FF400131360816A77
:100970000022002980F82020D8D0BDE81040084788
:10098000014600284FF0010008BF70472DE9F047ED
:100990000A684FF6F873CBF6FD7302EB030C4CF6C6
:1009A000CD43CCF6CC43ACFB033C6FF003070026F1
:1009B00007EA9C07C4F2020601F10C0AC1E90F67BD
:1009C0000227D1E9013E9AE83004D1E9069881F87E
:1009D0002170176843F6F076B7433B4343EA0E03B2
:1009E00023432B4343EA0A0343EA090343EA080388
:1009F000136000228A6381F8210081F82020002002
:100A0000BDE8F0477047000090F820C0BCF1010F2E
:100A100004BF02207047F0B54FF0010E80F820E0CF
:100A200090F821C0BCF1010F26D14FF0020C80F8E4
:100A300021C04FF0000CC0F838C0D0E900C4C56A2E
:100A4000C66BDCF80070102C27F00107CCF80070A2
:100A5000006C0EFA00F070600846CCF8043004BF59
:100A600010460A46CCF80800CCF80C20DCF8000050
:100A700045B140F00E000DE0002180F8201002206A
:100A8000F0BD00BF20F00400CCF80000DCF800004E
:100A900040F00A00CCF80000DCF8000040F0010053
:100AA000CCF800000020F0BDB0B5044600F01EF9FF
:100AB000054640F20400C2F200000078611C18BF35
:100AC000044400BF00F012F9401BA042FAD3B0BDAD
:100AD0002DE9F04F82B00E68002E00F0FD8041F24B
:100AE0000042C4F20102042340F2004E904208BFCB
:100AF00003234FF6FF7CC4F2010E00930024012370
:100B0000C1F2100C4FF0000A4FF0000944E000BFA2
:100B1000012704F00C030F229A402BEA020207FA85
:100B200003F34FEA9A051A4346F825204E6840F22F
:100B30000C45F202DEF8082054BF22EA080242EA1D
:100B40000802C4F20105CEF808202A68B30254BF97
:100B500022EA080242EA08022A60B303DEF804200F
:100B600054BF22EA080242EA0802F303CEF8042046
:100B7000DEF800204FF0010354BF22EA080242EAE7
:100B80000802CEF800200E680AF1010A36FA0AF2CD
:100B900004F1040400F0A08003FA0AFB16EA0B0833
:100BA000F1D04E68664511DC122E55D8DFE806F00C
:100BB000340A44485454545454545454545454547B
:100BC000544C5000D1F80C9046E000BF4FF6FF7235
:100BD000C1F2210296420FDC0022C1F211029642BC
:100BE0001AD00022C1F21202964215D00022C1F2A0
:100BF0002102964210D02FE00022C1F2220296423A
:100C00000AD00022C1F23102964205D00022C1F280
:100C10003202964220D100BF8A684AB1012A14BF2D
:100C2000C0F814B0C0F810B04FF0080914E000BFCD
:100C30004FF0040910E000BFCA6802F108090BE098
:100C40004FF0000908E000BFCA6802F1040903E0A0
:100C5000CA6802F10C0900BF22460646B8F5807F3B
:100C600024BF203A043637680F25954027EA05054A
:100C700009FA02F22A433260CA79D2067FF583AFBD
:100C800041F21803C4F202031A68AEF57E7642F010
:100C900001021A601A6802F001020192019A2AF018
:100CA000030256F802B040F60002C4F2010290427C
:100CB00010D040F60042C4F2010290423FF428AF47
:100CC00041F20002C4F20102009F904208BF0227D5
:100CD0001FE700BF00271CE702B0BDE8F08F00004F
:100CE000002A08BF090401617047000041F29460C6
:100CF000C2F200000068704740F2040041F29461C3
:100D0000C2F20000C2F2000100780A6810440860D4
:100D10007047000080B542F20000C4F20200016892
:100D200041F010010160032000F08CF8002000F079
:100D300005F800F027F8002080BD000070B540F2F3
:100D40000406C2F2000640F20C013278C2F2000141
:100D50004FF47A730968B3FBF2F20446B1FBF2F187
:100D6000084600F0A7FB0F2C4FF0010508D838B952
:100D70004FF0FF3021460022002500F037F8746064
:100D8000284670BD82B041F21800C4F2020001682A
:100D9000022241F001010160016801F001010191AD
:100DA0000199416841F080514160406800F08050F5
:100DB000009000980420C4F20100016862F31A61F7
:100DC000016002B070470000002848BF704700F083
:100DD0001F01012202FA01F11C2202EAD0004EF2A8
:100DE0000012CEF2000281507047000010B54EF69E
:100DF0000C5CCEF2000CDCF80030C3F3022E8EF057
:100E00000704042C28BF0424BEF103034FF0FF3E67
:100E10000EFA04F438BF0023A14399400EFA03F3FD
:100E20009A43114300F00F0200F160430901043AB4
:100E300003F564436244002848BF02F10C031970B3
:100E400010BD00004EF60C51CEF200010A684FF6BC
:100E5000FF031A4060F30A2242F0806040F0FD7008
:100E60000860704770470000002804BF01207047E9
:100E70002DE9F04381B042F20008C4F202080446B2
:100E8000D8F800000D4600F0070088420CD2D8F8D0
:100E9000000020F007002843C8F80000D8F8000040
:100EA00000F00700A8426ED1206841F204098107D2
:100EB000C4F2020917D5410705D5D9F8001041F44D
:100EC000E061C9F80010010705D5D9F8001041F418
:100ED0006051C9F80010D9F80010A26821F0F001A3
:100EE0001143C9F80010C00744D1D8F8000000F041
:100EF0000700A8420CD9D8F8000020F007002843CA
:100F0000C8F80000D8F8000000F00700A8423AD165
:100F10002068410707D5D9F80010E26821F4E061A4
:100F20001143C9F80010000708D5D9F8000021695D
:100F300020F4605040EAC100C9F80000D9F8001060
:100F400041F6003001F00C02042AC0F2B70059D07B
:100F5000082A45D144F65203C1F38342C0F6000388
:100F60009A5CC90342D440F60010C0F23D005043E1
:100F700048E000BF606802280AD001282AD159F849
:100F8000041C890308D4012001B0BDE8F08300BF30
:100F900059F8041C8901F6D5D9F8001021F0030195
:100FA0000843C9F80000FFF7A1FE064641F2883762
:100FB000D9F80000616800F00C00B0EB810F94D00C
:100FC000FFF794FE801BB842F2D9032001B0BDE8C0
:100FD000F08300BF59F8041C8907D4D5DCE700BFB3
:100FE00041F20020C0F27A000CE000BFD9F80010F6
:100FF00044F65003C1F34041C0F60003595C50432E
:10100000B0FBF1F0D9F8001044F63802C1F3031137
:10101000C0F60002515C40F20C0220FA01F140F2ED
:101020000800C2F200000068C2F200021160FFF77F
:1010300085FE002001B0BDE8F08300004C20C4F222
:10104000422001210160704740F20C0041F204018E
:10105000C2F20000C4F202010068096844F64802C6
:10106000C1F30221C0F60002515CC8407047000085
:1010700040F20C0041F20401C2F20000C4F202018D
:101080000068096844F64802C1F3C221C0F60002B4
:10109000515CC8407047000010B541F20804C4F22A
:1010A00002042068000658BF10BDFFF7DBFE802059
:1010B000A07010BD002804BF012070472DE9F04149
:1010C00082B00446007841F20006C007C4F202066E
:1010D0000CD0706800F00C00042840F0818030686B
:1010E000800303D56068002800F04E8120788007D7
:1010F0001BD5706810F00C0F09D0706800F00C0060
:10110000082840F08B807068C00300F18780306849
:10111000800703D52069012840F036813068616975
:1011200020F0F80040EAC10030602078000713D4B6
:10113000207840072CD4E569002D00F020817068EC
:1011400000F00C00082840F0AF80012D40F00C8129
:10115000012002B0BDE8F081A069002800F08C8079
:101160000020C4F242200121C0F88014FFF7BEFD28
:10117000054600BF706A800700F1BA80FFF7B6FD30
:10118000401B0228F6D9032002B0BDE8F08100BF61
:10119000F0695FEAC00808D4F06940F08050F0615F
:1011A000F06900F080500090009847F20007C4F208
:1011B00000073868C0054DD4386840F48070386046
:1011C000FFF794FD054600BF3868C00542D4FFF71D
:1011D0008DFD401B6428F7D9032002B0BDE8F081E3
:1011E000706800F00C00082803D17068C0033FF558
:1011F00076AF6068002800F00981B0F5A02F00F0FC
:101200001D81B0F5803F00F01D81306820F48030F2
:101210003060306820F4802017E100BF206900288A
:1012200040F20000C4F2422000F08C8001210160F5
:10123000FFF75CFD054600BF306880073FF56EAFE5
:10124000FFF754FD401B0228F6D9032002B0BDE889
:10125000F08100BFE068002800F09A80052800F0C7
:10126000B180012800F0B280306A20F001003062C5
:10127000306A20F00400ACE00020C4F242200021DB
:10128000C0F88014FFF732FD054600BF706A800782
:101290007FF54EAFFFF72AFD401B0228F6D9032049
:1012A00002B0BDE8F08100BF0027C4F24227002051
:1012B0003866FFF71BFD022D05460DD13068800111
:1012C00040F1D680FFF712FD401B02284FF00300CB
:1012D000F4D902B0BDE8F081306880014FD5FFF746
:1012E00005FD401B02284FF00300F5D9F1E700BFD0
:1012F00040F20C00C2F20000006844F6D351C1F283
:101300006201A0FB0101480A019000BF00BF0198E3
:10131000411E002801913FF40BAF00BF0198411E10
:10132000002801913FF404AF00BF0198411E00283E
:1013300001913FF4FDAE00BF0198411E00280191CC
:10134000E4D1F5E600210160FFF7D0FC054600BFBF
:10135000306880077FF5E9AEFFF7C8FC401B022824
:101360004FF00300F4D9B4E77068216A00F48032CA
:101370008A4209D1616A00F47010884204D10020C9
:1013800002B0BDE8F08100BF012002B0BDE8F081ED
:10139000306A20F001003062306A20F004003062D0
:1013A000FFF7A4FC054641F2883700BF306A80078A
:1013B00022D5FFF79BFC401BB8424FF00300F5D944
:1013C00087E700BF306A40F004003062306A40F0C6
:1013D00001003062FFF78AFC054641F2883700BF02
:1013E000306A800708D4FFF781FC401BB842F7D968
:1013F000032002B0BDE8F081B8F1000F3FF59BAECD
:10140000F06920F08050F06195E600BF306820F46C
:1014100080303060306820F480203060FFF766FC58
:10142000054600BF306880037FF560AEFFF75EFCC5
:10143000401B64284FF00300F4D94AE7306840F4B9
:1014400080203060306840F480303060FFF74EFC20
:10145000054600BF306880033FF548AEFFF746FC05
:10146000401B6428F6D9032002B0BDE8F08100BF1C
:10147000206AB0F5803F05D17168A26821F400317F
:10148000114371607168626A21F474111143084359
:10149000706001203866FFF729FC0446306880013F
:1014A0003FF56DAFFFF722FC001B02284FF0030051
:1014B000F4D90EE7411E0020B0EB116F1CBF0120D4
:1014C00070474EF21002CEF2000251604EF62351E8
:1014D000CEF20001F0230B7007219060116070477D
:1014E0007047000010B504460068416994F8412037
:1014F000212A56D111F0800153D000BF206850E856
:10150000050F216820F0800041E80502DAB120686B
:1015100050E8050F216820F0800041E8050292B1F3
:10152000206850E8050F216820F0800041E805029E
:101530004AB1206850E8050F216820F0800041E89A
:101540000502002ADAD1A06B002818BFFFF7CAF8FD
:10155000206850E8030F216820F0C00041E8030232
:10156000DAB1206850E8030F216820F0C00041E89C
:10157000030292B1206850E8030F216820F0C000F8
:1015800041E803024AB1206850E8030F216820F0C7
:10159000C00041E80302002ADAD1202084F841008B
:1015A0002068406994F84210222940F0A78010F08A
:1015B000400000F0A38000BF206850E8050F2168BC
:1015C00020F0400041E80502DAB1206850E8050F3C
:1015D000216820F0400041E8050292B1206850E8FF
:1015E000050F216820F0400041E805024AB120685B
:1015F00050E8050F216820F0400041E80502002A6C
:10160000DAD1E06B002818BFFFF76CF8206850E8CB
:10161000030F216820F4907041E80302BAB32068F8
:1016200050E8030F216820F4907041E8030272B380
:10163000206850E8030F216820F4907041E803020D
:101640002AB3206850E8030F216820F4907041E825
:101650000302002ADAD11AE0206850E8050F216859
:1016600020F0010041E80502DAB1206850E8050FDA
:10167000216820F0010041E8050292B1206850E89D
:10168000050F216820F0010041E805024AB12068F9
:1016900050E8050F216820F0010041E80502002A0A
:1016A000DAD1206B012824D1206850E8030F21688B
:1016B00020F0100041E80302DAB1206850E8030F7F
:1016C000216820F0100041E8030292B1206850E840
:1016D000030F216820F0100041E803024AB120689E
:1016E00050E8030F216820F0100041E80302002AAF
:1016F000DAD1202084F8420000202063002010BDB1
:1017000070470000B0B582B0044600680168C36845
:10171000426901F02F05202D03F0200506D12DB1DF
:10172000204602B0BDE8B04002F0ECBA5FEA017CAE
:101730001EBF02F0010E03F4907212EB0E0243D1B1
:10174000226BCD0618D5012A16D113F0100213D042
:10175000002101910168019141680191019940695D
:1017600040063BD4A08DE18DE28D002A18BF88424F
:1017700040F0F28102B0B0BD0A0640F1E78013F0FC
:10178000800200F0E38094F841102129F2D1A16891
:10179000B1F5805F03D12169002900F06382216ADD
:1017A0004A1C226209784160E18C01390A04E18413
:1017B000E0D1C16821F08001C160C16841F0400101
:1017C000C16002B0B0BD00BFCA0718BF13F4807279
:1017D00040F0D0804A0700F1D380D8E0E06B016888
:1017E00049688AB2002AC5D0A38D9A42C2D2E18547
:1017F0008069202800F09E80206850E8030F21684F
:1018000020F4807041E80302DAB1206850E8030F49
:10181000216820F4807041E8030292B1206850E80A
:10182000030F216820F4807041E803024AB1206868
:1018300050E8030F216820F4807041E80302002A79
:10184000DAD1206850E8050F216820F0010041E856
:101850000502C2B3206850E8050F216820F001009E
:1018600041E805027AB3206850E8050F216820F0AE
:10187000010041E8050232B3206850E8050F2168F5
:1018800020F0010041E80502002ADAD11BE000BF88
:10189000206850E8050F216820F0400041E805026B
:1018A000DAB1206850E8050F216820F0400041E8D7
:1018B000050292B1206850E8050F216820F0400031
:1018C00041E805024AB1206850E8050F216820F080
:1018D000400041E80502002ADAD1202084F84200C5
:1018E00000202063206850E8030F216820F01000DA
:1018F00041E80302DAB1206850E8030F216820F0C4
:10190000100041E8030292B1206850E8030F2168FB
:1019100020F0100041E803024AB1206850E8030FAC
:10192000216820F0100041E80302002ADAD1E06BC0
:10193000FEF7D8FE02206063A08DE18D401A81B2CF
:10194000204602B0BDE8B040FFF7CABD49067FF5AA
:1019500011AF13F040013FF40DAFC16821F0400119
:10196000C1602021204684F8411002B0BDE8B0409B
:1019700000F03ABC626C42F0010262644A0706D58C
:10198000BEF1000F03D0626C42F0020262648A076B
:1019900006D5BEF1000F03D0626C42F0040262640F
:1019A000BCF1000F06D55EEA050203D0626C42F07E
:1019B00008026264626C002A3FF4DCAE890604D53A
:1019C0001DB1204602F09EF920684069616C00F06C
:1019D000400001F00801401800F0B680206850E88F
:1019E000030F216820F4907041E80302BAB3206825
:1019F00050E8030F216820F4907041E8030272B3AD
:101A0000206850E8030F216820F4907041E8030239
:101A10002AB3206850E8030F216820F4907041E851
:101A20000302002ADAD11AE0206850E8050F216885
:101A300020F0010041E80502DAB1206850E8050F06
:101A4000216820F0010041E8050292B1206850E8C9
:101A5000050F216820F0010041E805024AB1206825
:101A600050E8050F216820F0010041E80502002A36
:101A7000DAD1206B012824D1206850E8030F2168B7
:101A800020F0100041E80302DAB1206850E8030FAB
:101A9000216820F0100041E8030292B1206850E86C
:101AA000030F216820F0100041E803024AB12068CA
:101AB00050E8030F216820F0100041E80302002ADB
:101AC000DAD1202084F84200002020632068406999
:101AD000400640F1C180206850E8050F216820F0E1
:101AE000400041E80502DAB1206850E8050F21689E
:101AF00020F0400041E8050292B1206850E8050F4F
:101B0000216820F0400041E805024AB1206850E811
:101B1000050F216820F0400041E80502002ADAD1D3
:101B2000E06B002800F0988043F60521C0F6000124
:101B30004163FEF7FBFD00283FF41CAEE06B416BF8
:101B400002B0BDE8B04008472046FFF7D9FD0020AD
:101B5000606402B0B0BD00BF401A00BF216851E808
:101B6000031F226821F4907142E80313BBB321687C
:101B700051E8031F226821F4907142E8031373B304
:101B8000216851E8031F226821F4907142E8031391
:101B90002BB3216851E8031F226821F4907142E8B9
:101BA0000313002BDAD11AE0216851E8051F2268DF
:101BB00021F0010142E80513DBB1216851E8051F5E
:101BC000226821F0010142E8051393B1216851E830
:101BD000051F226821F0010142E805134BB121687D
:101BE00051E8051F226821F0010142E80513002B8E
:101BF000DAD1202184F8421000212163216851E8C4
:101C0000031F226821F0100142E80313DBB12168B1
:101C100051E8031F226821F0100142E8031393B139
:101C2000216851E8031F226821F0100142E80313E4
:101C30004BB1216851E8031F226821F0100142E8EE
:101C40000313002BDAD1022281B22046626302B074
:101C5000BDE8B040FFF744BC204602B0BDE8B0404C
:101C6000FFF74EBD216A31F8022B6FF35F2242600D
:101C7000216299E510B582B0006843F60001C4F214
:101C80000101884202D002B010BD00BF40F24850AE
:101C9000C2F20000006841F290540168C2F20004F0
:101CA00009071DD40168C906EDD50021019101681D
:101CB000019140680190019840F24850C2F2000042
:101CC000FFF710FC40F2C040C2F20000006840681C
:101CD000C0F1FF002080012084F8010119E000BF5D
:101CE000002101910268019242680192019A0191DA
:101CF0000268019242680192019A01910168019182
:101D000040680190019840F24850C2F20000FFF78D
:101D1000E9FB40F24850A11CC2F20000FF2202B0D1
:101D2000BDE8104000F0F0B8002804BF0120704763
:101D300010B5044690F8410028B9002084F840000E
:101D4000204600F063F8242084F841002068D4E99C
:101D50000212C36823F40053C360036923F44053A1
:101D60001A430261D4E904231143C268194341F2C2
:101D70000C639A431143C1604169A26921F4407127
:101D8000114343F60002C4F201029042416103D0C4
:101D9000FFF75AF902E000BFFFF76AF9D4E9002320
:101DA000192148439900B0FBF1F048F21F5CC5F2DD
:101DB000EB1CA0FB0C314FF69C734909C0F6FF7376
:101DC00001FB0300322303EB0010A0FB0C03F02007
:101DD00000EA531000EB0110C3F343110844906074
:101DE0001069202120F490401061506920F02A00F1
:101DF0005061D06840F40050D0600020606484F8E6
:101E0000411084F84210606310BD00002DE9F043DA
:101E100085B040F600050446C4F20105006805F5EA
:101E2000405100278842039702D005B0BDE8F083F7
:101E300041F21800C4F20200016801AE41F4804191
:101E40000160016840F2440801F48041009100996A
:101E50000168C4F2020841F00401016000683146E3
:101E600000F00400009000984FF4007001900220F0
:101E70000290032004902846FEF72AFE4FF480606B
:101E8000CDE90107284631460397FEF721FE40F2CF
:101E9000C04508F11400C2F20005802620214FF44D
:101EA0008059C5E900072846C5E90276C5E90477E7
:101EB000C5E90619FEF764FD002818BFFEF70CFC03
:101EC000E5636C6240F20455C2F200051020002167
:101ED000C5E900802846C5E90216C5E90411C5E92F
:101EE0000619FEF74DFD002818BFFEF7F5FB25206B
:101EF00000210022A5636C62FEF778FF2520FEF723
:101F000063FF05B0BDE8F08370B582B0044690F879
:101F1000420020280AD113460A4600294FF001004A
:101F200018BF002B06D102B070BD00BF022002B066
:101F300070BD00BF002522202563A262A3856564D1
:101F400084F842002168E06B43F68D3C43F6ED4E89
:101F500043F61126C0F6000CC0F6000EC0F60006CF
:101F60000431C0E90ACEC0E90C65FEF74DFD0195CC
:101F7000206801680191406801900198206928B3A8
:101F8000206850E8030F216840F4807041E80302A4
:101F9000E2B1206850E8030F216840F4807041E806
:101FA00003029AB1206850E8030F216840F4807062
:101FB00041E8030252B1206850E8030F216840F461
:101FC000807041E80302002ADAD100BF206850E89F
:101FD000050F216840F0010041E80502BAB320680E
:101FE00050E8050F216840F0010041E8050272B396
:101FF000206850E8050F216840F0010041E8050223
:102000002AB3206850E8050F216840F0010041E83C
:102010000502002ADAD11AE0206850E8050F21688D
:1020200040F0400041E80502DAB1206850E8050FB1
:10203000216840F0400041E8050292B1206850E874
:10204000050F216840F0400041E805024AB12068D0
:1020500050E8050F216840F0400041E80502002AE1
:10206000DAD1002002B070BD704700007047000058
:102070002DE9F041044690F8410020281CBF0220C1
:10208000BDE8F0810D4600294FF0010000F0AA8064
:102090001646002A08BFBDE8F081002060642120B8
:1020A000984684F84100FEF721FEA684E684A168E4
:1020B0000646B1F5805F02D12069002862D02F4624
:1020C0000025E08C002861D018F1010018D0B8F18B
:1020D000000F37D1216808E017F8010B4860E08C49
:1020E0000138E084E08C002851D00868000673D5E0
:1020F000002FF1D135F8020B00276FF35F20EDE7D9
:10210000216802E00868000609D40868000606D4C1
:10211000086800065CBF08685FEA0060F2D51FB17E
:1021200017F8010B05E000BF35F8020B00276FF32D
:102130005F204860E08C0138E084E08C0028E4D126
:1021400025E000BF216800BF0868000608D4FEF73C
:10215000CDFD801B404541D82168C868F4E700BF29
:1021600017B117F8010B04E035F8020B00276FF3E5
:102170005F204860E08C0138E084E08C0028E3D1E7
:1021800005E000BF0027E08C00289DD12168086889
:1021900040061FD4B8F1000F1ED018F101000FD176
:1021A0000868400616D40868400613D4086840063C
:1021B00010D4086840064FF00000F1D50FE000BFD2
:1021C000FEF794FD801B404508D82068C168006870
:1021D0004006F5D5002002E0FEF788FD032020210F
:1021E00084F84110BDE8F08170470000FEE7000070
:1021F00000280FBF4FF0FF3007C8511A084470473E
:1022000000280EBF4FF0FF3003C8081A70470000C7
:1022100010B52AB312F0030322D14FF0553303EA6D
:102220005203D31A4FF0333404EA930423F0CC332F
:10223000234403EB131323F0F0334FF001346343D3
:102240001B0E022B0CD289B10024C0E90044C0E966
:10225000022108461146FDF7AFFF204610BD00BF22
:1022600005A002F0D7FA052010BD00BF0EA002F0B5
:10227000D1FA022010BD00BF5B4C4C4F5320455299
:10228000524F525D204C4C4F535F4649464F5F4979
:102290006E69742073697A6520666F726D6174204F
:1022A0006572726F72210D005B4C4C4F532045528A
:1022B000524F525D204C4C4F535F4649464F5F4949
:1022C0006E697420627566666572206E756C6C212D
:1022D0000D0000002DE9F04381B0002818BF00294F
:1022E00008D13FA002F096FA4FF0000E704601B000
:1022F000BDE8F0839646002AF3D08268D0E90063F7
:10230000D21A3244724538BF9646BEF1000F61D0F2
:102310000EF0030C5FEA9E044FF000022FD0A2EBF8
:10232000840801F101096FF0030400BFD0E9022520
:1023300009EB0406F778013A1A40AF54051D2CCD7D
:10234000013B0132426037791A40AF54051D2CCD54
:10235000013B0132426077791A40AF54051D2CCD04
:10236000013B01324260B6791A40AE5442680434EF
:10237000531C08EB040204324360D7D1221DBCF188
:10238000000FB3D0D0E902568C5C013D2B40F454D1
:102390004368BCF1010F03F101034360A6D0D0E90B
:1023A000024511444A78013C2340EA544268BCF19A
:1023B000020F02F10102426098D0D0E90237897819
:1023C000013B1A40B954416801314160704601B087
:1023D000BDE8F0834FF0000E704601B0BDE8F08319
:1023E0005B4C4C4F53204552524F525D204C4C4F4A
:1023F000535F4649464F5F496E7075742070617235
:1024000061206572726F72210D0000002DE9F041AC
:10241000002818BF002905D13AA002F0FBF90020DE
:10242000BDE8F0819646002AF6D0D0E90032D21AF3
:10243000724538BF9646BEF1000FF0D00EF0030C87
:102440005FEA9E044FF000022FD0A2EB84084D1CDF
:102450006FF00304D0E90267013E3340FB5C2E19A4
:10246000F3700368D0E902720133013F03603B401F
:10247000D25C043432710268D0E902370132013B88
:1024800002601A40BA5C72710268D0E90237013208
:10249000013B02601A40BA5CB2710268531C08EB3F
:1024A000040204320360D5D1221DBCF1000F25D0F7
:1024B000D0E90245BCF1010FA4F1010403EA0403D1
:1024C000EB5C8B54036803F10103036016D0D0E981
:1024D00002451144013C2340EB5CBCF1020F4B7000
:1024E000026802F10102026008D0D0E90237013B24
:1024F0001A40BA5C8A700168013101607046BDE81B
:10250000F08100BF5B4C4C4F53204552524F525DFF
:10251000204C4C4F535F4649464F5F4F7574707562
:10252000742070617261206572726F72210D0000FB
:102530002DE9F04F85B040F2180AC2F2000ACAF83D
:102540001800D1E900011568CAE9070192F8069060
:1025500092F80780107A547AB2F804B08AF80090A2
:102560008AF804808AF808008AF80C40CAF82450D7
:10257000AAF810B055B1BBF1040F0FD844F666109D
:10258000C0F6000002F046F9FEE700BF44F6A410D2
:10259000C0F6000002F03EF9FEE700BF0390A8205D
:1025A00009FB00F1481E80B2584561D28A08B2EB9F
:1025B0009B0F5DD24FEA9B0002902BF00300284452
:1025C00040F2FF0E40F2AC0C0490CFF6007ECCF649
:1025D000005C28460094036803EA0E0666450BD1AA
:1025E000C3F30F2300EB83000430049F00EB82034E
:1025F000BB42F0D33CE000BF00230026C41867684C
:1026000007EA0E07674525D046F00107BFB297429B
:102610003AD2A76807EA0E0767451DD046F00207C1
:10262000BFB2974230D2E76807EA0E07674517D076
:1026300046F00307BFB2974226D2276907EA0E0782
:10264000674511D00436B7B2974203F11003D5D3D2
:102650001AE000BF201DC8E704F10800C5E700BF6D
:1026600004F10C00C1E700BF04F11000BDE700BF9A
:102670000020CAF8280044F6D010C0F6000002F08E
:10268000C9F800BFFEE700BF4CEA022240F8042B65
:102690000195CAF82800FDF78FFD4FF0FF3000EBE1
:1026A0008900FF2540F2AC0C80B2CFF60075CCF665
:1026B000005C584550D202984FEA8901B0EB910F67
:1026C0004AD901988A08036803EA050767450BD1D0
:1026D000C3F30F2300EB83000430049F00EB82035D
:1026E000BB42F0D338E000BF00230026C41867685F
:1026F0002F40674522D046F00107BFB2974237D23C
:10270000A7682F4067451BD046F00207BFB297422B
:102710002ED2E7682F40674516D046F00307BFB2B8
:10272000974225D227692F40674511D00436B7B2AA
:10273000974203F11003D9D31AE000BF201DCCE764
:1027400004F10800C9E700BF04F10C00C5E700BFB1
:1027500004F11000C1E700BF0020CAF82C0044F6C5
:102760000220C0F6000002F055F800BFFEE700BFEF
:102770004CEA022240F8042BCAF82C00FDF71CFD9D
:1027800008EB48004FF0FF3808EBC00189B259450B
:102790004FEAC0015AD20298B0EB910F56D9019B73
:1027A000AC2540F2FF0C8A08CCF60055CFF6007C31
:1027B000186800EA0C07AF420CD1C0F30F2003EBFE
:1027C0008000031D049F03EB8200B8424FF000001D
:1027D000EED342E0002000261C18676807EA0C07C9
:1027E000AF4225D046F00107BFB2974230D2A7686A
:1027F00007EA0C07AF421DD046F00207BFB297426E
:1028000026D2E76807EA0C07AF4217D046F0030765
:10281000BFB297421CD2276907EA0C07AF4211D01A
:102820000436B7B2974200F11000D5D310E000BFD4
:10283000231DC7E704F10803C4E700BF04F10C033C
:10284000C0E700BF04F11003BCE700BF002004E0B4
:1028500045EA022043F8040B1846CAF83000FDF799
:10286000ABFC039908EBC10080B258454FEAC101A7
:102870005AD20298B0EB910F56D9019BAC2540F289
:10288000FF0C8A08CCF60055CFF6007C186800EAE9
:102890000C07AF420CD1C0F30F2003EB8000031DE7
:1028A000049F03EB8200B8424FF00000EED342E0F9
:1028B000002000261C18676807EA0C07AF4225D0E5
:1028C00046F00107BFB2974230D2A76807EA0C076B
:1028D000AF421DD046F00207BFB2974226D2E7684A
:1028E00007EA0C07AF4217D046F00307BFB2974282
:1028F0001CD2276907EA0C07AF4211D00436B7B2E1
:10290000974200F11000D5D310E000BF231DC7E7A8
:1029100004F10803C4E700BF04F10C03C0E700BFE3
:1029200004F11003BCE700BF002004E045EA0220E8
:1029300043F8040B1846CAF83400FDF73DFC009A32
:10294000342151434A1E40F2FF0C0198AC2492B24C
:10295000CFF6007CCCF600545A4551D2029AB2EB25
:10296000910F4DD98D08026802EA0C03A3420BD1E6
:10297000C2F30F2200EB8202101D049B00EB8502C4
:102980009A42F0D33CE000BF0022002387187E6803
:1029900006EA0C06A64225D043F00106B6B2AE42C6
:1029A0003AD2BE6806EA0C06A6421DD043F00206E3
:1029B000B6B2AE4230D2FE6806EA0C06A64217D086
:1029C00043F00306B6B2AE4226D23E6906EA0C06D2
:1029D000A64211D004339FB2AF4202F11002D5D308
:1029E0001AE000BF381DC8E707F10800C5E700BFBF
:1029F00007F10C00C1E700BF07F11000BDE700BF01
:102A00009AF80C200020CAF838005AB11AA001F038
:102A100001FF00BFFEE700BF44EA052240F8042B97
:102A2000CAF83800FDF7C8FB44F6FE00C0F6000007
:102A300001F0F0FE44F66200C0F6000001F0EAFE8C
:102A400044F6CA00C0F6000001F0E4FE44F632107D
:102A5000C0F6000001F0DEFE44F69600C0F600006D
:102A600001F0D8FE44F6302110A0C0F6000105B0F8
:102A7000BDE8F04F01F054BA5B4C4C4F5320455227
:102A8000524F525D204C4C4F535F496E6974206C1D
:102A90006C5F6465766963655F6C697374206D61F2
:102AA0006C6C6F63206E756C6C210D005B4C4C4F31
:102AB000532044454255475D204C4C4F535F496E6F
:102AC0006974204C4C4F532076657273696F6E3A6F
:102AD0002025730D0A000000F0B583B00C4608995C
:102AE00040F29007C2F20007002B7880F96018BF0F
:102AF000002A07D144F6A120C0F6000001F08AFEAA
:102B0000FEE700BF09980028F4D00A990029F1D007
:102B1000B880D0001D463A70F98000F00DFDB86015
:102B200040B33878C600304600F006FD386148B33F
:102B300029463246FDF727FB387800EB4000850038
:102B4000284600F0F9FC786110B32946FDF734FB04
:102B5000788800F079FA42F60543C0F60003CDE923
:102B60000001204601210122029300F0A1FC03B0E4
:102B7000F0BD00BF44F66F20C0F6000001F04AFE31
:102B8000FEE700BF12A001F045FE00BFFEE700BF58
:102B900002A001F03FFE00BFFEE700BF5B4C4C4FC0
:102BA00053204552524F525D204C4C4F535F4C4581
:102BB000445F496E69742046534D5F76616C75655C
:102BC000206D616C6C6F63206E756C6C210D000064
:102BD0005B4C4C4F53204552524F525D204C4C4F52
:102BE000535F4C45445F496E6974206B6579436F50
:102BF0006E666967206D616C6C6F63206E756C6CBE
:102C0000210D00002DE9F04740F2900AC2F2000ABF
:102C10009AF800004FF0000900288AF8019008BFD8
:102C2000BDE8F087DAF810104FF0010800220AE042
:102C300086F8009001329AF80000D3B283428AF8F5
:102C4000012080F09180D0B251F83030002BF1D0CB
:102C500001EBC0035F68002FECD0DAF8143000EB12
:102C6000400613F8265003EB8606012D14D0002DE4
:102C7000DED1334603F8019F83F8099051F8300004
:102C800000683840B842C3F803001CBF86F80080D3
:102C900083F80080CEE700BFBAF80250348925449B
:102CA000358151F8304024683C40BC422CD1DAF8E0
:102CB0000840374604EBC00CBCF806E0BAF8044004
:102CC000ADB27444AC4207F80A8F32D8BAF8064065
:102CD000757887F8009086F80090A64588BF04258F
:102CE0008CF80450DAF80C7037B10121B8479AF823
:102CF0000100DAE90413024600EB400003EB800018
:102D0000A0F8089096E700BF51F830603468DAE91F
:102D1000026CA74306EBC004BCF1000F46F830700C
:102D2000E58006D00021E0479AF80100DAE90413B3
:102D3000024651F8307001EBC00600EB40003F68DE
:102D4000766803EB8000436837409F427FF472AFA0
:102D5000034613F80A7F012F7FF46CAF477883F89E
:102D600000900137477065E7BDE8F0872DE9F04333
:102D700081B000900098002800F0B38040F2A803D2
:102D8000C2F20003DDF800E01878070644D05B6863
:102D9000C5B200F0030C4FF00009042D4FF0000005
:102DA00044D2BCF1000F37D004011C59009DAC4245
:102DB0000AD103EB0014254655F8046F8E4203D167
:102DC000002626602E60A673BCF1010F24D0441C9F
:102DD00025015D59009EB5420AD103EB0414254636
:102DE00055F8046F8E4203D1002626602E60A6732C
:102DF000BCF1020F10D002300701DF59009EB7422C
:102E00000AD103EB0010034653F8047F8F4203D12D
:102E1000002707601F608773022A59D0012A5BD000
:102E2000DEF80000002A40EA010058E06FF03000B0
:102E300000EA05180026002005E000BF4036B04536
:102E400000F10400ADD09F59009DAF4203EB06078F
:102E50000CD03D69009CA54215D03C6A009DAC4257
:102E60001ED03C6B009DAC42E8D126E07D688D42CF
:102E700002BF43F80690C7F8049087F80E903D69AA
:102E8000009CA542E9D17C698C4202BFC7F8109032
:102E9000C7F8149087F81E903C6A009DAC42E0D1C0
:102EA0007C6A8C4202BFC7F82090C7F8249087F84C
:102EB0002E903C6B009DAC42C0D17C6B8C4202BF1B
:102EC000C7F83090C7F8349087F83E90B6E700BF57
:102ED000DEF80000484002E0DEF800008843CEF84B
:102EE000000001B0BDE8F08340F2180CC2F2000C03
:102EF0009CF80D00002808BF70472DE9F04F83B003
:102F0000DCF828104FF0000E4FF0A80A4FF0000B2D
:102F1000002208E0019A9CF80D0001324FFA82FB72
:102F2000834580F28D8050B200FB0AF04FF07808A4
:102F30004FF000090192029009E000BF4FF0A80A8B
:102F4000A8F1080818F10800A9F10109E2D00BFB6B
:102F50000A14029B224632F8A20F0B4403EB090627
:102F600032F8025C96F89F70284322F8020C3FB1B9
:102F7000012586F88F50A2F800E086F89FE007E070
:102F800096F88F70A2F800E0002F86F89FE0D7D067
:102F9000DCE9142703EB080653F808307668D21AE8
:102FA00077EB0602CCD3D4F8A420002AC8D0DCF8F2
:102FB0003C3009F10F01012707FA01FA83B1019CA6
:102FC00000EA0A0081B2E0B2002265469847A86A8A
:102FD000A8260BFB0600D0F8A420B0F8A00002E061
:102FE000019C6546A82600EA0A00E4B281B22046A8
:102FF0009047A96AEB6B0BFB0612B2F8A070AC46C7
:1030000080EA0700A2F8A00063B100EA0A0081B2DA
:103010002046012264469847A16AA4460BFB06108D
:10302000B0F8A00000EA0A004FF0000E00047FF4A0
:1030300085AF02980844484480F88FE07EE700BFDF
:1030400003B0BDE8F04F704740F21101C2F2000139
:103050000978B0FBF1F000217047000040F218023F
:10306000C2F200021378834206D9D26A01460020D8
:1030700042F82100704700BF80B502A001F0CAFBF2
:10308000FF2080BD5B4C4C4F53204552524F525D48
:10309000204C4C4F535F4D73675F436C6561723AD0
:1030A000203E204C4C5F5441534B5F4E554D210DFB
:1030B0000000000040F21801C2F20001C96A51F894
:1030C0002000704710B540F21801C2F200014C7B9D
:1030D000FF2C05D107A001F09DFB204610BD00BFCD
:1030E0008A6AA82304FB0322C2F8A400601C487368
:1030F000204610BD5B4C4C4F53204552524F525D01
:10310000204C4C4F535F52656769737465725F451D
:1031100076656E74733A203E3D20323535210D00C0
:1031200070B540F2180CC2F2000C9CF800408442CA
:1031300050D9DCF828E0A82400FB04E4CE07B4F85A
:10314000A25045EA0105A4F8A25049D18D0752D4F6
:103150004D075ED40D076AD4CD0676D48D0600F1F6
:1031600083804D0600F18F800D0600F19B80CD0518
:1031700000F1A7808D0500F1B3804D0500F1BF80FF
:103180000D0500F1CB80CD0400F1D7808D0400F156
:10319000E3804D040BD5DCE91456AD185E41C4E95B
:1031A0001C56A82500FB05E5012685F89E6009B29E
:1031B000B1F1FF3FC8BF70BDDCE91416891846EBBA
:1031C0000302C4E91E12A82100FB01E0012180F8DE
:1031D0009F1070BD68A0BDE8704001F01BBB00BF30
:1031E000DCE91456AD185E41C4E90056012584F8A7
:1031F00090508D07ACD5DCE91456AD185E41C4E99A
:103200000256A82500FB05E5012685F891604D07CB
:10321000A0D5DCE91456AD185E41C4E90456A825D2
:1032200000FB05E5012685F892600D0794D5DCE9E1
:103230001456AD185E41C4E90656A82500FB05E505
:10324000012685F89360CD0688D5DCE91456AD18C3
:103250005E41C4E90856A82500FB05E5012685F86E
:1032600094608D067FF57DAFDCE91456AD185E41A4
:10327000C4E90A56A82500FB05E5012685F89560F6
:103280004D067FF571AFDCE91456AD185E41C4E917
:103290000C56A82500FB05E5012685F896600D066D
:1032A0007FF565AFDCE91456AD185E41C4E90E56F2
:1032B000A82500FB05E5012685F89760CD057FF57B
:1032C00059AFDCE91456AD185E41C4E91056A82583
:1032D00000FB05E5012685F898608D057FF54DAF6B
:1032E000DCE91456AD185E41C4E91256A82500FB6E
:1032F00005E5012685F899604D057FF541AFDCE9CC
:103300001456AD185E41C4E91456A82500FB05E526
:10331000012685F89A600D057FF535AFDCE9145676
:10332000AD185E41C4E91656A82500FB05E5012647
:1033300085F89B60CD047FF529AFDCE91456AD1804
:103340005E41C4E91856A82500FB05E5012685F86D
:103350009C608D047FF51DAFDCE91456AD185E410D
:10336000C4E91A56A82500FB05E5012685F89D60ED
:103370004D043FF510AF1AE75B4C4C4F53204552BC
:10338000524F525D204C4C4F535F53746172745FC7
:103390004576656E743A203E204C4C5F5441534B49
:1033A0005F4E554D210D00002DE9F04740F211010F
:1033B000C2F2000140F218090870C2F20009D9E90E
:1033C0001402013042F10002C9E91402D9E91403E0
:1033D000D9E91A270978801A4FF47A72B2FBF1F210
:1033E00063EB07010023FCF79DFE52EA030039D08E
:1033F00099F80400002808BFBDE8F087D9F830A08C
:103400004FF000080026002707E000BF99F80400ED
:103410000137874206F1180622D20AEB0604207C07
:103420000028F3D0D9E914015AF80620E368801A7D
:10343000D4E90152A941FCF775FE52EA0300E5D137
:1034400061690029E2D0F8B28847D9F830A00AEBC8
:103450000600417C002908BF80F81080D6E700BF35
:10346000BDE8F087D9F870000130C9F8700099F80C
:1034700008000028BCD0D9F834100025002602E04E
:1034800001368642B4D2D9F8702051F836309A42CB
:10349000F6D301EBC6025268002AF1D0F0B2904791
:1034A000D9F8341099F8080001EBC6025560E7E737
:1034B0002DE9F04140F2180EC2F2000E9EF80430E1
:1034C00083421BD90DF1180CDEE91456DEF83030BA
:1034D0009CE8101100EB400703EBC70043F837509E
:1034E00001744274C0E90164BCF1000FC0F80C80A3
:1034F00018BFC0F814C00020BDE8F08102A001F0A0
:1035000089F9FF20BDE8F0815B4C4C4F53204552B8
:10351000524F525D204C4C4F535F54696D65725F42
:103520005365743A203E204C4C5F54494D45525FE0
:103530004E554D210D00000070B540F21802C2F248
:103540000002158A411E89B2A94280F0A580810837
:1035500084074FF0010318BF03EB9001B1EB950F07
:1035600080F09A80536A25F0030040F2AC0EFF22EF
:1035700003EB000C0029CCF6005ECFF6007200F0E1
:103580007F80186800EA020474450BD1C0F30F2055
:1035900003EB8000031D03EB810060454FF000004A
:1035A000EFD377E0002000241D186E6816407645A2
:1035B00022D044F00106B6B28E4266D2AE68164002
:1035C00076451BD044F00206B6B28E425DD2EE685C
:1035D0001640764516D044F00306B6B28E4254D259
:1035E0002E691640764511D00434A5B28D4200F103
:1035F0001000D9D349E000BF2B1DCCE705F108032B
:10360000C9E700BF05F10C03C5E700BF05F11003D2
:10361000C1E700BFC0F30F2003EB8000031D03EBE5
:103620008100604538D2186800EA020474452CD144
:10363000C0F30F2003EB8000031D03EB8100604506
:103640002AD2186800EA020474451ED1C0F30F2084
:1036500003EB8000031D03EB810060451CD218685A
:1036600000EA0204744510D1C0F30F2003EB800080
:10367000031D03EB810060454FF0000028BF70BDC3
:10368000186800EA02047445C4D04EEA012043F8E9
:10369000040B184670BD00BF002070BD80B582B01D
:1036A00041F21400C4F202000168002241F001015D
:1036B00001600068002100F00100019001980E20D7
:1036C000FDF794FB0E20FDF77FFB0F200021002269
:1036D000FDF78CFB0F2002B0BDE88040FDF774BB06
:1036E0002DE9F04186B0002641F218000596C4F29B
:1036F0000200016840F6004441F0200101600168C9
:10370000C4F2010401F02001019101990168012234
:1037100041F00401016001684FF4707801F0040188
:10372000019101990168012741F0080101600068D9
:103730004FF4707100F00800019001982046FDF7E9
:10374000CFFA802002A902ADC1C1A4F5806029464C
:10375000FDF7BEF920462946CDE902760497FDF72C
:10376000B7F90220059020462946CDE90287049644
:10377000FDF7AEF906B0BDE8F081000080B540F27B
:10378000485043F60001C2F20000C4F201010023D8
:103790004FF00C0C4FF4E13280E80E00C0E9033327
:1037A000C0E905C3C361FEF7BFFA002808BF80BDAA
:1037B000BDE88040FCF790BFFEE70000FDF76CFC21
:1037C000FEE70000704700007047000080B5012050
:1037D000FFF7EAFDBDE88040FDF78EBA70470000B4
:1037E00010B58CB040F24850C2F20000016841F2BE
:1037F0009054CA68C2F2000442F01002CA60A11CD0
:10380000FF22FEF781FB002084F801010B90CDE937
:10381000090040F6A920C0F600000A9040F60320F7
:10382000ADF8240040F29050C2F20000079041F23F
:103830000000C0F20A50089043F62560C0F6000070
:103840000AA907AAFEF774FE8020059040F608003A
:10385000C4F2010043F6716104909620C0F60001A5
:103860004FF44874CDE9001004AB0A200121022274
:103870000294FFF731F900F08BF80CB010BD000096
:1038800080B5FFF731FB41F29051C2F2000191F88F
:10389000010150B1002081F8010131F8022B40F202
:1038A000B040C2F20000FEF715FD40F2B040C2F297
:1038B0000000FEF79DFC0022B0F5967F40F60C401C
:1038C00038BF0122C4F201004021BDE88040FFF76B
:1038D0004DBA000010B50AB2B2F1FF3F24DDC807AF
:1038E00004BF4FF6FF7010BD40F2B044C2F20004B6
:1038F0002046FEF785FC01461AA000F011FB204689
:10390000FEF776FC01461CA000F00AFB40F2100016
:10391000C2F200000078012141F288320023012424
:10392000FFF7FEFB204610BD0446FFF7C3FB02462F
:1039300004A0214600F0F4FA2046FFF78FFB4FF475
:10394000004010BD7461736B256420726563656906
:103950007665206D6573736167653A2025730D0A7E
:1039600000000000557365642053697A65203D208E
:1039700025640D0A00000000417661696C61626C8B
:10398000652053697A65203D2025640D0A000000FA
:1039900080B540F2B04040F2B001C2F20000C2F285
:1039A00000014FF48062FEF733FC43F6D500C0F609
:1039B0000000FFF787FB40F21001C2F20001FF2870
:1039C000087007D0012102460023BDE88040FFF7C0
:1039D000A7BB00BF02A000F01DFF00BFFEE700BFB5
:1039E0005B4C4C4F53204552524F525D20546173F3
:1039F0006B5541525420696E6974206661696C652B
:103A000064210D00406A0021C185C184FDF778BEA4
:103A1000406A01684A6990F84130212B2DD112F09B
:103A200080022AD00021C184016851E8031F026886
:103A300021F0C00142E80313DBB1016851E8031F24
:103A4000026821F0C00142E8031393B1016851E814
:103A5000031F026821F0C00142E803134BB1016863
:103A600051E8031F026821F0C00142E80313002B54
:103A7000DAD1202180F841100168496990F842208C
:103A8000222A40F07D8011F0400179D00021C185CB
:103A9000016851E8031F026821F4907142E80313A2
:103AA000BBB3016851E8031F026821F4907142E83A
:103AB000031373B3016851E8031F026821F4907186
:103AC00042E803132BB3016851E8031F026821F495
:103AD000907142E80313002BDAD11AE0016851E833
:103AE000051F026821F0010142E80513DBB10168FE
:103AF00051E8051F026821F0010142E8051393B166
:103B0000016851E8051F026821F0010142E8051330
:103B10004BB1016851E8051F026821F0010142E83C
:103B20000513002BDAD1016B012924D1016851E87A
:103B3000031F026821F0100142E80313DBB10168A2
:103B400051E8031F026821F0100142E8031393B10A
:103B5000016851E8031F026821F0100142E80313D5
:103B60004BB1016851E8031F026821F0100142E8DF
:103B70000313002BDAD1202180F8421000210163C9
:103B8000416C41F010014164FDF7BABD0168406A23
:103B90000968890600F19F800021C185016851E80C
:103BA000031F026821F4807142E80313E3B1016846
:103BB00051E8031F026821F4807142E803139BB1AE
:103BC000016851E8031F026821F4807142E8031381
:103BD00053B1016851E8031F026821F4807142E883
:103BE0000313002BDAD100BF016851E8051F0268FA
:103BF00021F0010142E80513BBB3016851E8051F3C
:103C0000026821F0010142E8051373B3016851E82D
:103C1000051F026821F0010142E805132BB301687A
:103C200051E8051F026821F0010142E80513002B4D
:103C3000DAD11AE0016851E8051F026821F040015D
:103C400042E80513DBB1016851E8051F026821F065
:103C5000400142E8051393B1016851E8051F02686D
:103C600021F0400142E805134BB1016851E8051FFE
:103C7000026821F0400142E80513002BDAD120212F
:103C800080F84210016B012925D100BF016851E87D
:103C9000031F026821F0100142E80313DBB1016841
:103CA00051E8031F026821F0100142E8031393B1A9
:103CB000016851E8031F026821F0100142E8031374
:103CC0004BB1016851E8031F026821F0100142E87E
:103CD0000313002BDAD100214163016B012918BFC6
:103CE000FEF7C2B9818DFDF7FBBB0000406A0121E0
:103CF0004163016B012918BFFEF7B8B9818D4908EE
:103D0000FDF7EEBB81B090F84210222921D18368E3
:103D10000246B3F5805F09D152F8281F52F8183CCB
:103D2000002B63D003685B680AE000BF52F8281FCD
:103D300013B90369002BF5D003685B6803F07F03B8
:103D40000B70116801311160C18D01390A04C18500
:103D500002D001B0704700BF0168CA6822F020029B
:103D6000CA60CA6822F48072CA604A6922F00102FD
:103D70004A61202180F8421000214163026B012A30
:103D80003CD10163016851E8031F026821F0100172
:103D900042E80313DBB1016851E8031F026821F018
:103DA000100142E8031393B1016851E8031F026850
:103DB00021F0100142E803134BB1016851E8031FE1
:103DC000026821F0100142E80313002BDAD10168E8
:103DD0000A68D20606D5002200920A680092496855
:103DE00000910099818D01B0FDF77ABB026852689D
:103DF0006FF35F2221F8022B8162A5E701B0FEF785
:103E000033B9000010B540F24854C2F20004204615
:103E1000FDF730FF2046BDE81040FDF773BC000001
:103E2000FEE700004EF60C50BFF34F8FCEF20000BD
:103E30000168042201F4E061C0F2FA52114301600A
:103E4000BFF34F8F00BF00BF00BF00BFFAE7000005
:103E500080B582B0019040F24850C2F2000001A942
:103E600001224FF6FF73FEF703F9019802B080BDFF
:103E700080B582B00020ADF8060040F2B040C2F23A
:103E800000000DF106010122FEF7C0FA20B103A0E7
:103E90000DF1060100F044F802B080BD25730D0A53
:103EA0000000000090B0FCF735FF00240120CDE9B0
:103EB0000B44CDE9094406900A904FF480104FF46A
:103EC000803102250F9006A8CDE90714CDE90D51E8
:103ED000FDF7F0F820B1EFF3108072B6FEE700BFF7
:103EE0000F20CDE901054FF48060CDE9040401A85D
:103EF00002210394FCF7B8FF20B1EFF3108072B6F3
:103F0000FEE700BFFDF79AF8FFF7EAFBFFF7C6FBF5
:103F1000FFF734FCFFF764FCFFF7B2FCFCE700009E
:103F20000FB4054B10B503A9044A029800F0DAF863
:103F300010BC5DF814FB0000513E0008000000209A
:103F400002E008C8121F08C1002AFAD17047704762
:103F5000002001E001C1121F002AFBD170470000C0
:103F60002DE9FF5F82B00021DDE90430020DDDF8AC
:103F700040B0034318D044F61050A2F2FF3242433F
:103F80001514119801281FD0A5EB0B00401C5FEA07
:103F9000000A4FF000064E4FDFF83891B046504609
:103FA00015D5CAF1000413E0119801244AA3012891
:103FB00001D16FEA0B010298119AC0E90031C0E902
:103FC000024206B0BDE8F09FCBF10000DFE70446F7
:103FD0000021404A491842EB0450CDE9001012E09C
:103FE000E00707D032463B4640464946FCF7EFF82B
:103FF0008046894632463B4610461946FCF7E7F8AC
:1040000006460F466410002CEAD1DDE90401DDE923
:104010000023BAF1000F06DAFCF7D9F842464B4606
:10402000FCF7D5F805E0FCF744F942464B46FCF7AF
:1040300040F904460E460022284BFCF7FBFA03D851
:104040004FF0FF30014607E00022254B2046314665
:10405000FCF730FAFCF7D5FA102409E0002C0ADB53
:104060000A220023FCF75EF8039B30321A55641EC7
:1040700050EA0102F2D1641C039AC4F11103144402
:10408000119A012A03D0012208430DD10AE0084306
:1040900004D000204FF0110B119072E7A3EB0B0539
:1040A0006D1E0DE05B4504DD4FF0000205F10105DA
:1040B00004E003DA4FF00002A5F10105002AECD07C
:1040C00002981199C0E90231C0E9004579E7000082
:1040D000000014400000F03F300000000000F043FA
:1040E0000000E03F2DE9FF4F95B09B46894606460C
:1040F00000250FE2252877D100242746F84A012120
:10410000059400E0044316F8013F203B01FA03F058
:104110001042F7D130782A2811D06FF02F03307871
:10412000A0F13002092A16D8059A44F0020402EBE5
:10413000820203EB42021044761C0590EFE759F827
:10414000042B0592002A03DA504244F400540590EF
:1041500044F00204761C30782E2816D116F8010F90
:1041600044F004042A280DD06FF02F023078A0F11B
:104170003003092B09D807EB870302EB4303C71869
:10418000761CF3E759F8047B761C30786C280FD046
:1041900006DC4C2817D068280DD06A2814D104E01A
:1041A000742810D07A280FD10DE044F400140AE0EE
:1041B00044F4801401E044F440147278824202D145
:1041C00004F58014761C761C307866280BD013DC3E
:1041D000582877D009DC002875D04528F6D0462825
:1041E000F4D047281AD19DE118E0632835D064281F
:1041F00079D0652812D195E1702873D008DC672842
:10420000F1D069286FD06E280DD06F2806D1B5E0A7
:1042100073282CD0752875D0782874D05A461799F1
:1042200090476D1C75E1C4F30250022809D00328A1
:104230000DD0D9F8001004280DD00D6009F1040943
:1042400067E1D9F80010EA17C1E90052F6E7D9F89A
:1042500000100D80F2E70D70F0E719F8041B8DF8DF
:10426000001000208DF80100EA46012003E059F813
:1042700004AB4FF0FF3061074FF0000102D40DE0B6
:1042800008F101018846B9420FDA8045F8DB1AF8D7
:1042900008100029F4D108E008F1010188468142A4
:1042A000FADB1AF808100029F6D105985B46A0EB56
:1042B000080721463846179A00F094FA284400EB84
:1042C000080507E04DE029E10DE01AF8010B5A4618
:1042D00017999047B8F10108F7D25B462146384656
:1042E000179A13E142E00A220092C4F302524FF0FF
:1042F000000A022A08D059F804CB032A4FEAEC71CD
:104300000AD00DE029E02AE009F1070121F00702B7
:10431000F2E802C1914609E00FFA8CFC4FEAEC7119
:10432000042A03D14FFA8CFC4FEAEC71002907DA1A
:104330000A460021DCF1000C61EB02012D2202E0B3
:10434000220504D52B228DF80420012203E0E20788
:1043500001D02022F7E7904659E00A2102E010221E
:104360000DE010214FF0000A00910BE010224FF0F9
:10437000000A44F004040827009203E008224FF0EA
:10438000000A0092C4F30252022A05D059F804CB65
:104390000021032A08D009E009F1070121F00702F2
:1043A000F2E802C1914605E01FFA8CFC042A01D113
:1043B0000CF0FF0C4FF00008220728D5702806D01B
:1043C000009B83F0100353EA0A0305D00EE040225D
:1043D0008DF80420012208E05CEA010206D03022B8
:1043E0008DF804208DF8050002229046009B83F092
:1043F000080353EA0A030AD15CEA010201D1620709
:1044000005D530228DF804204FF001087F1E582872
:1044100004D034A003900EA802900DE036A0F9E776
:1044200053466046009AFBF77DFE84460398825C03
:104430000298401E029002705CEA0100F0D10298DE
:1044400006A9081A00F1200A600702D524F4803476
:1044500000E00127574502DDA7EB0A0000E000203D
:1044600000EB0A01009005984144401A0590E003D2
:1044700006D45B462146179A059800F0B3F9054427
:10448000002706E001A85A46C05D179990476D1CA9
:104490007F1C4745F6DBE0030CD55B462146179AA7
:1044A000059800F09FF9054404E030205A4617991A
:1044B00090476D1C0099481E00900029F5DC08E02B
:1044C000029802995A460078491C02911799904720
:1044D0006D1CBAF10001AAF1010AF1DC65E10000EE
:1044E00009280100303132333435363738396162CA
:1044F000636465660000000030313233343536378E
:1045000038394142434445460000000000F058F964
:104510000544761C307800287FF4ECAD19B02846AD
:10452000BDE8F08F620700D4062709F1070222F0E8
:10453000070CFCE80223E14603F000485FEA080CA0
:1045400002D00FF2702C0DE05FEA045C02D50FF28E
:10455000682C07E05FEAC47C02D00FF2602C01E017
:10456000AFF2700C4FF0FF3823F00043CDF850C08D
:1045700065280CD006DC452809D046281DD04728E0
:104580003DD13DE0662818D067287ED138E0002173
:10459000112F01DB112000E0781CCDE9000106A9F4
:1045A0000EA8FFF7DDFCDDE90F010E9A0391002153
:1045B000009207F1010A04914DE04FF0004000978E
:1045C000CDE9011006A90EA8FFF7CAFCDDE90F022C
:1045D00003920E9B11990022DDF80CA00093049227
:1045E00011B9791C00EB010AB7EB0A0004D4C0F141
:1045F000FF3007F1010A0490AAEB0700019044E0A4
:10460000012F00DA01270021112F01DD112000E028
:104610003846CDE9000106A90EA8FFF7A1FCDDE9A7
:104620000F010E9A0391002104910092BA462107CE
:104630000CD40399514500DA8A46BAF1010F05DD21
:10464000009AAAF10101515C302908D0B84202DA7F
:1046500010F1040F06DA0121CDE9011015E0AAF1ED
:104660000101E9E7002805DC049901440491AAEB63
:10467000000102E0411C514500DD8A460499401AC0
:10468000401C01904FF000400290200704D4019894
:10469000504501DBCDF8048000208DF84F000298D2
:1046A0000DF14F07B0F1004F25D02B200E9002984E
:1046B0004FF0020800280CDA404202902D200E90A4
:1046C00007E00A210298FBF763FE3031029007F8F9
:1046D000011DB8F10001A8F10108F2DC02980028E0
:1046E000EFD1791E0E980870307800F0200040F06D
:1046F000450007F8020D12A8C01B00F10708149826
:10470000007800B1012000EB0A01019801EBE07193
:1047100005984144401A401E0590E00306D45B46CC
:104720002146179A059800F05DF805441498007822
:1047300018B15A46179990476D1CE00324D55B4683
:104740002146179A059800F04DF805441CE004989E
:10475000002807DBDDE90301884203DD0098405CA7
:10476000179901E0179930205A469047049805F1AF
:104770000105401C04900198401E019004D12E2098
:104780005A46179990476D1CBAF10001AAF1010A27
:10479000DDDC05E017F8010B5A46179990476D1CB0
:1047A000B8F10001A8F10108F4DC5B462146179A34
:1047B0000598ABE62D0000002B0000002000000053
:1047C0002DE9F041044600251E461746880404D40E
:1047D00005E039462020B0476D1C641EF9D52846F7
:1047E000BDE8F0812DE9F041044600251E469046C3
:1047F000C80301D5302700E02027880404D505E050
:1048000041463846B0476D1C641EF9D52846BDE8C0
:10481000F081000010B5044601E0FFF719FB14F821
:10482000010B04490028F8D1BDE810400A20FFF729
:104830000FBB00000000002000000000000000008E
:104840000102030406070809000000000102030436
:10485000010202030405060708090A0B0C0D0E0FDE
:1048600010105B4C4C4F532044454255475D204C43
:104870004C4F535F496E6974207C202020202020FB
:104880007C2020202020207C202020207C207C20B8
:10489000202020200D005B4C4C4F532044454255B6
:1048A000475D204C4C4F535F496E697420202D2D7D
:1048B0002D2D2020202D2D2D2D202020202D2D2090
:1048C0002020202D2D2020200D005B4C4C4F53200C
:1048D00044454255475D204C4C4F535F496E6974C7
:1048E000207C2020202020207C2020202020207CB4
:1048F000202020207C20202D2D2020200D005B4C0E
:104900004C4F532044454255475D204C4C4F535F1C
:10491000496E6974204820206520206C20206C207E
:10492000206F2020202D2D20202020202D2D202004
:104930000D005B4C4C4F532044454255475D204C85
:104940004C4F535F496E6974207C2020202020202A
:104950007C2020202020207C202020207C20202043
:1049600020207C200D005B4C4C4F53204552524F71
:10497000525D204C4C4F535F496E6974206D656DDC
:104980004366672D3E706F6F6C53697A65203C3DBE
:104990002073697A656F662875696E7433325F7447
:1049A00029210D005B4C4C4F53204552524F525D14
:1049B000204C4C4F535F496E6974206D656D4366A2
:1049C000672D3E70506F6F6C204E554C4C210D0082
:1049D0005B4C4C4F53204552524F525D204C4C4F34
:1049E000535F496E6974206576656E7443425F6CEF
:1049F000697374206D616C6C6F63206E756C6C21D3
:104A00000D005B4C4C4F53204552524F525D204C91
:104A10004C4F535F496E6974206D73675F6C6973A7
:104A200074206D616C6C6F63206E756C6C210D0071
:104A300056322E302E30006B41006D41006D460025
:104A40006D48006B56006D56006B57006D57004D5A
:104A50006F686D006B6F686D006D6F686D006B6DDA
:104A6000006D6D006D73004D487A006B487A005BF5
:104A70004C4C4F53204552524F525D204C4C4F539B
:104A80005F4C45445F496E6974206B65795768696E
:104A90006368206D616C6C6F63206E756C6C210DAA
:104AA000005B4C4C4F53204552524F525D204C4CB2
:104AB0004F535F4C45445F496E6974207061726169
:104AC000206572726F72210D00000000F04A00082C
:104AD0000000002018000000403F0008084B0008BC
:104AE00018000020801A0000503F0008000000005D
:104AF00000000000010000001000000000127A0019
:084B0000FF01000000000000AD
:04000005080000ED02
:00000001FF
