:020000040800F2
:10000000503F0020010100087D580008853300089A
:10001000795800084D0900086564000800000000D8
:10002000000000000000000000000000875A0008E7
:10003000730900080000000083580008895A00086E
:100040001B0100081B0100081B0100081B01000820
:100050001B0100081B0100081B0100081B01000810
:100060001B0100081B0100081B0100081B01000800
:100070001B0100084F0900085B0900086709000818
:100080001B0100081B0100081B0100081B010008E0
:100090001B0100081B0100081B0100081B010008D0
:1000A0001B0100081B0100081B0100081B010008C0
:1000B0001B0100081B0100081B0100081B010008B0
:1000C0001B010008873300081B0100081B01000802
:1000D0001B0100084B6400081B0100081B010008FD
:1000E0001B0100081B0100081B010008DFF80CD0F1
:1000F00000F0D6FB00480047AD640008503F0020E8
:100100000648804706480047FEE7FEE7FEE7FEE7B1
:10011000FEE7FEE7FEE7FEE7FEE7FEE7FF5A000820
:10012000ED0000082DE9F05F0546002092469B4651
:1001300088460646814640241BE0284641464746FD
:10014000224600F031FA53465A46C01A914110D364
:1001500011461846224600F018FA2D1A67EB0108DE
:100160004F4622460120002100F00FFA17EB00094C
:100170004E41201EA4F10104DFDC484631462A46E8
:100180004346BDE8F09F40EA01039B0703D009E026
:1001900008C9121F08C0042AFAD203E011F8013B73
:1001A00000F8013B521EF9D27047D2B201E000F8CC
:1001B000012B491EFBD270470022F6E710B513460B
:1001C0000A4604461946FFF7F0FF204610BD10B559
:1001D000002200E0521C835C8C5CA34201D1002B06
:1001E000F8D1D8B2E1B2401A10BDF0B480EA0102F1
:1001F000D40F4200B2EB410F02D20246084611462C
:100200004A0042D0C30DDDB2C1F3C752AD1A202D52
:1002100035DAC1F3160141F4000204B15242C5F1CE
:10022000200602FA06F12A411044B3EBD05F23D036
:10023000C4B1012DA0EBC35009DCF0BC4FF000426B
:1002400002EAC352DBB200F5000000F0C6B940007C
:1002500000F1807000EBC350A0F1807040EAD170D3
:10026000490009E0490841EAC071A0EBC35000F51C
:100270000000400800EBC350F0BC00F0A5B961429B
:10028000012202EB4101001BF6E7F0BC704781F050
:100290000041AAE780F00040A7E730B480EA0102FD
:1002A00002F0004530F0004221F0004013D090B140
:1002B000C30DD40DC2F31601C0F31600E41A41F4C5
:1002C000000140F400027D34914201D3641C00E03F
:1002D0004900002C02DA30BC002070474FF40000C7
:1002E0000023914201D3891A034340084FEA410198
:1002F000F7D151B1914202D14FF0004105E002D255
:100300004FF0010101E06FF0010103EBC4502844FC
:1003100030BC00F059B92DE9FE4F81EA030404F026
:10032000004421F0004100944FF0000B23F0004303
:1003300050EA01045ED052EA03045BD0C3F30A54CE
:10034000C1F30A552C44A4F2F3340194A0FB0254E7
:10035000C1F3130141F48011C3F3130343F4801379
:1003600001FB024400FB034E840A970A44EA8154CD
:1003700047EA8357A4FB076802958D0A05FB0785AA
:100380004FEA932C04FB0C542705029D4FEA0658B4
:1003900047EA1637B5EB08056EEB070C870E920E91
:1003A00047EA811742EA8312A7FB0201B6EB0B0171
:1003B00064EB00042B0D43EA0C335E1844EB1C5035
:1003C000DA465146E7FB0201C5F313044FEA0B334B
:1003D00043EA14534FEA0432019C43EA0603A4F1B2
:1003E0000C040294009CCDE900B400F033F903B092
:1003F000BDE8F08F00200146F9E72DE9F04D81EAD4
:10040000030404F0004B21F0004514464FF0000AAD
:1004100023F0004150EA050220D054EA01021DD029
:10042000C5F30A570246C5F31303C1F31300C1F322
:100430000A5640F4801543F48013A7EB0608101BFE
:10044000D64608F2FD3873EB050002D308F1010827
:1004500001E092185B41B8F1000F03DA0020014679
:10046000BDE8F08D00204FF48011064684460EE072
:10047000171B73EB050705D3121B63EB050306433C
:100480004CEA010C49084FEA300092185B4150EAEF
:100490000107EDD152EA030012D082EA040083EA98
:1004A0000501084305D0101BAB4106D201220023F1
:1004B00006E000224FF0004302E06FF0010253100B
:1004C0001AEB06004CEB085110EB0A0041EB0B0154
:1004D000BDE8F04D00F0AFB8002801DBC0F10040EE
:1004E000002901DBC1F10041814201D801207047A0
:1004F00000207047002801DBC0F10040002901DB2B
:10050000C1F10041814201D30120704700207047B2
:10051000C10F80EAE0700844CA079623002100F06A
:100520005CB896230022114600F057B800F0004254
:1005300020F00040C10DC0F3160040F400007F29F8
:1005400001DA00207047962903DCC1F19601C8400A
:1005500001E096398840002AF4D04042704730B517
:100560000B46014600202022012409E021FA02F571
:100570009D4205D303FA02F5491B04FA02F528440B
:10058000151EA2F10102F1DC30BD202A04DB203A65
:1005900000FA02F1002070479140C2F1200320FAD6
:1005A00003F3194390407047202A04DB203A21FAD4
:1005B00002F00021704721FA02F3D040C2F120027C
:1005C00091400843194670470029A8BF7047401C56
:1005D000490008BF20F00100704710B4B0FA80FC59
:1005E00000FA0CF050EA010404BF10BC704749B196
:1005F000CCF1200421FA04F411FA0CF118BF012106
:1006000021430843A3EB0C01CB1D4FEA00614FEAE5
:10061000102042BF002010BC704700EBC3501044B4
:100620000029A4BF10BC7047401C490008BF20F03F
:10063000010010BC704710B5141E73F1000408DAF5
:10064000401C41F1000192185B411A4301D120F096
:10065000010010BD2DE9F04D92469B4611B1B1FA53
:1006600081F202E0B0FA80F220329046FFF78DFF6F
:1006700004460F4640EA0A0041EA0B0153465A4637
:10068000084313D0114653EA010019D0C8F14002C3
:100690005046FFF789FF05460E46504659464246EA
:1006A000FFF773FF084305D0012004E020463946D8
:1006B000BDE8F08D0020054346EAE0762C43374341
:1006C0000A986305E40AA0EB08000022FD0A44EA48
:1006D00047540A3002D500200146E9E70105101908
:1006E0006941DDE9084500196941BDE8F04DA2E71F
:1006F0002DE9FE4F804681EA0300C00F0C460090B2
:1007000021F0004123F00045B8EB0200A94105D2D9
:100710004046214690461C460B46024623F00040C8
:10072000104347D0270DC7F30A00C3F30A510290C4
:10073000401A019040286BDAC3F3130040F4801B89
:100740000098924620B10023D2EB030A63EB0B0B17
:1007500001985946C0F140025046FFF716FF064681
:100760000D4650465946019A00F0B2F810EB0800C9
:100770006141002487EA115284EAE7731A4340D0AA
:10078000009A62B3019A012A4FEA075215DC001B56
:1007900061EB02014FF0004202EA0752CDE900424C
:1007A000001C41F5801132462B46FFF753FF03B082
:1007B000BDE8F08F40462146F9E7001B61EB0201DE
:1007C000001C41F5801300185B412018A2F50017AA
:1007D00047EB030140EAD570B6196D4111E06D0891
:1007E0004FEA360645EAC0754FEA0752001B61EB37
:1007F0000201001C41F5801149084FEA3000001940
:10080000514132462B4603B0BDE8F04FFFF713BF0E
:100810000098012240000023D0EB020263EBE0735A
:10082000009821464FEAE074B8EB000061EB040148
:10083000E9E783F000435BE781F0004158E7C1F34B
:100840000A52C1F3130140F2FF3341F480119A427E
:1008500002DA00200146704740F233439A42A2F286
:10086000334202DC5242FFF79FBEFFF78EBE00000C
:1008700030B5041E71F1000404DB4FF00044404227
:1008800064EB0101141E73F1000405DB1C464FF0FC
:100890000043524263EB0403994208BF904230BDCB
:1008A0001CB509480090094801900546009C06E0E7
:1008B000E06840F0010394E8070098471034AC4228
:1008C000F6D3FFF717FC0000987A0008B87A000802
:1008D000202A06DBCB17203A41FA02F043EAE07304
:1008E00006E041FA02F3D040C2F1200291400843F1
:1008F0001946704770B58C1810F8015B15F00703A6
:1009000001D110F8013B2A1106D110F8012B03E0A8
:1009100010F8016B01F8016B5B1EF9D12B0705D4B0
:100920000023521E0DD401F8013BFAE710F8013BF9
:10093000CB1A921C03E013F8015B01F8015B521E15
:10094000F9D5A142D8D3002070BD0000FEE742F6E1
:100950007400C2F2000000F08DB842F63000C2F21E
:10096000000000F087B842F6B800C2F2000000F0C4
:1009700081B87047EFF3108072B600BFFEE7014602
:1009800090F82100022813D10868D1E90FC302684A
:1009900022F00E020260026822F0010202600120D1
:1009A00000FA03F2CCF8042081F82100002002E0D4
:1009B000042088630120002281F82020704790F8ED
:1009C0002110022923D10268116821F00E01116063
:1009D0002F211368C4F202018A4240F20401C4F2DA
:1009E000020123F00103136015DD3023C4F202037A
:1009F0009A421CD04423C4F202039A421AD05823CC
:100A0000C4F202039A421AD14FF480331FE004214A
:100A10008163012129E00823C4F202039A420CD029
:100A20001C23C4F202039A4209D110230FE04FF4B1
:100A300080730CE04FF4805309E0012307E001F1DB
:100A4000680C4FF08073624508BF4FF480130B6051
:100A5000012180F82110426B002180F8201022B182
:100A600080B590470021BDE880400846704790F867
:100A70002100704710B5D0E90FCE0168DCF80030D6
:100A80000A6823FA0EF35C0724D512F0040421D07F
:100A90000A68920603D40A6822F004020A602F2230
:100AA000C4F20202914240F20402C4F202024EDD9C
:100AB0003023C4F20203994261D04423C4F20203FA
:100AC00099425FD05823C4F2020399425FD14FF498
:100AD000802364E09C0727D512F0020424D00A6822
:100AE000920606D40A6822F00A020A60012280F8FF
:100AF00021202F22C4F20202914240F20402C4F2E9
:100B0000020230DD3023C4F2020399424DD0442367
:100B1000C4F2020399424BD05823C4F20203994213
:100B20004BD14FF4003350E01B0755D512F00802AB
:100B300052D00A6822F00E020A60012101FA0EF278
:100B4000CCF80420816380F82110016B3FE008237A
:100B5000C4F20203994218D01C23C4F20203994242
:100B600015D140231BE00823C4F20203994222D08E
:100B70001C23C4F2020399421FD1202325E04FF425
:100B800080630CE04FF4804309E0042307E002F1A6
:100B900068044FF08063A14208BF4FF480031360E4
:100BA000C16AC9B1BDE8104008474FF400730CE0BA
:100BB0004FF4005309E0022307E002F168044FF00C
:100BC0000073A14208BF4FF400131360816A002232
:100BD000002980F82020E5D110BD014600284FF003
:100BE000010008BF70472DE9F0470A684FF6F87317
:100BF000CBF6FD7302EB030C4CF6CD43CCF6CC43A5
:100C0000ACFB033C6FF00307002607EA9C07C4F225
:100C1000020601F10C0AC1E90F670227D1E9013E82
:100C20009AE83004D1E9069881F82170176843F6F4
:100C3000F076B7433B4343EA0E0323432B4343EA97
:100C40000A0343EA090343EA0803136000228A63A4
:100C500081F8210081F820200020BDE8F04770478E
:100C600090F820C0BCF1010F04BF02207047F0B51E
:100C70004FF0010E80F820E090F821C0BCF1010F88
:100C800026D14FF0020C80F821C04FF0000CC0F8C4
:100C900038C0D0E900C4C56AC66BDCF80070102CFF
:100CA00027F00107CCF80070006C0EFA00F07060BD
:100CB0000846CCF8043004BF10460A46CCF80800B9
:100CC000CCF80C20DCF800003DB140F00E000CE048
:100CD000002180F820100220F0BD20F00400CCF8A4
:100CE0000000DCF8000040F00A00CCF80000DCF85E
:100CF000000040F00100CCF800000020F0BD000032
:100D0000B0B5044600F012F9054642F20A40C2F2BC
:100D100000000078611C18BF044400BF00F006F911
:100D2000401BA042FAD3B0BD2DE9F04F82B00E684F
:100D3000002E00F0EE8041F20042C4F201020423D2
:100D400040F2004E904208BF03234FF6FF7CC4F2EE
:100D5000010E009300240123C1F2100C4FF0000A91
:100D60004FF0000903FA0AFB16EA0B0800F0C880EE
:100D70004E68664508DC032E34D8DFE806F028020A
:100D80003E42D1F80C9043E04FF6FF72C1F22102CF
:100D900096420DDC0022C1F21102964217D00022C9
:100DA000C1F21202964212D00022C1F221020CE0DE
:100DB0000022C1F22202964209D00022C1F2310281
:100DC000964204D00022C1F23202964220D18A68B3
:100DD00082B1012A14BFC0F814B0C0F810B04FF0AF
:100DE000080915E0112E0FD0122E11D1CA6802F198
:100DF0000C090DE04FF004090AE0CA6802F1080985
:100E000006E04FF0000903E0CA6802F1040900BFE0
:100E100022460646B8F5807F24BF203A043637685C
:100E20000F25954027EA050509FA02F22A433260A8
:100E3000CA79D20664D541F21803C4F202031A68D3
:100E4000AEF57E7642F001021A601A6802F00102E5
:100E50000192019A2AF0030256F802B040F600020D
:100E6000C4F20102904210D040F60042C4F20102E6
:100E7000904208D041F20002C4F20102009F904269
:100E800008BF022702E0012700E0002704F00C035E
:100E90000F229A402BEA020207FA03F34FEA9A055F
:100EA0001A4346F825204E6840F20C45F202DEF85F
:100EB000082054BF22EA080242EA0802C4F20105EF
:100EC000CEF808202A68B30254BF22EA080242EA98
:100ED00008022A60B303DEF8042054BF22EA0802A5
:100EE00042EA0802F303CEF80420DEF800204FF0B7
:100EF000010354BF22EA080242EA0802CEF80020A9
:100F00000E680AF1010A36FA0AF204F104047FF4C9
:100F100029AF02B0BDE8F08F8068084018BF0120FB
:100F20007047002A08BF09040161704743F64C303E
:100F3000C2F200000068704770477047F0B581B09A
:100F4000076804467868E26A94F83E3094F83DE019
:100F5000402B01D0102B1BD1BD697E69F10743D115
:100F6000B2F12A4F00F0DB82B2F52A0F00F0D782EF
:100F7000310700F4007240F10081002A00F0FD808A
:100F8000606B616C0028C9B2396140F0E780E7E02E
:100F9000216C00F4007300290CBFBD6900257E6937
:100FA000B1073AD5CBB3206C00B1BD6994F83D00D0
:100FB00000F02800282872D17868012120F4806090
:100FC000786005F0040081EA900128064FF01800CF
:100FD00058BF0C20225A0023204684F83C3001B030
:100FE000BDE8F040FFF7A9BF810540D44FF0010CE8
:100FF00079686A0741D4090500F1918206F044013D
:10100000402940F0148110F4806000F010812046E7
:1010100001B0BDE8F04002F003BCF10649D5002B59
:1010200047D094F83D50786820F4E0607860002064
:10103000009078690090386840F0010038600098AE
:10104000386820F4806038607868000540F13281AB
:1010500005F0F7002646222840F00B8156F8380F9D
:101060000168496826F80E1C36F80E1C09E1E06A92
:10107000B0F52A0F4FD1012052E0090500F14F824F
:1010800006F08401802940F0E18010F4806000F0D7
:10109000DD80204601B0BDE8F04002F084BC0020B5
:1010A000009079690091B9690091009984F83C0039
:1010B00035E20EF0F701212940F0808006F084012E
:1010C000802940F0408110F4806000F03C8194F869
:1010D0003D00618D002900F02282616A11F8012B28
:1010E0003A616162618D01396185618D002940F04D
:1010F0001682292840F013827868282120F4806025
:10110000786021202063204684F83D1001B0BDE8BE
:10111000F04000F08BBEE06AB0F12A4F01D1082008
:10112000E06294F83E00402809D1206D616C0028EF
:1011300001F0FE0018BF40F001003861EFE12069C6
:10114000B0F5804F65D194F83D00616C212801F025
:10115000FE0118BF01313961606B08B1806A38B98E
:10116000A06B002800F0DB81806A002800F0D781A6
:10117000786840F400607860D1E14FF0010CB1076D
:101180008CEA522C7FF534AF002A3FF431AF94F84B
:101190003E30E06A226B94F83D10222906D1216D81
:1011A000002940F00C81402B40F009810020009084
:1011B00078690090B86900900098B0E106F04401A9
:1011C000402940F0CF8010F4806000F0CB8094F88C
:1011D0003D00618D002900F0A2813969626A1170B9
:1011E000616A01316162618D01396185618D00291A
:1011F00040F095812A2840F092812068416821F4CE
:1012000080614160222028212063204684F83D101F
:10121000D0E0206D002800F0B980206D012840F05A
:101220007E81606C062101EAD010F13085E706F07E
:101230000400012181EA900050EA0C0040F06F8127
:10124000204601B0BDE8F04002F074BA06F0040098
:10125000012181EA900050EA0C0040F06081BEF16B
:10126000210F40F0C080204601B0BDE8F04002F000
:101270005ABB56F8340F0168496826F80A1C36F83C
:101280000A1C19B1216C41F004012164796821F430
:1012900000617960FFF7EBFB01280BD0306843F267
:1012A0009531C0F600014163FFF789FB10B130684A
:1012B000416B8847608DF8B120684169490709D5BD
:1012C0000069616A0870616A206801316162618D3C
:1012D000013961854169490608D50069616A08706C
:1012E000606A01306062608D01386085608D18B180
:1012F000206C40F004002064206C28B1204601B02E
:10130000BDE8F04002F061B92A2D07D1002020632A
:10131000282084F83D00204600F087FD94F83D0029
:10132000282839D10020CFF6FF70E062002120206C
:10133000216384F83D00204684F83E1001B0BDE8EA
:10134000F04000F0A5B9700740F1E980002B00F0F3
:10135000E680608D002800F0E280606A10F8011BD2
:1013600039610EE0700740F1DA80002B00F0D78081
:10137000608D002800F0D3803869616A0870606A67
:1013800001306062608D01386085C8E0606C0621C4
:1013900001EAD010F030D0E6206B222818BF222DB1
:1013A00040F0BD8000212020216384F83D002046CC
:1013B00084F83E1001B0BDE8F04000F036BD216D6C
:1013C000D1B92169B1F5404F16D10020009078695C
:1013D0000090B86900900098386840F480703860D8
:1013E000206D01309AE0402B40F09980204601B0FA
:1013F000BDE8F04002F02EBB618D51B1618D012935
:1014000013D1202818BF08283ED1386820F4806006
:1014100038600020009078690090B86900900098CA
:10142000386840F40070386077E0618D022914D18B
:10143000102851D8012114228140C0F2010211422A
:101440004AD0396841F4806139600021009179699E
:101450000091B969009100994DE0396841F48061CB
:101460003960796809052FD5421E1F2A59D80121F4
:10147000914048F28102C8F20002114251D07868CE
:1014800040F4805078601FE010F5803F0AD1386842
:1014900020F48060386078680005BAD5386820F498
:1014A000806010E0122A01D10128AED11028F5D8B1
:1014B000012101FA00F01421C0F201010842EDD02F
:1014C000386840F4806038600020009078690090AF
:1014D000B8690090009820E0396841F400613960F3
:1014E0000021009179690091B969009100993968EA
:1014F00021F480613960796809050ED5421E1F2AE2
:1015000013D80121914048F28102C8F20002114231
:101510000BD0786840F4805078600020206501B0DE
:10152000F0BD10F5803FAAD0CEE710F5803FF0D097
:10153000F3E7704780B3F0B581B0044690F83D0002
:1015400028B9002084F83C00204600F01EFC24202E
:1015500084F83D002068016821F001010160016804
:1015600041F400410160016821F40041016000F094
:10157000D1FD636848F2A16CC0F2010C40F6001185
:10158000C0F23D0163453CBF48F28041C0F21E01FC
:10159000884203D2012079E0012070474DF6836133
:1015A000C4F21B31A0FB01122168970CD1F804E0B2
:1015B0004FF496762EF03F0545EA92454D6077430D
:1015C00048F638160D6AC0F24106A7FB067625F0EC
:1015D0003F07634538BF960C721C3A430A62CA69DA
:1015E00048F2A0664CF6FF77C0F20106B34222EA49
:1015F00007020AD801385B00B0FBF3F001306FF34B
:101600001F30042898BF042019E0A768013857B19B
:1016100019277B43B0FBF3F001306FF31F3068B143
:1016200000F5804007E003EB4303B0FBF3F001302B
:101630006FF31F3010B100F5004000E001201043AF
:10164000C8610868D4E9072320F0C000104318439C
:101650000860886848F2FF3204F10C0790438CCF91
:1016600018431043A6698860C86820F0FF0038431B
:101670003043C860086840F0010008600020202165
:10168000206484F83D10206384F83E0001B0F0BD72
:101690007047704770472DE9F04784B0044600203A
:1016A0001F4615460E460290FFF740FC94F83D1089
:1016B000202912D140F20209C0F20109824609F53F
:1016C0007021204601221923CDF800A002F0AAFAC9
:1016D00018B994F83C00012803D1022004B0BDE8F9
:1016E000F0870121206884F83C100168C90703D104
:1016F000016841F0010101600168DDF8308021F4EA
:1017000000610160222184F83D10102184F83E1010
:101710000021216465626785618D2185A9F102112F
:10172000E162E16A026811F5803F42F48062026082
:1017300018BF01293BD1016841F480710160204646
:101740004FF0011100224346CDF800A002F06AFAE2
:1017500040B120680068C00544BF4FF400702064A9
:101760000120BBE72069B0F5804F26D146F001008B
:10177000C0B221684246086120464946534602F0FD
:10178000A9FA0028ECD1208D02284BD001285FD087
:10179000002873D10020039020684169039181697A
:1017A00003910399016841F40071016072E0082916
:1017B000C1D0216B1129BED0C1E7062000EAD615A1
:1017C000206805F1F001016109F106012046424659
:1017D000534602F07FFA0028C2D12068F1B20161BD
:1017E000204649464246534602F074FA0028B7D1D3
:1017F00000200390206800224169434603918169DB
:1018000003910399016841F48071016020464FF013
:101810000111CDF800A002F005FA002899D145F099
:10182000F100A6E72068016841F400610160EFF370
:10183000108072B60020039020684169039181698D
:1018400003910399016821F48061016062B621E08F
:101850002068016821F480610160EFF3108072B6A6
:1018600000200390206841690391816903910399E5
:10187000016841F40071016062B60BE02068016804
:1018800041F4806101600021039141690391806905
:1018900003900398208D002800F0B08009F1020722
:1018A00040F204094BF28956C2F20009C1F2F8462F
:1018B000232580B203280CD802282DD001284CD132
:1018C00020464146524602F047FA002800F0868042
:1018D00046E720464146524602F03EFA00287FF491
:1018E0003FAF2068616A00690870606A2268411C25
:1018F000208D616201382085638D013B63855369CA
:101900005B0740F1788080B2032803D1106820F48F
:1019100080601060106964E020463946002243462A
:10192000CDF800A002F07EF900287FF419AFEFF3A4
:10193000108072B62068616A026842F40072026028
:1019400000690870606A218D01306062481E208540
:10195000608D0138608562B640E02046394600223D
:101960004346CDF800A002F05DF900287FF4F8AE00
:101970002068016821F480610160EFF3108072B685
:101980002068616A00690870606A218D0130013940
:1019900060622185618D01396185D9F80010C9081F
:1019A000A1FB0612110A69430291029901390291C1
:1019B000029961B321684A695207F6D50A6842F470
:1019C00000720A6009690170606A218D01306062ED
:1019D000481E2085608D0138608562B62068616A86
:1019E00000690870606A218D01306062481E2085A0
:1019F000618D0139618501047FF45BAF202084F89B
:101A00003D00002084F83E0084F83C0066E600209B
:101A10002021206384F83D1084F83E00216C41F0C1
:101A20002001216462B684F83C0099E62DE9F04774
:101A300082B01E4617468A460446FFF777FA94F8A6
:101A40003D10202911D140F20209C0F201090546DA
:101A500009F57021204601221923009502F0E2F8D1
:101A600018B994F83C00012803D1022002B0BDE867
:101A7000F0870121206884F83C100168C90703D170
:101A8000016841F0010101600168DDF8288021F45E
:101A900000610160212184F83D10102184F83E107E
:101AA0000021216467626685618D2185A9F102119B
:101AB000E162E16A11F5803F18BF01291AD101687E
:101AC00041F48071016020464FF00111002243462D
:101AD000009502F0A7F838B120680068C00544BF3F
:101AE0004FF40070206425E02069B0F5804F07D1E5
:101AF000FE2014E00829E2D0216B1229DFD0E2E7B2
:101B0000062000EADA102168F030086109F10601C8
:101B1000204642462B4602F0DDF858B9FF202168E6
:101B200000EA0A0008612046494642462B4602F078
:101B3000D1F808B1012099E700200190206841699F
:101B40000191806901900198208D80B32046414623
:101B50002A4602F03BF908BB606A2168024612F887
:101B6000013B0B616262628D013A6285228D531ED8
:101B700023854F697F070AD51B0408D043780230BC
:101B80000B616062608D01386085901E2085204663
:101B900041462A4602F010F80028D5D0206C0428CF
:101BA000C8D12068016841F400710160C2E7206873
:101BB000016841F400710160202084F83D0000209C
:101BC00084F83E0084F83C0050E77047006845F612
:101BD0000001C4F20001884218BF704742F215406C
:101BE000C2F2000000210170704700002DE9F043AF
:101BF00085B0044600201D4616460F460490FFF7A8
:101C000095F994F83D10202971D1804640F20400E6
:101C1000C2F2000000684BF28951C008C1F2F841DD
:101C2000A0FB0102DDE90C13100A192250430490B5
:101C3000049801380490049800284DD022689069D7
:101C40008007F5D494F83C00012850D0012084F896
:101C50003C001068C00703D1106840F0010010601C
:101C600010684FF0000C20F400601060212084F810
:101C70003D00402084F83E00C4F840C061626385A6
:101C8000638D0020CFF6FF702385E0626764A66451
:101C9000E564C4F850C073B3606BC0B343F2A74CA3
:101CA00043F2714EC0F6000CC0F6000E4FF0000972
:101CB0001032C0E90AC9C0E90CE9FEF7D1FF98B3B8
:101CC000202084F83D0084F83E90206C40F0100005
:101CD000206484F83C9043E000202021206384F8B5
:101CE0003D1084F83E00206C40F02000206402206B
:101CF00005B0BDE8F083202084F83D0084F83EC0A4
:101D0000206C40F04000206484F83CC028E0202093
:101D100084F83D00002084F83E00216C41F08001F1
:101D2000216484F83C001BE04FF0230C2046394628
:101D300032462B46CDE900C801F0E2FE90B1606B5F
:101D4000FEF73DFE616B206800228A62016821F483
:101D50008061016022856285016821F001010160D6
:101D60000120C5E70020039021684A6903928A692F
:101D70000392039A84F83C004A6842F480724A60F5
:101D80004A6842F400624A60B2E770B586B0044621
:101D900045F600002168C4F2000000268142049646
:101DA00041D141F21805C4F20205296800F534401A
:101DB00041F008012960296801F0080101910199A9
:101DC0004FF440610291122103910321059102A970
:101DD000FEF7AAFF6868102140F480006860686818
:101DE00042F6300500F48000019001984420C2F2D0
:101DF0000005C4F20200802285E843002846C5E9B8
:101E00000326C5E90566EE61FEF7E7FE08B1FEF7B9
:101E1000B1FD21200021002265636C6200F080F892
:101E2000212000F06DF806B070BD7047704742F297
:101E30000A4043F64C31C2F20000C2F200010078C1
:101E40000A6810440860704780B542F20000C4F28E
:101E50000200016841F010010160032000F08BF8DE
:101E6000002000F004F800F02AF8002080BDB0B592
:101E700042F20A42C2F2000240F204011278C2F2B7
:101E800000014FF47A730968B3FBF2F20446B1FB28
:101E9000F2F1084600F0C8FE0F2C4FF001050CD8F7
:101EA00058B94FF0FF3021460022002500F038F8E5
:101EB00042F20C40C2F2000004602846B0BD82B07D
:101EC00041F21800C4F202000168022241F001014F
:101ED0000160016801F0010101910199416841F03F
:101EE00080514160406800F08050009000980420CC
:101EF000C4F20100016862F31A61016002B0704728
:101F000000280CD400F01F01012202FA01F11C226A
:101F100002EAD0004EF20012CEF200028150704769
:101F200010B54EF60C5CCEF2000CDCF80030C3F3BA
:101F3000022E8EF00704042C28BF0424BEF10303F4
:101F40004FF0FF3E0EFA04F438BF0023A14399403E
:101F50000EFA03F39A43114300F00F0200F16043BD
:101F60000901043A03F564436244002848BF02F1C2
:101F70000C03197010BD4EF60C51CEF200010A6828
:101F80004FF6FF031A4060F30A2242F0806040F0EF
:101F9000FD70086070477047002800F081802DE9CF
:101FA000F04381B042F20008C4F202080446D8F8B7
:101FB00000000D4600F0070088420CD2D8F800005F
:101FC00020F007002843C8F80000D8F8000000F00F
:101FD0000700A8426FD1206841F204098107C4F2CA
:101FE000020917D5410705D5D9F8001041F4E06181
:101FF000C9F80010010705D5D9F8001041F4605167
:10200000C9F80010D9F80010A26821F0F0011143BE
:10201000C9F80010C00745D1D8F8000000F007004B
:10202000A8420CD9D8F8000020F007002843C8F8CF
:102030000000D8F8000000F00700A8423BD120685B
:10204000410707D5D9F80010E26821F4E061114397
:10205000C9F80010000708D5D9F80000216920F45C
:10206000605040EAC100C9F8000000F079F8D9F8E2
:10207000001046F61C62C1F30311C0F60002515C69
:1020800040F2040220FA01F142F20C40C2F20000D8
:102090000068C2F200021160FFF7E9FE00200BE0C9
:1020A000012070476068022809D0012827D159F81B
:1020B000041C890307D4012001B0BDE8F08359F85E
:1020C000041C8901F7D5D9F8001021F00301084359
:1020D000C9F80000FEF72AFF064641F2883700BF24
:1020E000D9F80000616800F00C00B0EB810F93D0CC
:1020F000FEF71CFF801BB842F2D90320DCE759F839
:10210000041C8907D7D5DEE74C20C4F24220012108
:102110000160704740F2040041F20401C2F2000085
:10212000C4F202010068096846F62C62C1F302217C
:10213000C0F60002515CC840704740F2040041F212
:102140000401C2F20000C4F202010068096846F608
:102150002C62C1F3C221C0F60002515CC840704736
:1021600041F20401C4F202010B6841F6003003F0B1
:102170000C02042AC0F2B70008BF7047082A0CD12D
:10218000C3F3834C0CA212F80C20DB030AD440F6F4
:102190000010C0F23D005043704741F20020C0F2F1
:1021A0007A007047096808A3C1F34041595C504365
:1021B000B0FBF1F0704700BF0203040506070809F1
:1021C0000A0B0C0D0E0F10100102000010B541F2A9
:1021D0000804C4F202042068000658BF10BDFFF7CF
:1021E000DAFE8020A07010BD58B32DE9F04182B016
:1021F0000446007841F20006C007C4F2020629D066
:10220000706800F00C0004281DD0706800F00C000D
:10221000082802D17068C00315D46068002800F057
:102220004181B0F5A02F00F05581B0F5803F00F05E
:102230005581306820F480303060306820F4802090
:102240004FE1012070473068800303D560680028A3
:1022500000F0AD802078800719D5706810F00C0F61
:1022600007D0706800F00C00082828D17068C003FF
:1022700025D43068800703D52069012840F0978075
:102280003068616920F0F80040EAC10030602078D1
:1022900000074FD5A06940B30020C4F242200121BD
:1022A000C0F88014FEF742FE054600BF706A800742
:1022B0002DD4FEF73BFE401B0228F7D91FE1206911
:1022C000002840F20000C4F2422000F0A280012168
:1022D0000160FEF72BFE054630688007D0D4FEF77C
:1022E00025FE401B0228F7D909E10020C4F2422054
:1022F0000021C0F88014FEF719FE0546706A8007B9
:1023000018D5FEF713FE401B0228F7D9F7E040F27C
:102310000400C2F20000006844F6D351C1F2620129
:10232000A0FB0101480A019000BF0198411E00284E
:102330000191F9D12078400715D4E5698DB1706815
:1023400000F00C00082843D1012D30D07068216ABC
:1023500000F480328A422AD1616A00F47010884207
:1023600025D10020CCE0F0695FEAC00808D4F0690C
:1023700040F08050F061F06900F0805000900098CB
:1023800047F20007C4F200073868C00511D4386866
:1023900040F480703860FEF7C9FD05463868C00516
:1023A00007D4FEF7C3FD401B6428F7D9A7E001203E
:1023B000A6E0E06800283DD0052854D0012856D07A
:1023C000306A20F001003062306A20F0040051E0F1
:1023D0000027C4F2422700203866FEF7A7FD022D31
:1023E00005460BD13068800140F18D80FEF79EFDDF
:1023F000401B02284FF00300F4D981E030688001CF
:10240000AFD5FEF793FD401B02284FF00300F5D92E
:1024100076E000210160FEF789FD054630688007FF
:102420007FF535AFFEF782FD401B02284FF0030019
:10243000F4D965E0306A20F001003062306A20F0A3
:1024400004003062FEF772FD054641F2883700BF96
:10245000306A80071DD5FEF769FD401BB8424FF07A
:102460000300F5D94CE0306A40F004003062306A75
:1024700040F001003062FEF759FD054641F2883711
:10248000306A800705D4FEF751FD401BB842F7D9EA
:1024900035E0B8F1000F3FF550AFF06920F0805003
:1024A000F0614AE7306820F480303060306820F412
:1024B00080203060FEF73AFD054600BF306880039B
:1024C0007FF5C8AEFEF732FD401B64284FF00300D5
:1024D000F4D915E0306840F480203060306840F472
:1024E00080303060FEF722FD054600BF3068800373
:1024F0003FF5B0AEFEF71AFD401B6428F6D9032065
:1025000002B0BDE8F081206AB0F5803F05D1716866
:10251000A26821F40031114371607168626A21F48C
:10252000741111430843706001203866FEF7FEFC09
:10253000044600BF306880013FF513AFFEF7F6FC9C
:10254000001B02284FF00300F4D9D9E7704770B59B
:1025500038B10446406A30B10020206104F1140013
:1025600007E0012647E06068B0F5827F03D004F100
:102570001C00002101600026A66294F8510020B9D9
:10258000204684F8506000F038F8022084F85100AA
:1025900094E8071001F48271036802F4044223F006
:1025A00040030360236911440CF40062114403F0FA
:1025B00002026369114403F00102A369E569114451
:1025C00003F40072114405F03802256A114405F045
:1025D0008002A56A114305F40052114301600421F1
:1025E00001EA13414160C16921F40061C161012028
:1025F000666584F85100304670BD2DE9F04186B023
:1026000040F600450446C4F20105006805F5105186
:102610000027884204974AD141F21800C4F2020010
:10262000016802AE41F480510160016801F48051FB
:1026300001910199016841F008010160006831468B
:1026400000F00800019001982820029002200390D9
:10265000032005902846FEF767FB4FF01008284638
:102660003146CDE902870497FEF75EFB0420C4F2F1
:102670000100016842F6740541F0E06141F001019A
:1026800001603020C2F20005C4F202008021C5E9D9
:1026900000082846C5E90271C5E90477C5E906774F
:1026A000FEF79BFA08B1FEF765F9A5646C6206B007
:1026B000BDE8F0812DE9F04182B0044690F8510068
:1026C000012814D160681D4617460E46B0F5827F7A
:1026D00002D1A068002851D0FEF728FC80464FF0B8
:1026E00001002EB127B194F85000012803D1022037
:1026F00002B0BDE8F081012084F8500004200021E0
:1027000084F851006165A663A787E7872163A186E6
:10271000E186A2682068B2F5004F2164616407D1A8
:10272000016821F040010160016821F480410160ED
:102730000168490603D4016841F040010160E16885
:10274000E08F31B300283FD06E1C00BF2068816845
:10275000C90707D1FEF7EAFB66B1A0EB0800A84263
:1027600008D344E0C068A16B21F8020BA163E08F9D
:102770000138E087E08F0028E8D125E0042084F8C4
:1027800051002046314632463B46009500F0F2F8B3
:10279000AEE7C8B16E1C00BF20688168C90707D1C9
:1027A000FEF7C4FB6EB1A0EB0800A84209D31EE0FF
:1027B000007BA16B0870A06B0130A063E08F013833
:1027C000E087E08F0028E7D120462946424603F003
:1027D000A5F808B120206065012084F85100002090
:1027E00084F85000606D002818BF012080E70120A8
:1027F00084F85100002084F85000032078E700009E
:102800002DE9F04182B01D4616460F460446FEF7FC
:102810008DFB94F85110012908D180464FF001003A
:102820002FB126B194F85000012803D1022002B044
:10283000BDE8F081012084F850000320002184F8D5
:10284000510061652763A686E686A163A187E187BB
:10285000A0682164B0F5004F2068616407D1016869
:1028600021F040010160016841F48041016001688C
:10287000490603D4016841F0400101606168731E9C
:10288000E268B1FA81F1B3FA83F349095B09B2F561
:10289000006F41EA030123D131B137F8021BC16057
:1028A0002763E08E0138E086E08E00283CD06E1C65
:1028B00020688168890707D4FEF738FB66B1A0EB72
:1028C0000800A84208D34CE0216B31F8022BC2600B
:1028D0002163E08E0138E086E08E0028E8D123E015
:1028E00039B139780173206B01302063E08E0138F3
:1028F000E086E08EC0B16E1C20688168890707D42D
:10290000FEF714FB6EB1A0EB0800A84209D328E043
:10291000216B09780173206B01302063E08E013850
:10292000E086E08E0028E7D120462946424603F0A3
:1029300020F808B120206065A06838B90020019017
:102940002068C1680191806801900198012084F895
:102950005100002084F85000606D002818BF01204D
:1029600065E7012084F85100002084F8500003201E
:102970005DE700002DE9F04381B01E4615460F4685
:102980000446FEF7D3FA94F851108146012972D11A
:10299000002F4FF0010000F0BE80002D00F0BB8042
:1029A000002E00F0B88094F85000012870D001206B
:1029B00084F8500094F85100002104281CBF052021
:1029C00084F851006165A563E687A6872763E686DC
:1029D0002068A686216461640168490603D4016801
:1029E00041F0400101606168731EE268B1FA81F153
:1029F000B3FA83F3DDF8208049095B09B2F5006F73
:102A000041EA030146D131B137F8021BC1602763A7
:102A1000E08E0138E086012608F10105E08E10B94C
:102A2000E08F00287AD02068816889070CD5E18E74
:102A300051B1012E08D1216B002631F8022BC26062
:102A40002163E18E0139E1868168C9070AD0E18FEF
:102A500041B1C068A16B012621F8020BA163E08F90
:102A60000138E087FEF762FA002DD7D0A0EB09000D
:102A70004045D3D348E06068B0F5827F08D104298F
:102A80004FF0020047D1A16800293FF481AF42E036
:102A9000022040E039B139780173206B01302063A6
:102AA000E08E0138E086012608F10105E08E08B9C4
:102AB000E08F98B32068816889070ED5E18E61B1F7
:102AC000012E0AD1216B002609780173216B206841
:102AD00001312163E18E0139E1868168C9070BD09C
:102AE000E18F49B1C068A16B01260870A06B01306D
:102AF000A063E08F0138E087FEF718FA002DD5D0EB
:102B0000A0EB09004045D1D3012084F851000020FA
:102B100084F85000032001B0BDE8F0832046414610
:102B20004A4602F026FF30B120206065002084F87C
:102B300050000120EFE7A06838B90020009020681D
:102B4000C1680091806800900098012084F85100CD
:102B5000002084F85000606D002818BF0120DAE7DB
:102B6000B0B5044690F85100012809D100294FF072
:102B7000010056D0002A54D094F85000012801D109
:102B80000220B0BD012084F850000320002384F807
:102B9000510063652163A286E286A363C4E9103312
:102BA000A387E387A0682268B0F5004F07D11068BB
:102BB00020F040001060106840F480401060A06C6D
:102BC00045F6A30C45F6A90E45F68505C0F6000CA2
:102BD000C0F6000EC0F60005C0E90AECC0E90C53CF
:102BE000E38E0C32FEF73CF840B1606D40F010000F
:102BF0006065002084F850000120B0BD216808689D
:102C0000400603D4086840F040000860002084F8C3
:102C100050004A6842F020024A604A6842F00202CC
:102C20004A60B0BD70477047411E0020B0EB116F85
:102C30001CBF012070474EF21002CEF2000251601C
:102C40004EF62351CEF20001F0230B700721906065
:102C5000116070477047000010B504460068416974
:102C600094F84120212A1FD111F080011CD000BF0F
:102C7000206850E8050F216820F0800041E8050237
:102C8000002AF5D1A06B08B1FDF779FE206850E865
:102C9000030F216820F0C00041E80302002AF5D1AB
:102CA000202084F841002068406994F842102229CD
:102CB00013D110F0400010D0206850E8050F2168B3
:102CC00020F0400041E80502002AF5D1E06B08B190
:102CD000FDF755FE204603F05FFA002010BD704757
:102CE000B0B582B0044600680168C368426901F06B
:102CF0002F05202D03F0200506D12DB1204602B06E
:102D0000BDE8B04003F070BA5FEA017C1EBF02F07C
:102D1000010E03F4907212EB0E026CD1226BCD0601
:102D200041D5012A3FD113F010023CD0002101917E
:102D3000016801914168019101994069400600F1E3
:102D4000B780A08DE18DE28D002A00F01381401A3A
:102D500000F01081216851E8031F226821F490716E
:102D600042E80313002BF5D1216851E8051F2268C2
:102D700021F0010142E80513002BF5D1202184F850
:102D800042100021216300BF216851E8031F22681F
:102D900021F0100142E80313002BF5D1022281B289
:102DA00020466263CAE00A0640F1CD8013F080023B
:102DB00000F0C98094F84110212940F0DB80A1681F
:102DC000B1F5805F03D12169002900F0DB80216A21
:102DD0004A1C226209784160E18C01390A04E184CD
:102DE00040F0C880C16821F08001C160C16841F035
:102DF0004001C160BEE0CA0718BF13F4807203D05F
:102E0000626C42F0010262644A0706D5BEF1000F0F
:102E100003D0626C42F0020262648A0706D5BEF1FA
:102E2000000F03D0626C42F004026264BCF1000F38
:102E300006D55EEA050203D0626C42F008026264C5
:102E4000626C002A00F09680890604D51DB12046E8
:102E500003F0CAF920684069616C00F0400001F09D
:102E60000801401800F08180204603F095F92068A1
:102E70004069400640F18080206850E8050F2168D5
:102E800020F0400041E80502002AF5D1E06B00285F
:102E900072D046F29101C0F600014163FDF78FFD4B
:102EA000002867D0E06B416B02B0BDE8B040084736
:102EB000E06B016849688AB2002A5BD0A38D9A4210
:102EC00058D2E1858069202831D000BF206850E8C1
:102ED000030F216820F4807041E80302002AF5D135
:102EE000206850E8050F216820F0010041E8050244
:102EF000002AF5D1206850E8050F216820F0400035
:102F000041E80502002AF5D1202084F84200002083
:102F1000206300BF206850E8030F216820F01000F4
:102F200041E80302002AF5D1E06BFDF728FD0220FD
:102F30006063A08DE18D401A81B2204602B0BDE8E9
:102F4000B040FFF787BE490614D513F0400111D0F9
:102F5000C16821F04001C1602021204684F8411061
:102F600002B0BDE8B04000F064B92046FFF7B7FEFC
:102F70000020606402B0B0BD204602B0BDE8B040A1
:102F8000FFF7ADBE216A31F8022B6FF35F2242607A
:102F9000216221E710B582B0006843F60001C4F257
:102FA0000101884201D002B010BD42F6A810C2F261
:102FB0000000006843F648240168C2F200040907D3
:102FC0001CD40168C906EED5002101910168019168
:102FD00040680190019842F6A810C2F20000FFF785
:102FE0003BFE42F6B800C2F2000000684068C0F143
:102FF000FF002080012084F8010118E000210191E8
:103000000268019242680192019A0191026801925C
:1030100042680192019A0191016801914068019012
:10302000019842F6A810C2F20000FFF715FE42F622
:10303000A810A11CC2F20000FF2202B0BDE810409F
:1030400000F08FB858B310B5044690F8410028B985
:10305000002084F84000204600F023F8242084F863
:1030600041002068C16821F40051C160204603F08E
:103070001AF92068016921F490410161416921F048
:103080002A014161C16841F40051C1600020202142
:10309000606484F8411084F84210606310BD012020
:1030A00070472DE9F04186B040F600050446C4F2B1
:1030B0000105006805F540510027884204974DD16D
:1030C00041F21806C4F2020630680DF1080840F417
:1030D000804030603068414600F4804001900198A3
:1030E000306840F004003060306800F00400019067
:1030F00001984FF400700290022003900320059085
:103100002846FDF711FE4FF48060CDE902072846FE
:1031100041460497FDF708FE42F6B805A6F57C6027
:10312000C2F20005802120224FF48053C5E9000738
:103130002846C5E90271C5E90477C5E90623FDF70C
:103140004CFD08B1FDF716FC252000210022E563A7
:103150006C62FEF7E5FE2520FEF7D2FE06B0BDE864
:10316000F08110B590F84230202B08D14FF00104C7
:1031700031B12AB10024046303F0DEF800E0022438
:10318000204610BD704770472DE9F041044690F885
:10319000410020281CBF0220BDE8F0810D46002917
:1031A0004FF001003DD01746DAB3002060642120C3
:1031B000984684F84100FDF7B9FEA784E784A1682A
:1031C0000746B1F5805F01D1206910B12E46002578
:1031D00000E00026E08CC0B1204680213A464346FC
:1031E00003F0F6F8F8B92EB116F8010B2168486023
:1031F00007E000BF35F8020B21686FF35F204860DD
:103200000026E08C0138E084E4E7204640213A467D
:10321000434603F0DDF8202184F84110002818BF50
:103220000320BDE8F081202084F841000320BDE8A0
:10323000F081704780B540F6000089B2C4F2010009
:10324000FDF76AFE80BD80B540F6000089B2C4F289
:103250000100FDF766FE002080BD000010B582B0C1
:1032600042F21544C2F200040120BDF810E02070C3
:1032700042F6FC009C4689B2C2F2000040220123C3
:10328000CDE900CEFEF7B2FC20780028FCD100206A
:1032900002B010BD80B582B0BDF810C042F6FC008F
:1032A0001A444FF0640E89B2C2F200006346CDF8B2
:1032B00000E0FEF7F0F9002002B080BD80B582B0DA
:1032C000BDF810C042F6FC001A444FF0640E89B2FB
:1032D000C2F200006346CDF800E0FEF7A7FB002035
:1032E00002B080BD80B51278002A18BF012200F01C
:1032F0006FFF002080BD000010B5BDF808C042F689
:103300005014C2F20004991820466246FFF728FCC8
:10331000206800BF81680906FCD4002010BD80B57C
:10332000BDF808C042F650109918C2F2000062467B
:103330004FF47A73FFF7BEF9002080BD80B5BDF869
:1033400008C042F650109918C2F2000062464FF4CD
:103350007A73FFF755FA002080BD80B582B00498DB
:10336000BDF814C09918024442F650104FF47A7E0A
:10337000C2F200006346CDF800E0FFF7FBFA002040
:1033800002B080BDFEE742F6FC00C2F20000FDF78D
:10339000D5BD000010B581B000210091406A40F217
:1033A0000401C2F2000190F83DC009684BF2895255
:1033B000C908C1F2F842A1FB0212110A23225143AB
:1033C000009100BF009939B100990139009101685D
:1033D00009688905F6D403E0016C41F0200101641D
:1033E000446B0CB10021A162816B09B100228A6299
:1033F00002684FF0000E136823F480631360A0F896
:103400002AE00CB1C4F834E009B100234B63116821
:1034100021F00101116090F83D1060290BD12021AD
:1034200080F83D10002180F83E10016401B0BDE835
:103430001040FDF781BD0CF0280128290DD111683D
:1034400041F001011160116841F4806111600021B7
:103450000163282180F83D1005E0202180F83D100F
:10346000002180F83E1001B0BDE81040FEF761B8C1
:10347000406A416B09B100228A62816B09B1002266
:103480008A6201680A6822F480620A6000212022B0
:10349000418580F83D2080F83E10016C41F010011C
:1034A0000164FEF746B810B5446A94F83D2094F8DC
:1034B0003EE0D4F82CC02168606B4B6823F4407365
:1034C0004B6008B100238362A06B08B100238362C4
:1034D00002F0210021281ED002F02200222808BF7D
:1034E000BEF1200F17D094F83E00A8B3608D0128DC
:1034F00003D1086820F4806008604868BCF1070FB9
:1035000020F44070486028DCBCF12A4F2BD01CF519
:10351000803F28D02BE048682A2A20F400604860C9
:103520004FF0000060850AD0292A10D121202063A5
:10353000282084F83D002046FEF778FC07E0222092
:103540002063282084F83D002046FEF76EFC2068AA
:10355000416841F44071416010BDBCF1200F02D0C0
:10356000BCF1080F03D1086840F400700860486897
:1035700020F480504860486820F4006048600021D2
:103580006185206C20B12046BDE81040FDF7D1BF19
:10359000202084F83D0094F83E0084F83E10402836
:1035A00005D120462163BDE81040FEF70EBBBCF1FB
:1035B000080018BF1220BCF1200118BF01462046A8
:1035C0002163BDE81040FEF764B810B5044690F8DA
:1035D0003D1090F83E00B0F1100218BF01224038B3
:1035E00018BF0120024208BF22290AD001F028009A
:1035F00028280CD100202063282084F83D00206872
:1036000013E02068026822F40062026000E0206893
:103610004268120507D4602905D0202184F83D10A6
:10362000002184F83E1000212163416809051AD465
:1036300094F83D1060293CD1202184F83D100021F0
:1036400021644169490606D50069616A0870616AAA
:10365000206801316162016821F0010101602046AA
:10366000FDF76AFC45E0416821F400614160606B50
:1036700090F82110012929D1A06B43F29531C0F6B1
:1036800000014163FDF79BF998B320684169490641
:1036900006D50069616A0870616A2068013161625B
:1036A000016821F001010160202084F83D00A06B39
:1036B0001DE04169490605D50069616A0870606AC4
:1036C000013060622046FDF734FF12E043F295318D
:1036D000C0F600014163FDF772F950B12168606BDB
:1036E0000A6822F001020A60202184F83D10416B33
:1036F0008847206C000704D02068416821F4E0610D
:10370000416094F83D00216C490758BF10BD28283E
:103710000FD10020CFF6FF70E0620021202021634E
:1037200084F83D00204684F83E10BDE81040FDF7C7
:10373000AFBF10BDC16A428D042A06D10168426A3A
:103740004B6823F480634B601EE0428D032A0FD147
:1037500002680229536823F48063536005D004296A
:1037600003D0116821F4806111601169426A0CE094
:10377000428D022A06D103290FDC012911D002292A
:1037800014D018E00168426A09691170416A013178
:103790004162418D013941857047042906D01029C5
:1037A00009D10268136823F4806308E00268136893
:1037B00043F4806303E00268136843F4007313600A
:1037C0001269436A1A70426AD0F800C0531C4362FF
:1037D000438D013B4385DCF810305370426A036827
:1037E00001324262428D013A42855A6822F44072A7
:1037F0005A60202280F83D2090F83E300022402B75
:1038000080F83E2002D10263FEF7DFB9B1F1080271
:1038100018BF1222203918BF11460163FDF739BFC6
:1038200081B090F83D10222955D1C16A428D042AF9
:103830000DD30168426A09691170416A0131416220
:10384000418D01394185418D03293FD043E0C36A51
:10385000012A3BD8022B39D00022009240F2040208
:10386000C2F2000212684BF28953D208C1F2F84347
:10387000A2FB03231A0A02EB82020092009A013A89
:103880000092009A4AB3026813689B05F6D4136845
:1038900023F480631360536823F4E0635360126978
:1038A000436A1A70426A01324262428D013A42858D
:1038B000202280F83D2090F83E300022402B80F8F6
:1038C0003E2025D1026301B0FEF77FB90068416850
:1038D00021F48061416001B07047016C41F020012A
:1038E00001640168426A4B6823F4E0634B60096934
:1038F0001170416A01314162418D013941852021B8
:1039000080F83D10002180F83E1001B0FDF711BE97
:10391000B1F1080218BF1222203918BF1146016305
:1039200001B0FDF7B6BEC16A90F83D20212A18BF4C
:103930007047428D4AB1416A026811F8013B136138
:103940004162418D01394185704711F5803F18BFB3
:10395000082917D101684A6822F4E0624A600A68BF
:1039600042F400720A6000212022016380F83D20A9
:1039700090F83E2080F83E10402A08BFFEF726B996
:10398000FDF788BE2029E5D001684A6822F4E0628C
:103990004A6011210163002180F83E10202180F847
:1039A0003D10FDF777BE90F83D1090F83EC0C26A1A
:1039B000038DF3B921291CD112F5803F18BF082AC5
:1039C00031D101684A6822F4E0624A600A6842F430
:1039D00000720A6000212022016380F83D2090F8E7
:1039E0003E2080F83E10402A08BFFEF7EFB8FDF7F2
:1039F00051BE212905D0BCF1400F08BF222900D0BB
:103A00007047418D01B390F83E10402908BF00F087
:103A100021B8416A026811F8013B13614162418D8E
:103A2000013941857047202ACBD001684A6822F4C9
:103A3000E0624A6011210163002180F83E102021DC
:103A400080F83D10FDF726BE0068416821F48061D2
:103A50004160704790F83D10026D3AB1026D012A45
:103A60000ED10168826CD2B20A6118E0C26C816C1E
:103A7000012A10D10268C9B21161016D023110E052
:103A8000026D022A0FD1222914D101680A6842F47A
:103A900080720A6003E00268C1F307211161016DC1
:103AA00001310165704700684169090644BF002182
:103AB00001617047428D5AB1212909D1416A0268DA
:103AC00011F8013B13614162418D01394185704715
:103AD000428D002AEDD1212918BF704701684A683C
:103AE00022F4E0624A600A6842F400720A6000212F
:103AF0002022016380F83D2080F83E10FEF766B872
:103B00002DE9F04383B0044600680D4601680A9F22
:103B10000B9E41F4807199469046016020464FF01B
:103B2000011100223B46009600F07CF840B120686D
:103B30000068C00544BF4FF40070206403200DE00E
:103B4000206805F0FE0101610221C0F2010120465A
:103B50003A46334600F0BEF818B1012003B0BDE884
:103B6000F08300200290206832464169029180690A
:103B7000394602900298204600F028F940B1206CA6
:103B80000428EAD12068016841F400710160E4E78B
:103B90002068B9F1010F0AD04FEA182101612046CF
:103BA0003946324600F012F90028E8D120685FFA61
:103BB00088F101610020D1E7F0B581B003680446C7
:103BC000184650F8147F15467A0714D40E464F1C39
:103BD0005969490511D44FB1FDF7A8F9236816B109
:103BE000401BB04202D9586940070BD5184650F81F
:103BF000141F4907ECD5002012E06FF480610160CA
:103C0000042000E0202000212022216384F83D20B0
:103C100084F83E10226C10432064012084F83C108C
:103C200001B0F0BD2DE9F04780460068154601F46B
:103C30007F071822B7F5803F08BF142280588CB246
:103C40002040001BB0FA80F04009A8422CD1DDF8DA
:103C500020901E4603F1010ABAF1000F15D0FDF7BE
:103C600065F91EB1A0EB0900B0420ED9D8F80000EA
:103C70001821B7F5803F08BF142140582040001B91
:103C8000B0FA80F04009A84211D0D8F800001821FD
:103C9000B7F5803F08BF142140582040001BB0FA00
:103CA00080F04009A842D7D00020BDE8F08700206E
:103CB0002021C8F8300088F83D1088F83E00D8F878
:103CC000401041F02001C8F8401088F83C00012065
:103CD000BDE8F0872DE9F041984603680446184690
:103CE00050F8146F8FB206EA0701B94218D0164691
:103CF000551C00BF5969490515D45DB1FDF716F98A
:103D000023681EB1A0EB0800B04203D958693840BF
:103D1000B84211D1184650F8141F3940B942E9D1C0
:103D20000020BDE8F081196841F4007119606FF45A
:103D300080610160042000E0202000212022216316
:103D400084F83D2084F83E10226C1043206401204A
:103D500084F83C10BDE8F08170B50368044653F860
:103D6000140F400613D415460E4600BF1868C0064F
:103D70000FD4FDF7DBF8236816B1401BB04202D91F
:103D80005869400611D553F8140F4006EED50020AF
:103D900070BD6FF01000186000202021206384F8AF
:103DA0003D1084F83E00206C09E0002020212063B3
:103DB00084F83D1084F83E00206C40F02000206420
:103DC000002084F83C00012070BD0000F0B581B0F7
:103DD00003680446184650F8147F15463A0614D472
:103DE0000E464F1C5969490511D44FB1FDF79EF895
:103DF000236816B1401BB04202D9586900060BD5A2
:103E0000184650F8141F0906ECD5002012E06FF494
:103E100080610160042000E0202000212022216335
:103E200084F83D2084F83E10226C10432064012069
:103E300084F83C1001B0F0BDF0B583B042F6F01646
:103E400042F6F417C2F20006C2F2000732683B687D
:103E50000D4602EB43114C688DF80B0074B358010A
:103E6000105842F21444C2F200040022036B886826
:103E70000969227022469847306839682A4600EB63
:103E800041114868C96800F0A3F9386831684001F9
:103E9000085801250DF10B0300210022009500F0C8
:103EA0006BF93868316842018A5801EB4011136B95
:103EB0008868096922462570984715E0002D18BFCB
:103EC00001258DF80A0058010969AF0110584FF417
:103ED000FF728DF8097002EA410102270DF1090312
:103EE0000022009700F048F903B0F0BD42F610211F
:103EF000C2F20001096801B1084701A002F07CBFCD
:103F00005B4C4C4F53204552524F525D204C4C4F0E
:103F1000535F44656C61794D733A204E554C4C218A
:103F20000D00000080B558B1D0F82CC0BCF1000FD6
:103F300006D0DDF808E0CDF808E0BDE88040604735
:103F400002A002F059FF022080BD00BF5B4C4C4F25
:103F500053204552524F525D204C4C4F535F4465A5
:103F6000766963655F444D4157726974653A2064B0
:103F70006576203D3D204E554C4C210D0000000043
:103F800070B542F60C21C2F200010E787EB10546F2
:103F900042F22840C2F20000046800BF21682846AF
:103FA000FCF715F920B1013E04F13404F6D10024E8
:103FB000204670BD10B58EB001AC201D3021FCF73D
:103FC000FBF80CA0019043F24720C0F600000A90D5
:103FD00043F23520C0F600000990204600F03AFB7D
:103FE000FF281CBF0EB010BD019904A002F072FAA8
:103FF000FEE700BF4750494F410000005B4C4C4F6B
:1040000053204552524F525D204C4C4F535F4465F4
:10401000766963655F52656769737465725F47505F
:10402000494F202573207265676973746572206635
:1040300061696C6564210D0A0000000010B58EB046
:1040400001AC201D3021FCF7B7F80FA0019043F21E
:10405000BD20C0F60000079043F29520C0F6000096
:10406000069043F25D20C0F600000C90204600F060
:10407000F1FAFF281CBF0EB010BD019904A002F098
:1040800029FA00BFFEE700BF4932433200000000BA
:104090005B4C4C4F53204552524F525D204C4C4F7D
:1040A000535F4465766963655F52656769737465DC
:1040B000725F4932433220257320726567697374D9
:1040C0006572206661696C6564210D0A000000005C
:1040D00010B58EB001AC201D2821FCF76DF814A09E
:1040E000019043F23D30C0F60000079043F21F30CC
:1040F000C0F60000069043F25B30C0F60000089066
:1041000043F2F920C0F600000C9043F2E520C0F61F
:1041100000000D90204600F09DFAFF281CBF0EB055
:1041200010BD019904A002F0D5F900BFFEE700BF61
:1041300053504931000000005B4C4C4F5320455216
:10414000524F525D204C4C4F535F44657669636516
:104150005F52656769737465725F535049312025FA
:1041600073207265676973746572206661696C6536
:1041700064210D0A0000000080B558B1D0F818C0C5
:10418000BCF1000F06D0DDF808E0CDF808E0BDE88E
:104190008040604702A002F02FFE022080BD00BFD9
:1041A0005B4C4C4F53204552524F525D204C4C4F6C
:1041B000535F4465766963655F57726974653A2039
:1041C000646576203D3D204E554C4C210D0000008D
:1041D00010B1436A03B1184780B502A002F00CFE8B
:1041E000022080BD5B4C4C4F53204552524F525DD4
:1041F000204C4C4F535F4465766963655F57726925
:10420000746550696E3A20646576203D3D204E55B8
:104210004C4C210D000000002DE9F04381B042F626
:104220001C23C2F200031860086842F61023C2F291
:1042300000031860486842F61421C2F200010860C9
:10424000D179137A42F6042742F60826C2F2000713
:10425000C2F2000639703370136842F6FC11C2F2E4
:1042600000019079547A42F6022542F60C290B603F
:10427000918842F60022C2F20005C2F20009C2F2A1
:104280000002287089F80040118043B104290ED83B
:1042900047F67A00C0F6000002F0AEFDFEE747F6F2
:1042A000B800C0F6000002F0A7FD00BFFEE7A8219D
:1042B00000FB01F4204601F0A1F942F22C48C2F2C1
:1042C0000008C8F8000040B32146FBF775FF2878C6
:1042D0008400204601F092F942F62021C2F200014A
:1042E000086010B32146FBF767FF387800EB400009
:1042F000C400204601F082F9D8F8001043F64422A9
:10430000C2F200021060C1B93978B1B147F6E400D9
:10431000C0F6000002F070FDFEE747F61610C0F68A
:10432000000002F069FD00BFFEE747F67C10C0F612
:10433000000002F061FD00BFFEE72146FBF73CFFF5
:104340003078C400204601F059F9D8F8001042F244
:104350001042C2F20002106049B9317839B147F613
:10436000AA10C0F6000002F047FD00BFFEE721469C
:10437000FBF722FF99F80000342100FB01F42046EE
:1043800001F03CF942F22841C2F20001086050B944
:1043900099F8001039B147F64810C0F6000002F055
:1043A0002BFD00BFFEE72146FBF706FF47F6120094
:1043B000C0F6000002F020FD47F2AA70C0F600002F
:1043C00002F01AFD47F2DE70C0F6000002F014FDA4
:1043D00047F64600C0F6000002F00EFD06A002F00F
:1043E0000BFD47F6DA1111A0C0F6000101B0BDE8DF
:1043F000F04302F06FB800BF5B4C4C4F5320444574
:104400004255475D204C4C4F535F496E69742020E4
:104410002D2D2D2D2020202D2D2D2D202020202D27
:104420002D202020202D2D2020200D005B4C4C4FD6
:10443000532044454255475D204C4C4F535F496ED5
:104440006974204C4C4F532076657273696F6E3AD5
:104450002025730D0A00000043F64020C2F2000040
:104460000078002800F0B3802DE9F04F81B042F2CF
:104470002C4EC2F2000EDEF800C04FF00008A82754
:104480004FF0000A002100BF48B200FB07F94FF0CF
:10449000780B0026009100BF0AFB07C40CEB090350
:1044A000224632F8A20F9D1932F8027C95F89F102F
:1044B000384322F8020C39B1012185F88F10A2F897
:1044C000008085F89F8006E095F88F10A2F80080A4
:1044D00085F89F8069B143F63821C2F2000106C910
:1044E00003EB0B0753F80B307F68C91A72EB070117
:1044F00002D2A82754E000BFD4F8A420A827002A9D
:104500004ED042F6F811C2F200010B6806F10F011D
:10451000012505FA01F87BB1009C00EA080081B290
:10452000E0B200227546984728680AFB0700D0F8D9
:10453000A420B0F8A00001E0009C754600EA080045
:10454000E4B281B220469047D5F800C042F6F81395
:104550000AFB07C1C2F20003B1F8A0201B6850405B
:10456000AE46A1F8A0006BB100EA080081B2204677
:10457000012274469847D4F800C0A6460AFB07C03B
:10458000B0F8A00000EA0800000402D04FF00008D4
:1045900006E00CEB090030444FF0000880F88F80F3
:1045A000ABF1080B1BF10800A6F101067FF474AF14
:1045B000009943F64020C2F20000013100784FFA22
:1045C00081FA8245FFF660AF01B0BDE8F04F704759
:1045D00042F20941C2F200010978B0FBF1F000217A
:1045E0007047000042F60221C2F200010A788242BE
:1045F00009D9014642F62020C2F2000002680020DC
:1046000042F82100704780B502A002F0F5FBFF20C0
:1046100080BD00BF5B4C4C4F53204552524F525D02
:10462000204C4C4F535F4D73675F436C6561723A2A
:10463000203E204C4C5F5441534B5F4E554D210D55
:104640000000000042F62021C2F20001096851F882
:1046500020007047F0B581B042F2244C42F60C23A2
:10466000C2F2000CC2F200039CF800101B789942C1
:1046700028D242F22843C2F200031B684FF0340EE6
:1046800001FB0E32046800F1080701FB0EFEE0CFCB
:1046900043F80E4002F10803E0C3D0E90537517139
:1046A000C2E90537D0E90737C2E90737D0E909374A
:1046B000C2E90937D0E90B30C2E90B30481C8CF84D
:1046C000000003E003A002F097FBFF21084601B0C1
:1046D000F0BD00BF5B4C4C4F53204552524F525DD2
:1046E000204C4C4F535F52656769737465725F4429
:1046F00065766963653A203E204C4C5F4445565FC1
:104700004D41585F4E554D210D00000010B543F648
:104710004021C2F200010C78FF2C03D108A002F066
:104720006BFB0BE042F22C42C2F200021268A8239B
:1047300004FB0322C2F8A400601C0870204610BDD0
:104740005B4C4C4F53204552524F525D204C4C4FC6
:10475000535F52656769737465725F4576656E7401
:10476000733A203E3D20323535210D002DE9F04FC2
:104770008BB00F4611B20029009300F1B4800446BB
:1047800003201546A0EB42030026CDE9084700BFF1
:104790000098002801A868C056D00FFA85FA30B2F8
:1047A000504500F38680DDF80CB008980BEB000153
:1047B000A0EB0B000690099807910BEB0001A0EB12
:1047C0000B000591049000BFDDF824800BEB08007E
:1047D00085B20798294680B20A9000F087F80698BB
:1047E000294686B2304600F081F8DDF82090A9EB2A
:1047F0000B0087B2059885B23846294600F076F856
:10480000049884B23846214600F070F8A8EB0B00FB
:1048100087B23046394600F069F80A98394600F008
:1048200065F80BEB090086B23046214600F05EF8D1
:104830003046294600F05AF80BF101000FFA80FBD0
:10484000D345C1DD35E000BFE91930191FFA81FAFF
:1048500080B251460A9000F049F8A01B1FFA80F878
:104860004046514600F042F8601BF1191FFA80F9EA
:104870001FFA81FA4846514600F038F8B81B1FFA73
:1048800080FB4846594600F031F8781B86B2404616
:10489000314600F02BF80A98314600F027F8281925
:1048A00085B22846594600F021F82846514600F0C6
:1048B0001DF80398019B029D013019B2062206B231
:1048C00002EB8002401BB1F1FF3FC8BF013D2DB29A
:1048D0004FF00A01C8BF01EB8002DDE90847AE4294
:1048E00013447FF755AF0BB0BDE8F08F70B5C1F33F
:1048F000C7060C463146054600F030FC42F2304215
:10490000C2F2000202EBC50204F007000121935D30
:1049100001FA00F00343D8B29355BDE87040FFF7A9
:104920008BBA00002DE9F04F85B004B215B20E46E7
:1049300007460FFA81FC19B2101AA542B8BFB81A7F
:10494000A3EB06086145C8BFA6EB03084FF0FF3193
:10495000049297424FF0FF320FFA80FA0FFA88F96B
:10496000C34638BF0122CDE902329E4238BF012141
:1049700000910190834400BFBDB2B4B228462146E5
:10498000FFF7B4FF0FFA8BF0B9EB400F07DC049888
:1049900085420ED00398C34407440FFA8BF04000C1
:1049A0005045E9DC0298844203D0009806440198FF
:1049B000E0E705B0BDE8F08F2DE9F04F83B042F697
:1049C000F01742F6F41AC2F20007C2F2000A1546C6
:1049D0003A68DAF800608B4602EB4611097D0C9CC0
:1049E000002952D042F2144B4FF000084FF08009DA
:1049F000C2F2000B01250026B1B2002000F0AEFB90
:104A00003868DAF8002000EB42114B6852016BB3B2
:104A100080585A46036B886809698BF8008098476C
:104A20003868DAF80010012200EB41114868C968C3
:104A3000FFF7CEFBDAF80000396840010858002182
:104A400000222346CDF80090FFF76CFADAF8000058
:104A5000396842018A5801EB4011136B8868096973
:104A60005A468BF80050984709E000BF0969805802
:104A7000490000222346CDF80090FFF753FA013693
:104A8000082E04F18004B7D128E03BB3804603EB45
:104A90000B0005EB08070026AA4602901FFA8BF1CF
:104AA000404600F05BFB7DB1C14600BFB0B2205C68
:104AB0000121751CFFF7C0F909F101091FFA89F0FE
:104AC00087422E46F2D800E035460BF1010B0299E1
:104AD0001FFA8BF081422E465546DFD803B0BDE861
:104AE000F08F0000F0B581B01E46069B0D460446CF
:104AF00083B16EB11019771986B200BFA9B22046F2
:104B000032460B46FFF70EFF0135A8B28742F5D8B3
:104B100001B0F0BD101987B2204629463A462B460F
:104B2000FFF700FF701986B2204629462246334619
:104B3000FFF7F8FE384631463A462B46FFF7F2FEBD
:104B4000384631462246334601B0BDE8F040FFF713
:104B5000E9BE00002DE9F04F81B08946DDE90AB1D8
:104B600098468246E1B1BBF1000F009262D00BEB98
:104B7000090602EB0A0748464D4600BFA9EB0000B4
:104B8000584400EB0A01C0433A1888B2A9B292B265
:104B90000B46FFF7C7FE0135A8B28642EED84BE0C0
:104BA0000AEB02014F1EA7EB0B010BEB0A008CB2C4
:104BB00080B2494622464B460090FFF7B3FE09EB10
:104BC00008014D1E0BEB0900A5EB0B0186B2BFB22D
:104BD0001FFA81F8384631463A464346FFF7A2FEAF
:104BE0001FFA85FB009D204659462A465B46FFF783
:104BF00099FE5046414652463346FFF793FE2846FB
:104C0000494652463346FFF78DFE204649463A460E
:104C10003346FFF787FE3846414622465B46FFF79C
:104C200081FE504641462A465B4601B0BDE8F04F42
:104C3000FFF778BE48464D4608EB0907A7EB0B0483
:104C400084420DDD00985044013886B2A9B2504626
:104C500032460B46FFF766FE0135A8B28442F5DC0A
:104C6000874214D900996FEA0B0251440BEB0A06F4
:104C70008C1800BF381A311A221888B2A9B292B221
:104C80000B46FFF74FFE0135A8B28742F2D801B0BC
:104C9000BDE8F08F2DE9F04F8FB00D461A99DDE990
:104CA00018971C461646824621B1A54217D93046B0
:104CB000214618E05046294632462346FFF732FE89
:104CC000504629464A463B46FFF72CFE30462146D1
:104CD0004A463B460FB0BDE8F04FFFF723BE5046B3
:104CE0002946B2462546B94202D94C46BB4603E0A6
:104CF00004468B46484639468D4203D906460F4640
:104D0000A94603E056462F46824689462046FBF7D1
:104D100008FC80463046FBF704FC0290301BFBF792
:104D2000F7FB0546A7EB0B00FBF7F2FB0146284615
:104D3000FBF7B3FA0690AAEB0600ADF80CB0CDF87D
:104D40001080FBF7E5FB0546A9EB0700FBF7E0FB4E
:104D500001462846FBF7A1FA02990A90AAEB040043
:104D6000ADF81C700891FBF7D3FB0546A9EB0B00CF
:104D7000FBF7CEFB01462846FBF78FFAD945ADF885
:104D80002CB0CDF830804946CDF808900E9068D30D
:104D90000DF10C084FF6FF7908F10400019000BFF7
:104DA000019F00264FF6FF7A4FF6FF7437F8040C88
:104DB0001FFA8BF585421FD3A0B248450AD021B215
:104DC00008EB011138684968FBF794FB002808BF1D
:104DD000344600E034461FFA8AF048450BD00FFAFB
:104DE0008AF108EB011138684968FBF775FB002868
:104DF00008BFB24600E0B2460136032E07F11007A5
:104E0000D4D121B208EB0117A0B27E6848450FFA51
:104E10008AF413D01FFA8AF048450FD03046FBF7CA
:104E200085FB08EB0411496882460846FBF77EFBC8
:104E30000246504629462B46FFF774FDF868314676
:104E4000FBF7D3F9786008EB0414E0686168FBF7BE
:104E5000CCF90BF1010B029A1FFA8BF191426060C1
:104E60009ED90FB0BDE8F08F2DE9F04142F6F01564
:104E700042F6F416C2F20005C2F200062968326852
:104E800001EB4211C98B082938BFBDE8F0814FF012
:104E90000008C4B2A8F15000C0B20021FEF7CCFF58
:104EA0002868316800EB4110C07D0021FEF7C4FF87
:104EB00010200021FEF7C0FF2868316800EB411286
:104EC000928B6AB1002700BF20460121FEF7B4FF94
:104ED00028683168013700EB4112928B9742F3D377
:104EE00000EB411008F10108C08B1FFA88F1B1EB0B
:104EF000D00FCFD3BDE8F0812DE9F04381B0C8B326
:104F0000C1B304460068A8B342F618264D01C2F2A8
:104F100000062846317000F071FB42F6F017C2F22D
:104F20000007386058B321462A46FBF72CF9307841
:104F3000E8B142F6F41947F6E11800251624C2F24A
:104F40000009C0F6000800BFE9B2884202D9C9F8DA
:104F5000005002E0404601F04FFF3868204400F066
:104F60005FF830780135854204F12004ECD301B0BC
:104F7000BDE8F08314A001F03FFF00BFFEE702A0F0
:104F800001F03AFFFEE700BF5B4C4C4F5320455207
:104F9000524F525D204C4C4F535F5353443133308A
:104FA000365F48414C5F496E697420535344313336
:104FB00030365F636F6E66206D616C6C6F63206E60
:104FC000756C6C210D0000005B4C4C4F532045521A
:104FD000524F525D204C4C4F535F5353443133304A
:104FE000365F48414C5F496E697420706172612080
:104FF0006572726F72210D0042F61821C2F2000133
:105000000978814205D942F6F411C2F20001086024
:10501000704747F6E110C0F6000001F0EDBE000059
:10502000F0B581B0002848D00446AE200021FEF73C
:1050300003FFA178A02000294FF0000108BFA120A4
:10504000FEF7FAFEE178C02000294FF0000108BF0A
:10505000C820FEF7F1FE2179A72000294FF00001BA
:1050600008BFA620FEF7E8FE81200021FEF7E4FE3F
:1050700060790021FEF7E0FED5200021FEF7DCFE7E
:10508000802000218027FEF7D7FED9200021FEF7DF
:10509000D3FEF1200021FEF7CFFEDB200021FEF73A
:1050A000CBFE20200021FEF7C7FE207848B1012862
:1050B0001CD102251F26202006E01DA001F09CFE29
:1050C000FEE712253F2640202081A8200021E7800E
:1050D000FEF7B2FE30460021FEF7AEFEDA200021D8
:1050E000FEF7AAFE28460021FEF7A6FE402000217A
:1050F000FEF7A2FED3200021FEF79EFE0020002135
:10510000FEF79AFE8D200021FEF796FE1420002166
:10511000FEF792FEA4200021FEF78EFE0020FFF78E
:10512000A3FEAF20002101B0BDE8F040FEF784BE31
:105130005B4C4C4F53204552524F525D204C4C4FCC
:10514000535F535344313330365F496E6974207076
:10515000617261204E554C4C210D000070B5044623
:10516000A1F15000C0B20021FEF766FE42F6F01534
:1051700042F6F416C2F20005C2F200062868316851
:1051800000EB4110C07D0021204400F00F00FEF72D
:1051900053FE2868316800EB4110C07D0021204497
:1051A000C0B200091030BDE87040FEF745BE0000F7
:1051B000F0B581B01E460D460446A2F12007FFF768
:1051C000CDFF082EF8B211D146F6346100EB400055
:1051D000C0F6000101EB4004002500BF605D012125
:1051E000FEF72AFE0135062DF8D11EE047F25C01DC
:1051F000C0F6000101EB0016002700BFF05D0121A1
:10520000FEF71AFE0137082FF8D1681C81B220463C
:10521000FFF7A4FF06F10804002500BF605D01212F
:10522000FEF70AFE0135082DF8D101B0F0BD0000EF
:105230002DE9F04399B06E460C46209D0746304656
:10524000194601F057F942F6F01842F6F419C2F285
:105250000008C2F2000900BF30780D2802D068B9FA
:105260003CE000BF70780A2808D1102D03D0082D2B
:1052700008BF013400E0023402360027D8F80000ED
:10528000D9F80010082D00EB4110808BB9B205D180
:10529000821F8A4202DA013400270FE0A5F11002D2
:1052A0000838B2FA82F288424FF000004FEA5212F8
:1052B000B8BF012010401CBF0027023416F8012B94
:1052C000B8B2A1B22B46FFF773FF3846102D08BFC6
:1052D0000830082D08BFB81D0746BDE719B0BDE866
:1052E000F08300002DE9F04F81B047F24C6714467F
:1052F0008A460646C0F60007232500BF22780D2AFD
:1053000002D04AB99EE000BF60780A287CD114F828
:10531000022F0AF1020A002642F6F01042F6F411BA
:10532000C2F20000C2F2000153B200680968B3F192
:10533000FF3F74DC00EB4110808BB1B2103807F1F5
:10534000030807F113094FF0000B8842BCBF0AF1B4
:10535000020A00260BFB05F0385C2178884247D111
:105360000BFB057062784178914241D18078A17839
:1053700088423DD1B7B21FFA8AF138465546FFF749
:10538000EDFE4FF0000A00BF18F80A000121FEF7F9
:1053900053FD0AF1010ABAF1100FF5D1681C81B270
:1053A0003846AA46FFF7DAFE002700BF19F80700C3
:1053B0000121FEF741FD0137102FF7D142F6F01021
:1053C00042F6F411C2F20000C2F20001006809685E
:1053D000103600EB4110808B47F24C67B1B21038A9
:1053E000C0F6000723258842BCBF0AF1020A002646
:1053F0000BF1010B08F12308BBF10A0F09F1230996
:10540000A8D103347AE700BF42F6F01042F6F41157
:10541000C2F20000C2F20001006809680D2200EB30
:105420004110808BB1B208388842BCBF0AF1020A31
:105430000026B0B21FFA8AF11023FFF7B9FE083632
:1054400001345BE701B0BDE8F08F0000F0B542F633
:105450000225C2F200052D78854228D942F22C455A
:10546000C2F200052D68A82400FB045E43F6382430
:10547000BEF8A2000EF1900C0843AEF8A200002086
:10548000C2F20004012500BF21FA00F6F60707D09A
:10549000D4E900670CF80050B6185F41CEE9006708
:1054A000013010280EF1080E08BFF0BDECE702A095
:1054B000BDE8F04001F0A0BC5B4C4C4F532045527E
:1054C000524F525D204C4C4F535F53746172745F66
:1054D0004576656E743A203E204C4C5F5441534BE8
:1054E0005F4E554D210D00002DE9F04F81B042F285
:1054F0000941C2F2000143F6382A0870C2F2000ADC
:10550000DAE9000243F62825013042F10002CAE937
:105510000002C2F20005DAE90003D5E900270978A4
:10552000801A4FF47A72B2FBF1F263EB07010023A9
:10553000FAF7F8FD52EA030024D1A86842F60824DD
:105540000130A860C2F200042078D8B142F21046BF
:10555000C2F2000631684FF000080027AA6851F82F
:1055600037309A420BD301EBC70252683AB1F8B216
:1055700090473168207801EBC702C2F804800137F8
:105580008742EBD342F6042BC2F2000B9BF80000DB
:1055900088B343F64429C2F20009D9F800800027F5
:1055A000002600BF08EB0705287C68B1DAE9000196
:1055B00058F80720EB68801AD5E90142A141FAF7B3
:1055C000B1FD52EA030007D09BF800000136864285
:1055D00007F11807E6D30EE069690029F4D0F0B2AC
:1055E0008847D9F8008008EB0700417C0029EBD1FF
:1055F00000210174E8E701B0BDE8F08F42F6002118
:10560000C2F200010B88411E89B2994224BF0020DA
:105610007047B0B5810884074FF0010218BF02EB54
:105620009001B1EB930F36D242F6FC10C2F20000AB
:10563000026823F0030040F2FF0EAC2302EB000CE3
:10564000CFF6007ECCF60053106800EA0E049C42B0
:105650000CD1C0F30F2002EB8000041D04EB81028B
:1056600000206245224628BFB0BDEDE769B1141D98
:10567000002000BF256805EA0E059D42EED00130EE
:1056800085B28D4204F10404F4D343EA012042F8C8
:10569000040B1046B0BD0020B0BD80B582B041F211
:1056A0001400C4F202000168002241F0010101600F
:1056B0000068002100F00100019001980D20FCF726
:1056C0002FFC0D20FCF71CFC0E2000210022FCF713
:1056D00027FC0E20FCF714FC0F2000210022FCF711
:1056E0001FFC0F2002B0BDE88040FCF709BC2DE98B
:1056F000F04F85B04FF0000841F21800CDF810804F
:10570000C4F20200016840F6000B41F02001016084
:105710000168C4F2010B01F02001009100990168B9
:10572000012241F00401016001684FF4014901F0D8
:105730000401009100990168012741F0080101600E
:1057400000684FF4014100F00800009000985846AE
:10575000FBF7E7FB0BF5806420464FF470710122E4
:105760004FF4707AFBF7DDFB802001AECDE9010834
:10577000584631460397FBF7D7FA20463146CDE924
:1057800001780397FBF7D0FA022558463146CDE958
:105790000197CDF80C800495FBF7C6FA20463146F8
:1057A000CDE901A7CDE90385FBF7BEFA05B0BDE859
:1057B000F08F80B542F6FC0045F60001C2F2000011
:1057C000C4F2000141F6802200234FF4804CC0F265
:1057D000060280E80E00C0E9033CC0E90533C0E9D9
:1057E0000733FBF7A7FE18B1BDE88040FBF7C2B84E
:1057F00080BD80B542F6501043F20001C2F20000B5
:10580000C4F201014FF48272002380E80E0000F11F
:1058100014014FF4007C4FF0100E81E808500A216B
:10582000C0E90333C0E90833C0E90A31FCF78FFE51
:1058300018B1BDE88040FBF79DB880BD80B542F649
:10584000A81043F60001C2F20000C4F201010023D7
:105850004FF00C0C4FF4E13280E80E00C0E9033346
:10586000C0E905C3C361FDF7EDFB18B1BDE8804099
:10587000FBF780B880BD0000FEE70000FCF7A6FC47
:10588000FEE77047406A01684A6822F003024A60F6
:10589000416D41F010014165012180F85110FCF784
:1058A00055BE406AFDF7BFB9B0B582B0446A05463F
:1058B000FBF73CFB29680968890629D40246206861
:1058C000416821F020014160416821F002014160FE
:1058D0002046642100F04DF818B1606D40F02000C2
:1058E0006065A06838B9002001902068C168019106
:1058F0008068019001980020E086012084F8510022
:10590000606D28B1204602B0BDE8B040FCF71EBE75
:10591000204602B0BDE8B040FDF784B9B0B582B012
:10592000044640680B46B0F5827F12D1A068B0F5FE
:10593000004F02D0B0F5806F0BD12168B0F5806FB9
:105940000D6825F040050D6003D10092204601212D
:1059500002E02046802100920022002500F026F877
:1059600020B1606D032540F020006065284602B03C
:10597000B0BD70B582B00D461646022101222B46FD
:105980000446009600F012F840B92046802100221B
:105990002B460096002500F009F820B1606D032524
:1059A00040F020006065284602B070BD2DE9F04748
:1059B00082B00A9C984615460E468146FBF7B6FA19
:1059C000201A00EB0804FBF7B1FA40F20401C2F21E
:1059D00000010968C1F3CB3161430191D9F800108E
:1059E0008A683240921BB2FA82F25209AA421CD053
:1059F000824608F1010700BF7FB1FBF797FAA0EBE1
:105A00000A00A04213D2019801990028A1F10101D6
:105A10000191D9F8001008BF044688683040801B07
:105A2000B0FA80F04009A842E6D1002028E0D9E988
:105A300000014268B1F5827F22F0E00242600BD1A2
:105A4000D9F80810B1F5004F02D0B1F5806F03D13D
:105A5000016821F040010160D9F82810B1F5005F1C
:105A600007D1016821F400510160016841F400513F
:105A70000160012089F85100002089F850000320BE
:105A800002B0BDE8F087704780B50120FFF72CFD1C
:105A9000BDE88040FCF7CBB9B0B590B00024012040
:105AA000CDE90B44CDE9094406900A904FF48010EB
:105AB0004FF4803102250F9006A8CDE90714CDE9F7
:105AC0000D51FCF791FB20B1EFF3108072B600BFCF
:105AD000FEE70F20CDE901054FF48060CDE9040415
